:020000040800F2
:10000000E0060020E1020008C95F0008D1440008B2
:10001000C15F0008F903000809E7000800000000BC
:1000200000000000000000000000000051DB00089C
:10003000D90B000800000000A961000859DB000886
:10004000FB020008FB020008FB020008FB0200089C
:10005000FB020008FB020008FB020008FB0200088C
:10006000FB020008FB020008FB020008690600080A
:10007000FB020008FB020008FB020008FB0200086C
:10008000FB020008FB020008FB020008FB0200085C
:10009000FB020008FB020008FB020008FB0200084C
:1000A000FB020008FB020008FB020008FB0200083C
:1000B000FB020008FB020008FB020008FB0200082C
:1000C000FB020008FB020008FB020008FB0200081C
:1000D000FB020008FB020008FB020008FB0200080C
:1000E000FB020008FB02000800000000FB02000801
:1000F000FB020008FB020008FB020008FB020008EC
:10010000FB020008FB020008FB020008FB020008DB
:10011000FB020008FB020008FB020008FB020008CB
:10012000FB020008FB020008FB020008FB020008BB
:10013000FB020008FB020008FB020008FB020008AB
:1001400000000000000000000000000000000000AF
:10015000FB020008FB02000879060008FB02000809
:10016000FB020008FB020008FB020008FB0200087B
:10017000FB020008FB02000859060008000000000E
:10018000FB020008FB020008FB020008FB0200085B
:10019000FB020008FB020008FB020008FB0200084B
:1001A000FB020008FB020008FB0200080000000040
:1001B000FB020008FB020008FB020008FB0200082B
:1001C000FB020008FB020008000000000000000025
:1001D0000000000000000000FB020008000000001A
:1001E000000000000000000000000000000000000F
:1001F0000000000000000000FB020008FB020008F5
:10020000FB020008FB02000800000000FB020008DF
:10021000FB020008FB020008FB020008FB020008CA
:10022000FB02000800000000FB02000800000000C4
:10023000FB020008FB02000800000000FB020008AF
:10024000FB020008FB020008FB020008FB0200089A
:10025000FB020008FB020008FB020008FB0200088A
:10026000FB020008FB020008FB020008FB0200087A
:10027000FB020008FB020008FB020008000000006F
:10028000FB020008FB020008FB020008FB0200085A
:1002900000000000FB020008FB0200080000000054
:1002A00000000000FB020008FB020008FB0200083F
:1002B000FB020008FB020008FB020008FB0200082A
:1002C000FB020008FB020008FB020008DFF80CD06C
:1002D00000F07AF80048004731E70008E006002007
:1002E0000648804706480047FEE7FEE7FEE7FEE7D0
:1002F000FEE7FEE7FEE7FEE7FEE7FEE729DC000893
:10030000CD0200082DE9F05F0546002092469B468D
:1003100088460646814640241BE02846414647461B
:10032000224600F041F853465A46C01A914110D374
:1003300011461846224600F028F82D1A67EB0108EE
:100340004F4622460120002100F01FF817EB00095C
:100350004E41201EA4F10104DFDC484631462A4606
:100360004346BDE8F09FD2B201E000F8012B491EE0
:10037000FBD270470022F6E710B513460A46044642
:100380001946FFF7F0FF204610BD202A04DB203A73
:1003900000FA02F1002070479140C2F1200320FAD8
:1003A00003F3194390407047202A04DB203A21FAD6
:1003B00002F00021704721FA02F3D040C2F120027E
:1003C00091400843194670471CB5094800900948F8
:1003D00001900546009C06E0E06840F0010394E8C7
:1003E000070098471034AC42F6D3FFF773FF0000C4
:1003F00094EE0008B4EE0008FEE7000000000000E4
:10040000806B816C496D022906D0012180F835107E
:10041000C16C41F04001C16400F01EBC000000004E
:1004200010B5846BA26BA06C002A01680A680BD01F
:10043000A36BDB071AD112F4002217D0C968E26B54
:1004400001EBC201002219E010032DD4086800035B
:1004500019D4E06BD4E9102303EB80000861A26398
:10046000A06B216C884212D01DE000BF0A68120305
:1004700009D40969E26B01EBC201012200F01CFE04
:10048000A06B0138A063A06B216C88420BD120685F
:10049000C16841F00101C1600068800758BF10BD0C
:1004A000012084F8350010BD606CC860A06B216C21
:1004B0008842ECD0F7E70000F0B583B007F0D0F841
:1004C00040F210060020C2F20006C4F602003446D4
:1004D000002744F8080F2020C4E90207204667607F
:1004E000C4E90477A761C4E90877C4E90A772763F8
:1004F00000F042FC4E200021052202F06DFD4E204E
:1005000002F056FD44F2D84040F26805C5F60200FC
:10051000C2F20005016841F002010160006800F0CC
:100520000200029040F2B8400299C4F20200286032
:100530004B20EF60C5E901074FF4806028614FF45C
:10054000805068614FF48040A8614FF480702F6341
:10055000C5E90707042068620320C5E90A072846A1
:1005600001F032FE462000210022A564AC6302F0B7
:1005700033FD462002F01CFD05F042FDFF20012165
:100580000DF066FA0A2009F067F804460B2009F01E
:1005900063F840EA042121F00200B0F5195F39D177
:1005A00027A00EF025FA4EF60C50FF25C0F60000ED
:1005B000841E00BFE8B2E17825790DF049FA002DDC
:1005C00004F10204F6D1FF20002100250DF040FACD
:1005D0005A2064210DF03CFA5B204B210DF038FAD3
:1005E0005C2000210DF034FAE02000210DF030FAFB
:1005F00006F10804A0211D2240F2DF13EF20009035
:10060000204600F0EDFA204600F00EFB68B203B081
:10061000F0BD00BF03A00EF0EBF9FF2568B203B0F8
:10062000F0BD00BF4F5632363430204552524F5243
:100630002121212121202049443A25580D0A00007A
:100640004F5632363430204F4B2C49443A307825BF
:10065000580D0A000000000040F21800C2F200002D
:1006600000F036BB0000000040F23410C2F200007F
:1006700001F09EB90000000040F26800C2F20000E4
:1006800001F096B90000000040F20F42D0F800C01F
:10069000C4F20202944511DC6F22C4F202029445B6
:1006A00022DC3F22C4F20202944539DC1022C4F25B
:1006B000020294455AD0282254E000BF40F26F4213
:1006C000C4F2020294451BDC40F23F42C4F2020233
:1006D00094452DDC40F21042C4F20202944545D00C
:1006E00040F228423EE000BF9F22C4F2020294453D
:1006F00028DC7022C4F20202944537D0882231E00F
:1007000040F29F42C4F20202944523DC40F2704260
:10071000C4F20202944529D040F2884222E000BF90
:100720004022C4F20202944520D058221AE000BFB1
:1007300040F24042C4F20202944517D040F25842BF
:1007400010E000BFA022C4F2020294450ED0B822ED
:1007500008E000BF40F2B842C4F20202944505D05E
:1007600040F2A042C4F20202944517D10CF0F80204
:100770004AF6AB23103ACAF6AA23A2FB03310AA316
:100780005F2AC1F302115B5C40F2FF312CEA0101E8
:10079000C36588BF04318165084670472CF0FF01AE
:1007A00081650846704700BF000610160006101647
:1007B00080B540F20F4ED0F800C0C4F2020EF445EE
:1007C00014DC40F26F0EC4F2020EF44524DC40F259
:1007D0003F0EC4F2020EF4453EDC40F2100EC4F2AD
:1007E000020EF44561D040F2280E5BE040F26F4EFD
:1007F000C4F2020EF4451FDC40F23F4EC4F2020E7A
:10080000F44533DC40F2104EC4F2020EF4454CD0F5
:1008100040F2284E46E000BF40F29F0EC4F2020EA6
:10082000F4452DDC40F2700EC4F2020EF4453CD0CB
:1008300040F2880E36E000BF40F29F4EC4F2020E36
:10084000F44527DC40F2704EC4F2020EF4452CD081
:1008500040F2884E26E000BF40F2400EC4F2020E85
:10086000F44522D040F2580E1CE000BF40F2404E4A
:10087000C4F2020EF44518D040F2584E12E000BF08
:1008800040F2A00EC4F2020EF4450ED040F2B80EB3
:1008900008E000BF40F2B84EC4F2020EF44504D0A6
:1008A00040F2A04EC4F2020EF445CCF80430806849
:1008B000402805D1CCF80820CCF80C1080BD00BF32
:1008C000CCF80810CCF80C2080BD0000000000001F
:1008D00070B540F26F44D0F800C0C4F20204D0F802
:1008E00058E0A4451ADC9F25C4F20205AC4533DC70
:1008F0005725C4F20205AC455ADC1025C4F20205A6
:10090000AC4500F098802825C4F20205AC4500F003
:1009100092804025C4F202058AE000BF45F22F45CF
:10092000C5F60205AC452DDC40F2B745C4F2020520
:10093000AC454BDC40F27045C4F20205AC457AD0C0
:1009400040F28845C4F20205AC4574D040F2A0459F
:10095000C4F202056CE000BF40F22745C4F2020574
:10096000AC4543DCA025C4F20205AC4563D0B825F4
:10097000C4F20205AC455ED040F21045C4F2020557
:1009800056E000BF45F26B45C5F60205AC453FDCBD
:1009900045F23045C5F60205AC454CD045F244451C
:1009A000C5F60205AC4546D045F258453EE000BFCD
:1009B0005825C4F20205AC453DD07025C4F20205AD
:1009C000AC4538D08825C4F2020531E040F2B84584
:1009D000C4F20205AC452ED045F20845C5F6020525
:1009E000AC4528D045F21C4520E000BF40F2284528
:1009F000C4F20205AC451ED040F24045C4F20205E7
:100A0000AC4518D040F25845C4F2020510E000BFD2
:100A100045F26C45C5F60205AC450CD045F294454F
:100A2000C5F60205AC4506D045F28045C5F602057F
:100A3000AC4540F0D080456EC66E002E866E6E606E
:100A40001CBFD0E91C566E60A44515DC9F24C4F27F
:100A50000204A4452CDC5724C4F20204A44551DC52
:100A60001024C4F20204A4457AD02824C4F202045B
:100A7000A44575D040246FE045F22F44C5F602042A
:100A8000A44529DC40F2B744C4F20204A44545DC85
:100A900040F27044C4F20204A44561D040F288449C
:100AA000C4F20204A4455BD040F2A04454E000BF6D
:100AB00040F22744C4F20204A4453FDCA024C4F25F
:100AC0000204A4454CD0B824C4F20204A44547D083
:100AD00040F2104440E000BF45F26B44C5F602040A
:100AE000A44555DC45F23044C5F60204A44561D066
:100AF00045F24444C5F60204A4455BD045F258448F
:100B000054E000BF5824C4F20204A44528D0702445
:100B1000C4F20204A44523D088241DE040F2B84466
:100B2000C4F20204A4451BD045F20844C5F60204F1
:100B3000A4453FD045F21C4438E000BF40F22844B1
:100B4000C4F20204A4450BD040F24044C4F20204B3
:100B5000A44505D040F25844C4F20204A4453AD159
:100B60008468C06D00F01F003F2505FA00F0CEF844
:100B70000800DCF80000402C20F48020CCF80000B5
:100B8000CCF8043023D1CCF80820CCF80C1070BD80
:100B900045F26C44C5F60204A4450BD045F28044EE
:100BA000C5F60204A44505D045F29444C5F60204F6
:100BB000A44510D1C46D012504F01F04806805FA16
:100BC00004F4CEF804404028CCF80430DBD0CCF854
:100BD0000810CCF80C2070BD704700000000000029
:100BE00090F834C0BCF1010F4FF0020C17D080B563
:100BF00080F835C0DDF808C0D0F800E041EA0241D5
:100C000043EA0C434FF0000CCEF82430CEF820100D
:100C1000012180F8351080F834C0BDE8804060467E
:100C2000704700000000000090F8341001294FF0D8
:100C300002010CD080F8351001680A6842F0040205
:100C40000A60012180F83510002180F83410084630
:100C5000704700000000000080B500F035F804A1E6
:100C6000024608461146BDE880400DF0C1BE00BFF7
:100C70006572726F723A30782578EFBFBDEFBFBDF5
:100C8000EFBFBDEFBFBDEFBFBDEFBFBD0D0A0000A1
:100C900010B502F0B9F840F21004C2F20004616825
:100CA000401AC0087C2809D902F0AEF8606060786C
:100CB000A070012060700120207010BD60780130AC
:100CC00060700120207010BDC06C704700000000F3
:100CD00070B50446006840F201460569C0F600069A
:100CE000690721D4A8072DD4E8063BD4280705D5E9
:100CF000206808214161204600F0DAF9E80708BFC2
:100D000070BD20680168890703D5C16821F01E0104
:100D1000C160C16821F00101C1600121416120462B
:100D2000BDE87040FFF7B4BF04214161E06C40F0C2
:100D30000200E06484F83510A06C066500F0DCFC6D
:100D4000A807D1D521680222A06C4A61E16C41F06C
:100D50000101E164042184F83510066500F0CCFC43
:100D6000E806C3D5206810214161204600F058F8FC
:100D70002807BDD4C2E7000000284DD0B0B590F8D8
:100D8000351019B9044600F04FF82046022180F8CA
:100D90003510D0F818C04FF20705BCF1000FCFF6A0
:100DA000E0751CBF0021416290E80A40C268102B28
:100DB0000C6804EA05040C60D0E9045442EA040219
:100DC000046A42EA0502456A42EA0E0242EA040265
:100DD000846A42EA0502C56A42EA0402046B42EAF6
:100DE00005020D6842EA040242EA050242EA0C02E8
:100DF00042EA03020A6001D1C2698A61CA6842F00C
:100E00001E02CA600021C164012280F83520BDE8BD
:100E1000B0400846704700BF012070470000000046
:100E200070470000000000002DE9F04786B040F256
:100E300000080068C4F60208002640450596CDE982
:100E400003660296019603D006B0BDE8F08700BFA6
:100E500044F2E04041F20049C5F60200C5F602093D
:100E60000DF1040A022750F8041C032441F001018B
:100E700040F8041C50F8041C0D2501F001010091FC
:100E80000099016841F010010160016801F0100152
:100E900000910099016841F001010160016801F0D1
:100EA000010100910099016841F0040101600168AD
:100EB00001F0040100910099016841F0080101600E
:100EC000016801F0080100910099016841F04001BA
:100ED0000160016801F0400100910099016841F052
:100EE000200101600068514600F020000090009849
:100EF00070200190A9F58060CDE9027604940595F3
:100F000001F09EFE50205146CDE9010708F18050C6
:100F10000595CDE9036401F093FEC0205146CDE96B
:100F20000107A9F540600595CDE9036401F088FE4D
:100F300008205146CDE90107A9F500600595CDE9E6
:100F4000036401F07DFE4FF460605146CDE9010776
:100F500009F580600595CDE9036401F071FE4FF459
:100F60000051012248464FF40054012501F044FF8E
:100F700048465146CDE90145CDE9035601F060FEF2
:100F800006B0BDE8F087000070B582B0044690F866
:100F9000340001284FF0020000F086804FF0010E6F
:100FA00084F834E084F835000026D4F800C0B6EBAD
:100FB000134FA06CDCF8005045F48045CCF800508D
:100FC000DCF8005025F00205CCF80050DCF80050A9
:100FD00041EA0501CCF8001040F2214140F2014500
:100FE000C0F60001C163C0F60005C0E91356A66350
:100FF000E663266466640BD10CF1280101F034FC31
:10100000002848D04020E064012084F8350048E002
:101010004164C4F838E0E3636264E16BB1F5803F9A
:1010200029D30021E36B5B08E363A36B5B00A3633D
:10103000E36BB3F5803F1ED3E36B5B08E363A36B05
:101040005B00A363E36BB3F5803F21BFE36B5B08F9
:10105000E363A36B21BF5B00A363E36BB3F5803F46
:1010600009D3E36B5B08E363A36B5B00A363E36BF0
:10107000B1EB134FD6D1A16B0239A163A16B2164EF
:10108000E16BE66B009602EB81030CF1280100F0A6
:101090001BF80028B6D12068016841F00101016009
:1010A0000020002184F8341002B070BD0000000060
:1010B00070470000000000001023002A08BF0C2326
:1010C00002680020D15070472DE9F04381B0876855
:1010D000802F07D14FF480714165012001B0BDE838
:1010E000F08300BF90F83470012F03D1022001B0CB
:1010F000BDE8F083012780F8347090F83570012F37
:1011000028D1022780F835700027476540F20F4844
:101110000568C4F2020840F26F49DDF820C04FF0C4
:101120003F0E082745454FF48026C4F2020919DC1A
:101130006F24C4F20204A54226DC3F24C4F2020458
:10114000A5423DDC1024C4F20204A5425FD028244D
:1011500058E000BF4FF400614165012001B0BDE8D7
:10116000F08300BF4D451BDC40F23F44C4F2020453
:10117000A5422DDC40F21044C4F20204A54246D040
:1011800040F228443EE000BF9F24C4F20204A5427E
:1011900028DC7024C4F20204A54238D0882431E04F
:1011A00040F29F44C4F20204A54223DC40F27044A2
:1011B000C4F20204A5422AD040F2884422E000BFD3
:1011C0004024C4F20204A54221D058241AE000BFF2
:1011D00040F24044C4F20204A54218D040F2584400
:1011E00010E000BFA024C4F20204A5420FD0B8242E
:1011F00008E000BF40F2A044C4F20204A54206D0B9
:1012000040F2B844C4F20204A54240F06D822C685A
:1012100034432C602B61D0E9163404F01F040EFA1D
:1012200004F6DE5163460446FFF7C2FA206845F231
:101230002F414845C5F602011ADC9F22C4F2020282
:1012400090422FDC5722C4F20202904256DC102258
:10125000C4F20202904200F094802822C4F20202FA
:10126000904200F08E804022C4F2020286E000BF6D
:1012700088422DDC40F2B742C4F2020290424BDCBD
:1012800040F27042C4F2020290427AD040F28842A8
:10129000C4F20202904274D040F2A042C4F20202B0
:1012A0006CE000BF40F22742C4F20202904243DCED
:1012B000A022C4F20202904263D0B822C4F2020219
:1012C00090425ED040F21042C4F2020256E000BFEB
:1012D00045F26B42C5F6020290423FDC45F23042D5
:1012E000C5F6020290424CD045F24442C5F60202D5
:1012F000904246D045F258423EE000BF5822C4F228
:10130000020290423DD07022C4F20202904238D0D4
:101310008822C4F2020231E040F2B842C4F2020272
:1013200090422ED045F20842C5F60202904228D0E3
:1013300045F21C4220E000BF40F22842C4F2020203
:1013400090421ED040F24042C4F20202904218D0B5
:1013500040F25842C4F2020210E000BF45F26C4273
:10136000C5F6020290420CD045F29442C5F6020244
:10137000904206D045F28042C5F60202904240F00B
:10138000A581626EE36E002BA36E53601CBFD4E98F
:101390001C235360404511DC6F22C4F202029042CC
:1013A0001EDC3F22C4F20202904235DC1022C4F25D
:1013B0000202904257D0282250E000BF48451BDC73
:1013C00040F23F42C4F2020290422DDC40F2104251
:1013D000C4F20202904246D040F228423EE000BFF2
:1013E0009F22C4F20202904228DC7022C4F2020260
:1013F000904238D0882231E040F29F42C4F202028B
:10140000904223DC40F27042C4F2020290422AD0A1
:1014100040F2884222E000BF4022C4F20202904221
:1014200021D058221AE000BF40F24042C4F202022A
:10143000904218D040F2584210E000BFA022C4F2FF
:10144000020290420FD0B82208E000BF40F2B8423A
:10145000C4F20202904206D040F2A042C4F202025C
:10146000904240F0338102680B2363F34402026030
:10147000426942F080024261226C0AB9A26C1AB140
:10148000082203681A430260484519DC9F21C4F210
:10149000020188422EDC5721C4F20201884255DC49
:1014A0001021C4F20201884200F092802821C4F287
:1014B0000201884200F08C804021C4F2020185E0E4
:1014C00088422DDC40F2B741C4F2020188424BDC75
:1014D00040F27041C4F20201884279D040F2884162
:1014E000C4F20201884273D040F2A041C4F202016A
:1014F0006CE000BF40F22741C4F20201884243DCA5
:10150000A021C4F20201884262D0B821C4F20201D3
:1015100088425DD040F21041C4F2020156E000BFA3
:1015200045F26B41C5F6020188423FDC45F230418D
:10153000C5F6020188424BD045F24441C5F602018E
:10154000884245D045F258413EE000BF5821C4F2E0
:10155000020188423CD07021C4F20201884237D097
:101560008821C4F2020131E040F2B841C4F2020124
:1015700088422DD045F20841C5F60201884227D0A5
:1015800045F21C4120E000BF40F22841C4F20201B4
:1015900088421DD040F24041C4F20201884217D077
:1015A00040F25841C4F2020110E000BF45F26C4124
:1015B000C5F6020188420BD045F29441C5F60201FE
:1015C000884205D045F28041C5F60201884274D1B7
:1015D000216E0A68D20303D50A6842F480720A6059
:1015E000E16E19B10A6842F480720A60404511DC6C
:1015F0006F21C4F2020188421EDC3F21C4F20201C5
:10160000884235DC1021C4F20201884255D02821DD
:1016100050E000BF48451BDC40F23F41C4F20201EC
:1016200088422DDC40F21041C4F20201884244D0CD
:1016300040F228413EE000BF9F21C4F202018842EF
:1016400028DC7021C4F20201884236D0882131E0C2
:1016500040F29F41C4F20201884223DC40F2704113
:10166000C4F20201884228D040F2884122E000BF43
:101670004021C4F2020188421FD058211AE000BF65
:1016800040F24041C4F20201884216D040F2584173
:1016900010E000BFA021C4F2020188420DD0B821A1
:1016A00008E000BF40F2B841C4F20201884204D011
:1016B00040F2A041C4F202018842016841F00101F8
:1016C0000160002001B0BDE8F08300BF026805237F
:1016D00063F343020260226C1AB9A26C002A3FF441
:1016E000D3AE0422CDE600BF4FF0010E042748F22E
:1016F00020068CE500000000F0B190F835100229BA
:1017000018D180B540F20F420168C4F20202914242
:1017100014DC6F23C4F20203994225DC3F23C4F298
:10172000020399423CDC1023C4F2020399425DD0CB
:10173000282357E0802141650120704740F26F4324
:10174000C4F2020399421BDC40F23F43C4F202039D
:1017500099422DDC40F21043C4F20203994245D075
:1017600040F228433EE000BF9F23C4F202039942A7
:1017700028DC7023C4F20203994237D0882331E079
:1017800040F29F43C4F20203994223DC40F27043CB
:10179000C4F20203994229D040F2884322E000BFFC
:1017A0004023C4F20203994220D058231AE000BF1C
:1017B00040F24043C4F20203994217D040F258432A
:1017C00010E000BFA023C4F2020399420ED0B82358
:1017D00008E000BF40F2B843C4F20203994205D0CA
:1017E00040F2A043C4F20203994275D191424FF0F6
:1017F000040280F8352011DC6F20C4F2020081421F
:1018000022DC3F20C4F20200814239DC1020C4F205
:101810000200814259D0282054E000BF40F26F40BE
:10182000C4F2020081421BDC40F23F40C4F20200DD
:1018300081422DDC40F21040C4F20200814244D0CB
:1018400040F228403EE000BF9F20C4F202008142E7
:1018500028DC7020C4F20200814236D0882031E0BA
:1018600040F29F40C4F20200814223DC40F270400B
:10187000C4F20200814228D040F2884022E000BF3A
:101880004020C4F2020081421FD058201AE000BF5D
:1018900040F24040C4F20200814216D040F258406B
:1018A00010E000BFA020C4F2020081420DD0B82099
:1018B00008E000BF40F2B840C4F20200814204D008
:1018C00040F2A040C4F202008142086820F001000A
:1018D0000860002080BD00BF0A6822F00E020A6086
:1018E00045F25742C5F6020291420A6822F001020F
:1018F0000A600FDC45F22F42C5F60202914219DC64
:1019000045F20842C5F60202914229D045F21C4236
:1019100022E000BF45F27F42C5F60202914213DC8D
:1019200045F25842C5F60202914219D045F26C4286
:1019300012E000BF45F23042C5F6020291420FD0DC
:1019400045F2444208E000BF45F29442C5F6020267
:10195000914205D045F28042C5F6020291421AD169
:10196000D0E9181CD0E916E30A6822F480720A60F4
:1019700003F01F01012202FA01F1CEF80410816E7A
:10198000CCF80410C16E31B10A6822F480720A608A
:10199000D0E91C124A60012180F83510016D002247
:1019A000002980F8342094D08847002080BD0000B2
:1019B0002DE9F04782B00021019140F2080148F280
:1019C000B513C2F20001C1F64E33856D40F26F4986
:1019D0000A680168C4F202092E68A2FB032849457F
:1019E0002A6815DC9F22C4F2020291422CDC5722A5
:1019F000C4F20202914251DC1022C4F2020291426E
:101A00007BD02822C4F20202914276D040226FE0BD
:101A100045F22F43C5F60203994229DC40F2B74351
:101A2000C4F20203994245DC40F27042C4F2020261
:101A3000914262D040F28842C4F2020291425CD0EC
:101A400040F2A04254E000BF40F22742C4F202023A
:101A500091423FDCA022C4F2020291424DD0B82252
:101A6000C4F20202914248D040F2104240E000BF6E
:101A700045F26B43C5F60203994275DC45F23043EB
:101A8000C5F60203994200F0828045F24443C5F650
:101A9000020399427BD045F2584373E05822C4F2C6
:101AA0000202914229D07022C4F20202914224D053
:101AB00088221DE040F2B843C4F2020399421CD0D0
:101AC00045F20843C5F60203994260D045F21C4333
:101AD00058E000BF40F22842C4F2020291420CD00A
:101AE00040F24042C4F20202914206D040F2584213
:101AF000C4F20202914240F05383C26D082302F007
:101B00001F0240F20F4A9340C4F2020A334200F02F
:101B1000DE8051454FF0040412DC6F27C4F2020747
:101B2000B9426DDC3F27C4F20207B94200F39C8042
:101B30001027C4F20207B94200F0BD802827B5E0A3
:101B4000494569DC40F23F47C4F20207B94200F35D
:101B5000938040F21047C4F20207B94200F0AB8014
:101B600040F22847A2E000BF45F26C43C5F60203ED
:101B700099420CD045F28043C5F60203994206D043
:101B800045F29443C5F60203994240F009830B687D
:101B9000C76D07F01F070426BE40164218BF13F09A
:101BA000040423D10226BE40164218BF13F00204DB
:101BB00042D1FA40120740F1F38213F0080200F01C
:101BC000EF820A6822F00E020A60012101FA07F290
:101BD0006A60416580F83510C16C00294FF0000241
:101BE00080F8342040F0D882DAE200BF1A046E6038
:101BF00034D49A0636D40A6822F004020A6031E02E
:101C00009F27C4F20207B94240DC7027C4F20207E2
:101C1000B94250D0882749E040F29F47C4F20207FA
:101C2000B9423BDC40F27047C4F20207B94242D0ED
:101C300040F288473AE000BF1A046E6000F1B482B7
:101C40009A0600F1B5820A6822F00A020A600121B0
:101C500080F83510002180F83410A9E2D90301D4AE
:101C6000816C98E2016C96E24027C4F20207B94207
:101C700021D058271AE000BF40F24047C4F20207C3
:101C8000B94218D040F2584710E000BFA027C4F274
:101C90000207B9420FD0B82708E000BF40F2A047C2
:101CA000C4F20207B94206D040F2B847C4F20207B4
:101CB000B94218BF08240F68274208D00F6827F0E0
:101CC00004070F60AB60436D43F0010343650123DC
:101CD000934033426FD0514510DC6F27C4F20207A6
:101CE000B9421DDC3F27C4F20207B94234DC102799
:101CF000C4F20207B94256D028274FE049451BDC01
:101D000040F23F47C4F20207B9422DDC40F21047CF
:101D1000C4F20207B94246D040F228473EE000BF75
:101D20009F27C4F20207B94228DC7027C4F20207D9
:101D3000B94238D0882731E040F29F47C4F2020709
:101D4000B94223DC40F27047C4F20207B9422AD0FC
:101D500040F2884722E000BF4027C4F20207B942A0
:101D600021D058271AE000BF40F24047C4F20207D2
:101D7000B94218D040F2584710E000BFA027C4F283
:101D80000207B9420FD0B82708E000BF40F2A047D1
:101D9000C4F20207B94206D040F2B847C4F20207C3
:101DA000B94240F007824F693F0604D5AB60436DEE
:101DB00043F0020343650423934033426FD05145FF
:101DC00010DC6F27C4F20207B9421DDC3F27C4F2C2
:101DD0000207B94234DC1027C4F20207B94256D0D8
:101DE00028274FE049451BDC40F23F47C4F2020779
:101DF000B9422DDC40F21047C4F20207B94246D086
:101E000040F228473EE000BF9F27C4F20207B942D4
:101E100028DC7027C4F20207B94238D0882731E0A5
:101E200040F29F47C4F20207B94223DC40F27047F8
:101E3000C4F20207B9422AD040F2884722E000BF2C
:101E40004027C4F20207B94221D058271AE000BF48
:101E500040F24047C4F20207B94218D040F2584756
:101E600010E000BFA027C4F20207B9420FD0B82784
:101E700008E000BF40F2A047C4F20207B94206D012
:101E800040F2B847C4F20207B94240F09B810F68A4
:101E9000BF0704D5AB60436D43F0040343651023D3
:101EA00003FA02F2324200F0828051454FF00803FB
:101EB00010DC6F27C4F20207B9421DDC3F27C4F2D1
:101EC0000207B94234DC1027C4F20207B94256D0E7
:101ED00028274FE049451BDC40F23F47C4F2020788
:101EE000B9422DDC40F21047C4F20207B94246D095
:101EF00040F228473EE000BF9F27C4F20207B942E4
:101F000028DC7027C4F20207B94238D0882731E0B4
:101F100040F29F47C4F20207B94223DC40F2704707
:101F2000C4F20207B9422AD040F2884722E000BF3B
:101F30004027C4F20207B94221D058271AE000BF57
:101F400040F24047C4F20207B94218D040F2584765
:101F500010E000BFA027C4F20207B9420FD0B82793
:101F600008E000BF40F2A047C4F20207B94206D021
:101F700040F2B847C4F20207B94218BF04230F6801
:101F80001F4214D0AA600A6852030A6808D4D20516
:101F900008D40A6822F008020A60016C21B906E040
:101FA000110351D4016C11B1044688472046C16D1C
:101FB00001F01F02202101FA02F3334200F0AF804A
:101FC00001681027514511DC6F26C4F20206B142A8
:101FD0001EDC3F26C4F20206B14239DC1026C4F2F0
:101FE0000206B1425BD0282654E000BF49451BDC05
:101FF00040F23F46C4F20206B14231DC40F21046E4
:10200000C4F20206B1424AD040F2284642E000BF84
:102010009F26C4F20206B1422CDC7026C4F20206EE
:10202000B1423CD0882635E040F29F46C4F2020619
:10203000B14227DC40F27046C4F20206B1422ED013
:1020400040F2884626E000BF816C0029ACD1AEE7A3
:102050004026C4F20206B14221D058261AE000BF41
:1020600040F24046C4F20206B14218D040F258464F
:1020700010E000BFA026C4F20206B1420FD0B8267D
:1020800008E000BF40F2A046C4F20206B14206D00A
:1020900040F2B846C4F20206B14218BF02270E68E9
:1020A0003E423CD0AB6090F83530042B0B681DD11C
:1020B00023F016030B604B6923F080034B61036C24
:1020C0000BB9836C1BB10B6823F008030B603F2135
:1020D0009140A960012180F83510016D00294FF071
:1020E000000280F8342057D15AE000BF5A030A6832
:1020F0000CD4D2050ED40A6822F010020A60012125
:1021000080F83510002180F8341003E0110301D469
:10211000416C00E0C16B11B1044688472046416D17
:1021200000293DD0416DC90734D0042180F8351015
:1021300001684FEA98220B6823F001030B60019BB2
:102140000133019393421AD80B68DB0717D0019B28
:1021500001330193934212D80B68DB070FD0019B28
:102160000133019393420AD80B68DB0707D0019B28
:1021700001330193934202D80B68DB07DFD1096872
:10218000C9074FF0030108BF012180F83510002175
:1021900080F83410C16C19B102B0BDE8F0470847AF
:1021A00002B0BDE8F08700BFD90301D4416CF2E76B
:1021B000C16BF0E70B680423934033427FF4FFAD1B
:1021C0006DE600BF0B686AE62DE9F041044600F0B9
:1021D0001BFEFCB140F26F4805462068C4F20208BD
:1021E00040451BDC9F21C4F20201884232DC5721AA
:1021F000C4F20201884259DC1021C4F20201884273
:1022000000F083802821C4F20201884200F07D8022
:10221000402175E00120BDE8F08100BF45F22F416B
:10222000C5F60201884229DC40F2B741C4F202013E
:10223000884247DC40F27041C4F20201884264D017
:1022400040F28841C4F2020188425ED040F2A041CF
:1022500056E000BF40F22741C4F20201884241DC4F
:10226000A021C4F2020188424FD0B821C4F2020179
:1022700088424AD040F2104142E000BF45F26B4133
:10228000C5F60201884200F3D18045F23041C5F61F
:102290000201884200F0DD8045F24441C5F60201AA
:1022A000884200F0D68045F25841CDE05821C4F272
:1022B0000201884229D07021C4F20201884224D050
:1022C00088211DE040F2B841C4F2020188421CD0CE
:1022D00045F20841C5F60201884200F0BA8045F295
:1022E0001C41B1E040F22841C4F2020188420CD006
:1022F00040F24041C4F20201884206D040F2584107
:10230000C4F20201884240F03981022184F835107C
:10231000002184F83410016821F00101016000BF40
:1023200020680168C9070DD000F06EFD401B06282B
:10233000F6D320206065032084F835000120BDE835
:10234000F08100BF48F23F0204F108060168CFF6B1
:102350001062114065694CCE1143A2691943E369CB
:102360003143266A0D43616A2B43042943EA06037D
:1023700043EA020303D1D4E90B652E433343656876
:10238000A5F12906292E00F23182DFE816F02B0094
:102390002B002B002B002B002B002F022F022F02D3
:1023A0002F022F022F022F022F022F022F022F02A5
:1023B0002F022F022F022F022F022B002B002B00A7
:1023C0002B002F022F022F022F022B002B002F0297
:1023D0002F022F022F022F022F022B002B002B0087
:1023E0002B0000BF43F4801303600429436923F0EA
:1023F000070341EA030140F0DD80D4E90A53002BD2
:1024000041EA050100F0D680B2F5005F00F0B88027
:10241000002A40F0C180022D00F0C180012D00F0A3
:10242000B580002D00F0BB80C4E000BF45F26C41D8
:10243000C5F6020188420CD045F28041C5F6020182
:10244000884206D045F29441C5F60201884240F028
:10245000958004F1080E022184F83510002184F8DB
:1024600034100168A3699EE80450A2F18005E76971
:10247000B5FA85F566696D09402A4FEA853543EA64
:1024800007026FF3101142EA060208BF102541EA65
:10249000DC0142EA0E02236A294341EAD20141EA01
:1024A000131140F80819C0B2CD2148433C2101EA7C
:1024B0009020E0652046FEF7E7F8E16D012201F08B
:1024C0001F0102FA01F141602068404500F381805C
:1024D0009F21C4F20201884214DC5721C4F2020198
:1024E000884227DC1021C4F20201884200F0C78034
:1024F0002821C4F20201884200F0C1804021C4F2C8
:102500000201B9E040F22741C4F20201884221DC15
:10251000A021C4F20201884200F0B180B821C4F2C7
:102520000201884200F0AB8040F21041C4F2020187
:10253000A2E000BF5821C4F20201884200F09F804F
:102540007021C4F20201884200F099808821C4F20F
:10255000020191E040F22841C4F20201884200F0F9
:102560008E8040F24041C4F20201884200F0878030
:1025700040F25841C4F202017EE000BF4020D9E69B
:10258000032D17D8DFE805F00E0B0E02A3F1C07281
:10259000B2FA82F2520904E0032D03D30AD1C3F345
:1025A00000623AB140206065012084F83500BDE842
:1025B000F08100BF41612046FEF766F8E16D3F22E1
:1025C00001F01F0102FA01F18160206840457FF7A8
:1025D0007FAF45F22F41C5F60201884216DC40F27A
:1025E000B741C4F20201884226DC40F27041C4F2D5
:1025F0000201884243D040F28841C4F2020188427D
:102600003DD040F2A041C4F2020135E045F26B41F9
:10261000C5F6020188421FDC45F23041C5F60201D1
:1026200088422CD045F24441C5F60201884226D0AA
:1026300045F258411EE000BF40F2B841C4F2020129
:1026400088421CD045F20841C5F60201884216D0E6
:1026500045F21C410EE000BF45F26C41C5F6020197
:1026600088420CD045F29441C5F60201884206D05A
:1026700045F28041C5F60201884240F0E18045F212
:10268000574C45F6FC0EC5F6020CC5F6020E604529
:102690000EDC45F22F41C5F60201884218DC45F2F6
:1026A0000841C5F60201884228D045F21C4121E0CC
:1026B00045F27F41C5F60201884213DC45F25841DC
:1026C000C5F60201884219D045F26C4112E000BF04
:1026D00045F23041C5F6020188420FD045F244412F
:1026E00008E000BF45F29441C5F60201884205D0DA
:1026F00045F28041C5F60201884247D100F0FC0155
:102700004CF6CD420839CCF6CC42A1FB0212AEF118
:10271000FC05AEF17C061309A26803F01F01802AB4
:102720004FF0010205EB8305256602FA01F26666A9
:10273000A26605D100206060286072601EE000BFC4
:102740006368D9B25F1E072F2960726016D84E1ECB
:10275000082E19D260450EF1440237DC45F22F41B4
:10276000C5F60201884249DC45F20841C5F602017E
:10277000884259D045F21C4152E000BF00206067FA
:10278000C4E91B005CE000BFE06E54E000F0F8011B
:102790004AF6AB221039CAF6AA22A1FB021240F275
:1027A0000F43C4F2020308251109984203F1AA0657
:1027B0000B4688BF05EB121340F60005B042C4F289
:1027C000020505F1800628BF0B46A5E745F27F41CB
:1027D000C5F6020188421BDC45F25841C5F60201EC
:1027E000884221D045F26C411AE000BF25F0030772
:1027F000742F08BF43F48013F6E500BF45F2304163
:10280000C5F6020188420FD045F2444108E000BFFE
:1028100045F28041C5F60201884205D045F2944157
:10282000C5F60201884213D10EEB83000121E06658
:10283000B1402267616700210160D4E91C01416059
:1028400000206065012184F83510BDE8F08100BFEB
:1028500040F60000C4F2020000F1FC0E00F5A07288
:10286000E2E700000000000030B110B590F83440FD
:10287000012C03D1022010BD01207047012480F8F3
:10288000344090F83540012C2CD1022480F835409A
:1028900000244465D0F800C0DCF8004024F00104B6
:1028A000CCF800400446FEF713F840F20F4C2068C5
:1028B000C4F2020C40F26F416045C4F2020119DC1F
:1028C0006F23C4F20203984226DC3F23C4F20203C2
:1028D00098423DDC1023C4F2020398425FD02823C3
:1028E00058E000BF4FF400614165002180F83410CA
:1028F000012010BD88421BDC40F23F43C4F20203BA
:1029000098422DDC40F21043C4F20203984246D0B4
:1029100040F228433EE000BF9F23C4F202039842E6
:1029200028DC7023C4F20203984238D0882331E0B7
:1029300040F29F43C4F20203984223DC40F270430A
:10294000C4F2020398422AD040F2884322E000BF3A
:102950004023C4F20203984221D058231AE000BF5A
:1029600040F24043C4F20203984218D040F2584368
:1029700010E000BFA023C4F2020398420FD0B82396
:1029800008E000BF40F2B843C4F20203984206D008
:1029900040F2A043C4F20203984240F02F81036842
:1029A0000B2262F344030360226C1AB1082302680D
:1029B0001A430260884219DC9F22C4F2020290424C
:1029C00032DC5722C4F20202904259DC1022C4F2D7
:1029D0000202904200F096802822C4F20202904245
:1029E00000F090804022C4F2020289E045F22F42BA
:1029F000C5F6020290422DDC40F2B742C4F2020258
:102A000090424BDC40F27042C4F20202904279D014
:102A100040F28842C4F20202904273D040F2A042D7
:102A2000C4F202026CE000BF40F22742C4F202028C
:102A3000904243DCA022C4F20202904262D0B8224B
:102A4000C4F2020290425DD040F21042C4F202028F
:102A500056E000BF45F26B42C5F6020290423FDCF1
:102A600045F23042C5F6020290424BD045F2444254
:102A7000C5F60202904245D045F258423EE000BF02
:102A80005822C4F2020290423CD07022C4F20202E8
:102A9000904237D08822C4F2020231E040F2B842BC
:102AA000C4F2020290422DD045F20842C5F602025D
:102AB000904227D045F21C4220E000BF40F228425D
:102AC000C4F2020290421DD040F24042C4F202021F
:102AD000904217D040F25842C4F2020210E000BF08
:102AE00045F26C42C5F6020290420BD045F2944288
:102AF000C5F60202904205D045F28042C5F60202B8
:102B0000904274D1236E1A68D20303D51A6842F436
:102B100080721A60E36E1BB11A6842F480721A6008
:102B2000604511DC6F21C4F2020188421EDC3F21A6
:102B3000C4F20201884235DC1021C4F2020188424D
:102B400055D0282150E000BF88421BDC40F23F41B5
:102B5000C4F2020188422DDC40F21041C4F20201AD
:102B6000884244D040F228413EE000BF9F21C4F299
:102B70000201884228DC7021C4F20201884236D06A
:102B8000882131E040F29F41C4F20201884223DCF7
:102B900040F27041C4F20201884228D040F28841DC
:102BA00022E000BF4021C4F2020188421FD0582118
:102BB0001AE000BF40F24041C4F20201884216D040
:102BC00040F2584110E000BFA021C4F20201884247
:102BD0000DD0B82108E000BF40F2B841C4F20201B4
:102BE000884204D040F2A041C4F202018842016848
:102BF00041F001010160002010BD00BF0268052303
:102C000063F343020260226C002A3FF4D3AE042334
:102C1000CDE6000000000000B0B5044600F0F4F876
:102C200040F200010546C2F20001621C097818BF9B
:102C30000C4400BF00F0E8F8401BA042FAD3B0BD3E
:102C40002DE9F04F83B00F68002F00F0C98000F12C
:102C5000264642F2004506F1FF76C5F602050A2235
:102C6000A8424FEAB62540F2040C08BF092200F141
:102C700020030093082DC5F6000C38BF4FEAB6229A
:102C8000002400264FF0000801920AE008F1010834
:102C90000F6837FA08F206F1020604F1040400F0A6
:102CA0009F80012202FA08FE17EA0E09EED0D1F841
:102CB00004B003220BF00307B2407D1E6FEA020A44
:102CC000012D11D88268CD6802EA0A02B5402A4374
:102CD0008260CBF30015426822EA0E0205FA08F57D
:102CE0002A43426004E000BF032F01D103271FE005
:102CF000C2688D6802EA0A02B540022F42EA050264
:102D0000C26015D16FF0030204F01C0502EA580BF3
:102D1000009A0F2352F80BE0AB400F692EEA030331
:102D2000AF403B4342F80B30D1F804B00BF003073F
:102D3000026807FA06F302EA0A021BF4403F42EA7D
:102D400003020260A2D044F2F44340F2084EC5F6FA
:102D50000203C5F6000E0F251A6842F002021A603F
:102D60001A6802F00202029228F00302029B04F0A9
:102D70000C0352F80E709D40AF43019D05FA03F31A
:102D80003B4342F80E304FF0B04EDEF800204B6867
:102D900042EA0907DD0258BF22EA09079D02CEF880
:102DA0000070DCF8002042EA090758BF22EA090750
:102DB0009D03CCF80070DCF8802042EA090758BF78
:102DC00022EA0907DB03CCF88070DCF87C2042EAB9
:102DD000090758BF22EA0907CCF87C7056E700BF04
:102DE00003B0BDE8F08F00000069084018BF012063
:102DF0007047000000000000002A08BF090481613C
:102E0000704700000000000040F2D820C2F200002D
:102E1000006870470000000040F2000040F2D82136
:102E2000C2F20000C2F2000100780A681044086093
:102E3000704700000000000080B5032000F0FCF89F
:102E400000F022FC44F218414EF6FC43C5F60201A4
:102E5000C0F600030A68C2F303229A5C096801F015
:102E60000F0102F01F02595CD04040F20C02C2F286
:102E7000000201F01F0120FA01F1116040F2080187
:102E8000C2F2000108600F2000F00AF800281CBF01
:102E9000012080BD00F07CF8002080BD0000000013
:102EA000B0B540F20005C2F200052978F1B1044640
:102EB00040F20800C2F200004FF47A72B2FBF1F166
:102EC0000068B0FBF1F001F03FF90F2C01464FF024
:102ED00001000AD8002918BFB0BD4FF0FF30002212
:102EE000214600F079F800206C60B0BD0120B0BD33
:102EF000B0B502784EF69C5CCEF2000C43784CF8EC
:102F0000043CFAB14368CCF80030037BC17A90F8F6
:102F10000AE0457B447A42EA0372837B42EA01611C
:102F2000C27B41EACE41007A41EA854141EA434110
:102F300041EA024141EA042141EA4000CCF80400A0
:102F4000B0BD00BF0020CCF80000CCF80400B0BD3C
:102F50004EF62450CEF20000BFF35F8F016821F4DB
:102F6000803101600021016770470000000000000F
:102F70004EF6245140F00100CEF2000108670868C7
:102F800040F480300860BFF34F8FBFF36F8F7047FE
:102F900081B044F2F440C5F60200016841F002013C
:102FA0000160006800F002000090009801B07047D6
:102FB000002848BF704700F01F01012202FA01F10A
:102FC0004EF20012C0F34A10CEF2000242F8201076
:102FD000704700000000000070B54EF60C5C4FF02A
:102FE000FF36CEF2000C00F1604505F56445DCF8D3
:102FF0000030C3F3022E8EF00703042B28BF0423F6
:10300000BEF1030406FA03F321EA030100F00F0303
:1030100038BF0024043B0028634406FA04F048BF8C
:1030200003F10C05A14022EA0000084300012870CA
:1030300070BD0000000000004EF60C514FF6FF037B
:10304000CEF200010A681A4060F30A2242F0806062
:1030500040F0FD7008607047B0B544F60C05C5F649
:10306000020529684907296806D401F00701081AF2
:1030700018BF0120B0BD00BF21F007010843286040
:10308000FFF7C2FE044600BF55F8080C800407D4C1
:10309000FFF7BAFE001BB0F57A7FF5D90120B0BD6D
:1030A0000020B0BD0000000080B500F065FA44F2D9
:1030B00020414EF6FC42C5F60201C0F60002096846
:1030C000C1F30211515C01F01F01C84080BD000036
:1030D00080B544F2384EC5F6020E5EF8103C5EF83C
:1030E000101C5EF80C2CC1F3053CDEF80410BCF19A
:1030F000000F19D0C9089FED3C1AD20601EAE2710F
:1031000003F003026FF35F3100EE101AB8EE400ACD
:10311000DFE802F0022210225EF8381C89060DD486
:103120009FED331A18E000BF00218160C0E9001153
:1031300080BD00BF9FED2D1A0EE000BF5EF8381C69
:1031400049F20002C0F2D032C1F3C10122FA01F10A
:1031500001EE101AB8EE411ADEF800109FED253A84
:103160006FF35F2102EE101ADEF80010C1F3462162
:10317000B8EE422A013100EE032A00EE10CAB7EE83
:10318000003AB8EE400A81EE000A32EE031A20EE51
:10319000010A01EE101AB8EE411A80EE011ABCEED7
:1031A000C11A80ED001ADEF80010C1F306410131AA
:1031B00001EE101AB8EE411A80EE011ABCEEC11AE7
:1031C00080ED011ADEF80010C1F30661013101EE55
:1031D000101AB8EE411A80EE010ABCEEC00A10EED9
:1031E000101A816080BD00BF0024744A20BCBE4B11
:1031F0000024744C0000003980B544F2404EC5F6FE
:10320000020E5EF8183C5EF8181C5EF8142CC1F330
:10321000055CDEF80410BCF1000F19D0C9089FED61
:103220003C1AD20501EAE27103F003026FF35F3149
:1032300000EE101AB8EE400ADFE802F00222102277
:103240005EF8401C89060DD49FED331A18E000BFCC
:1032500000218160C0E9001180BD00BF9FED2D1AE3
:103260000EE000BF5EF8401C49F20002C0F2D0320E
:10327000C1F3C10122FA01F101EE101AB8EE411AB0
:10328000DEF800109FED253A6FF35F2102EE101A71
:10329000DEF80010C1F34621B8EE422A013100EEFB
:1032A000032A00EE10CAB7EE003AB8EE400A81EEEB
:1032B000000A32EE031A20EE010A01EE101AB8EEEF
:1032C000411A80EE011ABCEEC11A80ED001ADEF838
:1032D0000010C1F30641013101EE101AB8EE411A97
:1032E00080EE011ABCEEC11A80ED011ADEF8001062
:1032F000C1F30661013101EE101AB8EE411A80EEF9
:10330000010ABCEEC00A10EE101A816080BD00BF39
:103310000024744A20BCBE4B0024744C00000039C9
:103320002DE9F04381B0002800F0208142F200092D
:103330000446C5F20029D9F8000000F00F008142D0
:103340000DD9D9F8000020F00F000843C9F800009B
:10335000D9F8000000F00F00884240F00781206893
:1033600044F218464207C5F602060AD522693368B8
:1033700003F070039A4204D9336823F070031A43B0
:10338000326002070AD56269736803F070039A42DB
:1033900004D9736823F070031A437260C2060AD519
:1033A000A269736803F4E0639A4204D9736823F452
:1033B000E0631A43726082060AD5E269B36803F0DB
:1033C00070039A4204D9B36823F070031A43B260C1
:1033D00010F002020AD0E368376807F00F07BB421B
:1033E00004D9376827F00F073B433360C3073FD04A
:1033F000306820F47062D4E901031A433260012876
:1034000056F8182C0AD0032804D002280AD19203B7
:103410000BD4ABE0920108D4A8E000BFD20504D4DD
:10342000A4E000BF520740F1A180884656F8081C6E
:1034300021F00701084346F8080CFFF7E5FC0546B4
:1034400041F2883756F8080C616800F03800B0EB9C
:10345000C10F09D0FFF7D8FC401BB842F2D90320B6
:1034600001B0BDE8F08300BF2068414600F00202D1
:1034700052B1E268336803F00F039A4204D2336812
:1034800023F00F031A433260D9F8002002F00F0234
:1034900091420CD2D9F8002022F00F020A43C9F859
:1034A0000020D9F8002002F00F028A425ED14107C5
:1034B0000AD52169326802F07002914204D2326862
:1034C00022F070021143316001070AD56169726808
:1034D00002F07002914204D2726822F0700211432D
:1034E0007160C1060AD5A169726802F4E062914276
:1034F00004D2726822F4E0621143716080060AD53A
:10350000E069B16801F07001884204D2B16821F02D
:1035100070010843B06000F0B7F831684EF6FC4225
:10352000C0F60002C1F30321515C336803F00F03BE
:1035300001F01F01D25C20FA01F102F01F0040F2FD
:103540000C02C2F2000221FA00F0106040F2040006
:1035500040F20802C2F20000C2F2000200681160EC
:1035600001B0BDE8F043FFF79BBC00BF012001B0F4
:10357000BDE8F0830000000080B500F085F844F25B
:1035800018414EF6FC43C5F60201C0F600030A6876
:10359000C2F303229A5C096801F00F0102F01F02D6
:1035A000595C20FA02F201F01F0040F20C01C2F255
:1035B000000122FA00F0086040F20801C2F20001A6
:1035C0000A6080BD0000000080B500F05DF844F2A4
:1035D000184C4EF6FC43C5F6020CC0F60003DCF8AE
:1035E0000020C2F303229A5CDCF8001001F00F0106
:1035F00002F01F02595CD04040F20C02C2F20002FD
:1036000001F01F0120FA01F1116040F20802C2F23C
:1036100000021060DCF80400C0F30210185C00F037
:103620001F0021FA00F080BD80B500F02DF844F2B3
:10363000184C4EF6FC43C5F6020CC0F60003DCF84D
:103640000020C2F303229A5CDCF8001001F00F01A5
:1036500002F01F02595CD04040F20C02C2F200029C
:1036600001F01F0120FA01F1116040F20802C2F2DC
:1036700000021060DCF80400C0F30220185C00F0C7
:103680001F0021FA00F080BD44F20041C5F602019E
:103690000869C0F3C200032816D002280ED0002803
:1036A00032D10868800649F20000C0F2D03058BF1D
:1036B00070470968C1F3C101C840704747F6400030
:1036C000C0F27D10704700BF8B6A886AD1F82CC0A9
:1036D0004A6BC0F30510E8B1C2F3CC0203F0030358
:1036E00000EE102A9FED2A1AB8EE400A20EE010AD9
:1036F0009FED281ADFE803F0022110210A689206E4
:103700000ED49FED261A18E040F60010C0F23D00DE
:10371000704700BF002070479FED1F1A0DE000BFEB
:103720000A6849F20003C0F2D033C2F3C10223FA9F
:1037300002F201EE102AB8EE411A0A6B9FED183A18
:103740006FF35F2202EE102A5FEACC7203FE000ADA
:1037500003EE100A086BB8EE422AC0F34620B8EE1A
:10376000433A013030EE020AB7EE002A81EE031A26
:1037700030EE020A21EE000A01EE100AB8EE411AFC
:1037800080EE010ABCEEC00A10EE100A704700BFBE
:10379000000000390024744A20BCBE4B0024744C45
:1037A000000000000000000070B3F0B581B00446D6
:1037B000007844F20046C007C5F6020626D12078FC
:1037C00080076AD5306910F03801B06A42D01829F4
:1037D00008BF5FEA80703DD0E0683168002800F0E3
:1037E0002D8121F0190108433060FFF70DFB0546DC
:1037F000306840074AD4FFF707FB401B0228F7D97F
:10380000032001B0F0BD00BF01207047306900F017
:103810003801B06A102905D018290BD100F0030037
:10382000022807D130688003C9D560680028C6D156
:10383000AAE000BF61683068002900F03981B1F565
:10384000A02F00F02D81B1F5803F40F0478140F47A
:10385000803049E130684007E06802D5002800F078
:103860009380316821F0190108433060FFF7CCFAEA
:10387000054600BF3068400708D4FFF7C5FA401B73
:1038800002284FF00300F5D901B0F0BD706821693E
:1038900020F0FE4040EA016070602078C0061AD532
:1038A000306900F03801B06A082907D0182940F0C3
:1038B000858000F00300012840F080803068C0055A
:1038C00002D5E06980285FD1F068216A20F07C5041
:1038D00040EA0160F060207800073FD4207880063D
:1038E00056D42078400700F18180656A9DB3306925
:1038F00000F03800182840F01981012DB16A306BB2
:1039000042D001F00302A36A9A423DD1C1F30511EE
:10391000E26A914238D10146226B6FF35F21013A8E
:10392000914231D1C0F34622616B01398A422BD1D9
:10393000C0F30642A16B01398A4225D1C0F306606B
:10394000E16B013988421FD1706BA16CC0F3CC00D0
:10395000814240F0A581002001B0F0BD60690028DF
:10396000706F59D040F001007067FFF74DFA0546BF
:10397000706F8007B2D4FFF747FA401B0228F7D9CF
:10398000032001B0F0BD00BF012001B0F0BD00BFB9
:10399000A0690028306871D040F480503060FFF793
:1039A00033FA0546306880049BD4FFF72DFA401B9C
:1039B0000228F7D9032001B0F0BD00BFE06900285C
:1039C000306800F0A18040F080003060FFF71CFA02
:1039D000054600BF3068C0053FF576AFFFF714FA23
:1039E000401B02284FF00300F4D94DE7D6F800043D
:1039F00040F48070C6F80004FFF706FA054600BFE1
:103A0000D6F80004C0052BD4FFF7FEF9401B64284C
:103A1000F6D9032001B0F0BD20F001007067FFF778
:103A2000F3F90546706F80077FF558AFFFF7ECF9A3
:103A3000401B02284FF00300F4D925E721F00100D4
:103A40003060FFF7E1F90546306840077FF525AFA4
:103A5000FFF7DAF9401B02284FF00300F4D913E70F
:103A6000A168306F002900F08B80052900F080806C
:103A7000012940F09D8040F001009FE020F480503B
:103A80003060FFF7C1F90546306880047FF529AF43
:103A9000FFF7BAF9401B02284FF00300F4D9F3E610
:103AA00040F480203060306840F480301CE000BF7B
:103AB00020F480303060306820F480203060FFF7E0
:103AC000A3F90546306880037FF579AEFFF79CF9CE
:103AD000401B64284FF00300F4D9D5E620F4803071
:103AE0003060306820F480203060FFF78DF90546A3
:103AF000306880033FF563AEFFF786F9401B64280A
:103B0000F6D9032001B0F0BD20F080003060FFF74F
:103B10007BF905463068C0057FF5DDAEFFF774F927
:103B2000401B02284FF00300F4D9ADE6306820F0C6
:103B300080703060FFF768F9022D05460CD100BF98
:103B4000306880014CD5FFF75FF9401B02284FF029
:103B50000300F5D998E600BF306880017FF5FBAE21
:103B6000FFF752F9401B02284FF00300F4D98BE60F
:103B700040F004003067306F40F001001EE000BFED
:103B800020F001003067306F20F004003067FFF74D
:103B90003BF9054641F28837306F80077FF5A5AEC7
:103BA000FFF732F9401BB8424FF00300F4D96BE63F
:103BB00020F001003067306F20F004003067FFF71D
:103BC00023F9054641F28837306F80073FF58DAE07
:103BD000FFF71AF9401BB8424FF00300F4D953E63F
:103BE00004F12807B06A40F2F33188438ECF0843CE
:103BF000591E40EA02104FF47E426FF35F21B0621B
:103C000002EB47204FF4FE0280B2E36B0844A16B45
:103C100002EB01414FF0FE4201F4FE0102EB0362B0
:103C2000084402F0FE4108443063F06A4FF6F87130
:103C300020F00100F062706BA26C884340EAC20081
:103C40007063F06A216C20F00C000843F062F06AA7
:103C5000616C20F002000843F062F06A40F48030AA
:103C6000F062F06A40F40030F062F06A40F48020C4
:103C7000F062F06A40F00100F062306840F080705D
:103C80003060FFF7C1F80446306880013FF563AE4D
:103C9000FFF7BAF8001B02284FF00300F4D9F3E550
:103CA000F06A20F00100F062FFF7AEF80546FFF77A
:103CB000ABF8A842FBD0706B4FF6F871A26C88434A
:103CC00040EAC2007063F06A40F00100F062002038
:103CD00001B0F0BD0000000000284DD02DE9F04FEC
:103CE00081B043F600040168C4F2000443F2000E00
:103CF00043F6004CA142C4F2010EC4F2000C4FF096
:103D00000002826203D0614518BF714542D1C26B87
:103D10000125C368A14203F1080305EB52124FEAE3
:103D2000D30303FB02F218BF714527D1102A34D800
:103D300090F8811031B9002180F88010044600F01D
:103D4000ABF82046022180F88110D0E90019D0F8A4
:103D500018800D68B8F1806F25F001050D608D6841
:103D600005F4F81E26D1B9F1000F1BD0B9F5800F6C
:103D700020D1856B25BB19E001207047614518BF34
:103D8000082A0AD80CF574439942CFD06145CDD0AA
:103D9000CEE700BFC2680F2AB9D9012001B0BDE843
:103DA000F08F00BF856BB5F1805F06D10D6845F4DB
:103DB00080550D605FEA492502D44FF0010C0FE0F9
:103DC000C468072C0AD30D6825F4807C056D45EA8C
:103DD0000C050D604FF0000C07E000BF4FF0000C29
:103DE0000C6824F480740C60C468C769836A47EA6D
:103DF0000E07C26B3B4387681A43B9F1000FD0E945
:103E000004BA42EA04028A60426B856B436A42EA62
:103E10000302036A42EA050242EA0B0242EA0A028C
:103E2000D0E9126442EA0302836D42EA040242EAE4
:103E3000070242EA060242EA030242EA080242EAB2
:103E40000902CA600ED00A6DBCF1000F22F0010217
:103E50000A6515D1CA68436D22F000421A43CA6050
:103E60000EE000BF8A68012363F3CC228A608A686F
:103E7000022363F34A228A600A6D22F001020A6576
:103E80000021C0F88410012180F88110002001B0C9
:103E9000BDE8F08F00000000704700000000000047
:103EA0002DE9F047044690F88000012802D1022055
:103EB000BDE8F0871D4617460E46D4F80090012055
:103EC00084F88000FEF7A0FF94F88110012909D141
:103ED000002E18BF002F0BD1002084F88000012095
:103EE000BDE8F087002084F880000220BDE8F0875C
:103EF0008046032084F881000020C4F88400E66531
:103F0000A4F86070A4F862706066A4F86800A4F871
:103F10006A00A1682067B1F5C02F6067206805D1ED
:103F2000016841F40061016005E000BFC168012241
:103F300062F35241C16041684FF6FF7291433944C8
:103F40004160016841F0010101606168B1F5800FD5
:103F500003D1016841F400710160E16810294DD37B
:103F6000B4F86200002800F0C580681C0FD132E070
:103F7000E16D51F8042B0262E165B4F8620001388A
:103F8000A4F86200B4F86200002800F0B380206852
:103F900041698907ECD4FEF737FFA0EB0800A8427F
:103FA000F0D3204609F06CFD002084F88000D4F89E
:103FB000840040F48070C4F88400012084F88100FB
:103FC0000320BDE8F08700BFFEF71EFFB4F86200D3
:103FD000002800F08F80206841698907F4D5E16DE1
:103FE00051F8042B0262E165B4F862000138A4F8CC
:103FF0006200B4F862000028EDD17BE0B4F8620002
:10400000072933D9002875D04FF6FE706E1C471C67
:1040100013E000BFE06B0028E06D20D050F8042BC7
:104020000A624FF6FE71E065B4F862000844A4F835
:104030006200B4F8620000285CD0216848698007FB
:1040400008D4FEF7E1FE002EF3D0A0EB0800A84252
:10405000EFD3A6E7B4F862000128DBD8E06D30F8B2
:10406000021BA9F820103946DDE700BF002841D027
:104070004FF6FE706E1CA0F1020A471C0EE000BF56
:10408000E16D51F8042B02625046E165B4F862100C
:104090000844A4F86200B4F8620058B3206841698B
:1040A000890709D4FEF7B0FE002EF4D0A0EB08007B
:1040B000A842F0D375E700BFB4F86210042902D318
:1040C000E16B4129DCD2B4F8621001290AD9E16B15
:1040D0000029E16D07D031F8020BA9F820004FF656
:1040E000FE70D2E7E16D097880F82010E06D411C88
:1040F0003846CAE7681C13D020684069000713D40B
:10410000FEF782FEA0EB0800A842F5D3D4F88400A5
:1041100040F02000C4F8840006E000BFFEF774FE03
:10412000206840690007F9D5204609F0A9FC002065
:1041300084F88000012084F88100D4F884000028ED
:1041400018BF0120BDE8F087411E0020B0EB116FC1
:1041500002D00120704700BF4EF21002F023CEF2D1
:10416000000251604EF62351CEF200010B70072180
:10417000906011607047000090F88410012901D10F
:10418000022070472421C0F8881001680A680B6873
:1041900022F0005223F001030B60002343660A6003
:1041A0002021C0F8881080F884300020704700007B
:1041B00090F88420012A01D10220704770B5242292
:1041C000C0F888200268D0F864E0BEF1000FD2F891
:1041D00000C0136823F001031360936823F0606349
:1041E00041EA0301916019D091684EF6846E93689C
:1041F000C0F6000E5B0F4EF68C65C1F34266C0F64A
:1042000000051EF80340E95C2301B3FBF1F11EF841
:104210000630AE5D1B01B3FBF6F301E00121012383
:10422000A0F86A102021A0F86830C2F800C0C0F8D9
:104230008810002180F88410002070BD000000006C
:1042400090F88420012A01D10220704770B5242201
:10425000C0F888200268D0F864E0BEF1000FD2F800
:1042600000C0136823F001031360936823F06043D8
:1042700041EA0301916019D091684EF6846E93680B
:10428000C0F6000E5B0F4EF68C65C1F34266C0F6B9
:1042900000051EF80340E95C2301B3FBF1F11EF8B1
:1042A0000630AE5D1B01B3FBF6F301E001210123F3
:1042B000A0F86A102021A0F86830C2F800C0C0F849
:1042C0008810002180F88410002070BD00000000DC
:1042D00010B5A8B10446D0F8880028B9002084F8A9
:1042E0008400204600F028F82420C4F888002068C4
:1042F000016821F001010160204609F015FE08B1B6
:10430000012010BDA06A10B1204609F0E5FC20682C
:10431000416821F490414160816821F02A01816067
:10432000016841F0010101602046BDE8104009F03C
:1043300043BD000000000000B0B586B041F20002AD
:104340000068C4F20102002190420591CDE90311F9
:10435000CDE9011102D006B0B0BD00BF44F2E0408B
:104360000024C5F60200C5F6020401AD016941F062
:1043700010010161016901F010010091009950F8EC
:10438000081C41F0010140F8081C50F8081C01F01D
:10439000010100910099016841F00101016001688B
:1043A00001F0010100910099016841F001010160F3
:1043B0000068294600F00100009000984FF400705A
:1043C0000190022002900120039003200490072016
:1043D00005902046FEF734FC4FF4806001902046A3
:1043E0002946FEF72DFC0B2000210122FEF7F4FDEB
:1043F0000B20FEF7DDFD06B0B0BD000000000000A0
:104400002DE9F04182B00446D0F88800202809D177
:104410000F460120002918BF002A07D102B0BDE8CD
:10442000F08100BF022002B0BDE8F0811D460020EF
:10443000C4F890002120C4F888001646FEF7E4FC7A
:10444000A4F854608046A4F85660A168B1F5805F76
:1044500001D1206910B13E4600270AE0002608E09D
:10446000206816F8011B8162B4F856000138A4F8E0
:104470005600B4F8560088B18021002220464346F9
:10448000009509F0A1FFC8B9002EE9D137F8020B59
:10449000216800266FF35F208862E5E74021002253
:1044A00020464346009509F08FFF20210028C4F8DC
:1044B000881018BF032002B0BDE8F0812020C4F8A6
:1044C0008800032002B0BDE8F08100000000000079
:1044D000FEE7000000000000F0B581B040BA40F2F5
:1044E000C821C2F20001ADF8020040F600440A887B
:1044F000C5F602044988501E01FB02F7013982B259
:1045000000208BB2002101F007FB01210022204690
:10451000FEF772FC022101222046FEF76DFC77B106
:1045200040F2AC150DF10206C2F2000502224FF076
:10453000FF3328463146FFF7B3FC013FF6D1012196
:1045400001222046FEF758FC01B0F0BD000000003B
:104550002DE9F04FADF5017D8A460546101A591A2E
:1045600040F6004B01300131C5F6020B174601FB46
:1045700000F40121002258469946FEF73DFC022135
:1045800000225846FEF738FC40F2C82840F2AC162C
:10459000C2F20008C2F2000601A9012298F80A003E
:1045A0004FF0FF338DF804003046FFF779FC02210D
:1045B00001225846FEF720FC280A8DF8040001A9C4
:1045C00001224FF0FF333046FFF76AFC01A90122B8
:1045D0004FF0FF3330468DF80450FFF761FC380A86
:1045E0008DF8040001A901224FF0FF333046FFF798
:1045F00057FC01A901224FF0FF3330468DF80470BB
:10460000FFF74EFC022100225846FEF7F5FB98F812
:104610000C0001A98DF8040001224FF0FF33304651
:10462000FFF73EFC022101225846FEF7E5FB4FEA68
:104630001A208DF8040001A901224FF0FF33304603
:10464000FFF72EFC01A901224FF0FF3330468DF811
:1046500004A0FFF725FC4FEA19208DF8040001A9FA
:1046600001224FF0FF333046FFF71AFC01A9012267
:104670004FF0FF3330468DF80490FFF711FC022114
:1046800000225846FEF7B8FB98F808000DF1040A1E
:104690008DF8040001224FF0FF3330465146FFF7FA
:1046A000FFFB022101225846FEF7A6FB002C00F07A
:1046B000858040F2AC154FF00009C2F2000500946D
:1046C0000CE000BF4FEA48004FF0FF3382B22846AB
:1046D0005146FFF7E5FBC144A1456FD2A4EB0900A9
:1046E0008046B0F5807F28BF4FF480784C45E9D0F4
:1046F0004FF0010CB8F1010F88BFC44604288A9816
:1047000000EB490002D200212DE000BF0121B8F1E9
:10471000010F88BF41466FF0070721F0030E00210B
:10472000C21900EB41050AEB41030AEB070B16899E
:10473000D2890837340A0AF811406C88AD880431F0
:104740008BF809608E454FEA14269E708BF80B405B
:104750004FEA15241C714FEA12248BF80D509C71FE
:104760008BF80F20DCD140F2AC151CF00302009C4A
:10477000C2F20005A6D030F811300AEB4106012A3A
:104780004FEA13270AF8117073709BD04B1C022A52
:1047900030F813700AEB430C4FEA17260AF813603F
:1047A0008CF801708ED0023130F811000AEB410212
:1047B000030A0AF81130507084E700BF40F6004049
:1047C00001210122C5F60200FEF716FB0DF5017D61
:1047D000BDE8F08F000000002DE9F04F87B001F038
:1047E0003FF944F2E0404FF00009C5F60200CDF871
:1047F0001890CDE90499CDE90299016840F600448A
:1048000041F0080101600168C5F6020401F00801E9
:1048100001910199016841F002010160006802AE56
:1048200000F00200019001980720029020463146D6
:104830000127CDE9037703250595FEF701FA4FF02F
:10484000100B3146CDE902B7CDE90479A4F5006734
:1048500000973846FEF7F4F9012101222046FEF7C1
:10486000CBFA0221012220464FF0020AFEF7C4FAD9
:10487000042101222046FEF7BFFA1021002238460B
:10488000FEF7BAFA042100222046FEF7B5FA6420AA
:104890006427FEF7C1F9042101222046FEF7ACFA95
:1048A0003220FEF7B9F9012100222046FEF7A4FAD2
:1048B000022100222046FEF79FFA40F2AC16CF20DC
:1048C000C2F200068DF8080002A901224FF0FF3362
:1048D0003046FFF7E5FA012101222046FEF78CFA67
:1048E000012100222046FEF787FA022101222046FC
:1048F000FEF782FA02A901224FF0FF3330468DF80D
:104900000890FFF7CDFA012101222046FEF774FA44
:10491000012100222046FEF76FFA022101222046E3
:10492000FEF76AFAC9208DF8080002A901224FF0AB
:10493000FF333046FFF7B4FA012101222046FEF78B
:104940005BFA012100222046FEF756FA02210122DD
:104950002046FEF751FA02A901224FF0FF333046FC
:104960004FF030088DF80880FFF79AFA01210122F4
:104970002046FEF741FA012100222046FEF73CFACC
:10498000022100222046FEF737FAED208DF80800BC
:1049900002A901224FF0FF333046FFF781FA0121CF
:1049A00001222046FEF728FA012100222046FEF7C8
:1049B00023FA022101222046FEF71EFA02A9012253
:1049C0004FF0FF3330468DF80870FFF769FA012188
:1049D00001222046FEF710FA012100222046FEF7B0
:1049E0000BFA022101222046FEF706FA02A9012253
:1049F0004FF0FF3330468DF80850FFF751FA012190
:104A000001222046FEF7F8F9012100222046FEF798
:104A1000F3F9022101222046FEF7EEF912208DF86B
:104A2000080002A901224FF0FF333046FFF738FAA1
:104A3000012101222046FEF7DFF901210022204654
:104A4000FEF7DAF9022101222046FEF7D5F981208E
:104A50008DF8080002A901224FF0FF333046FFF71E
:104A60001FFA012101222046FEF7C6F9012100228A
:104A70002046FEF7C1F9022100222046FEF7BCF9CC
:104A8000E8208DF8080002A901224FF0FF333046DC
:104A9000FFF706FA012101222046FEF7ADF90121B8
:104AA00000222046FEF7A8F9022101222046FEF747
:104AB000A3F985208DF8080002A901224FF0FF33E9
:104AC0003046FFF7EDF9012101222046FEF794F967
:104AD000012100222046FEF78FF902210122204603
:104AE000FEF78AF902A901224FF0FF3330468DF814
:104AF00008B0FFF7D5F9012101222046FEF77CF925
:104B0000012100222046FEF777F9022101222046EA
:104B1000FEF772F97A208DF8080002A901224FF001
:104B2000FF333046FFF7BCF9012101222046FEF792
:104B300063F9012100222046FEF75EF902210022DE
:104B40002046FEF759F9CB208DF8080002A9012272
:104B50004FF0FF333046FFF7A3F901210122204631
:104B6000FEF74AF9012100222046FEF745F902210D
:104B700001222046FEF740F939208DF8080002A9ED
:104B800001224FF0FF333046FFF78AF9012101225D
:104B90002046FEF731F9012100222046FEF72CF9CC
:104BA000022101222046FEF727F92C208DF808006B
:104BB00002A901224FF0FF333046FFF771F90121BE
:104BC00001222046FEF718F9012100222046FEF7B7
:104BD00013F9022101222046FEF70EF902A9012253
:104BE0004FF0FF3330468DF80890FFF759F9012157
:104BF00001222046FEF700F9012100222046FEF79F
:104C0000FBF8022101222046FEF7F6F834208DF849
:104C1000080002A901224FF0FF333046FFF740F9A8
:104C2000012101222046FEF7E7F80121002220465B
:104C3000FEF7E2F8022101222046FEF7DDF802A984
:104C400001224FF0FF3330468DF808A0FFF728F916
:104C5000012101222046FEF7CFF801210022204643
:104C6000FEF7CAF8022100222046FEF7C5F8F72019
:104C70008DF8080002A901224FF0FF333046FFF7FC
:104C80000FF9012101222046FEF7B6F8012100228A
:104C90002046FEF7B1F8022101222046FEF7ACF8CB
:104CA00020208DF8080002A901224FF0FF33304682
:104CB000FFF7F6F8012101222046FEF79DF80121B9
:104CC00000222046FEF798F8022100222046FEF737
:104CD00093F8EA208DF8080002A901224FF0FF3373
:104CE0003046FFF7DDF8012101222046FEF784F867
:104CF000012100222046FEF77FF8022101222046F2
:104D0000FEF77AF802A901224FF0FF3330468DF802
:104D10000890FFF7C5F8012101222046FEF76CF844
:104D2000012100222046FEF767F8022101222046D9
:104D3000FEF762F802A901224FF0FF3330468DF8EA
:104D40000890FFF7ADF8012101222046FEF754F844
:104D5000012100222046FEF74FF8022100222046C2
:104D6000FEF74AF8C0208DF8080002A901224FF092
:104D7000FF333046FFF794F8012101222046FEF769
:104D80003BF8012100222046FEF736F802210122DD
:104D90002046FEF731F81B208DF8080002A90122F9
:104DA0004FF0FF333046FFF77BF801210122204608
:104DB000FEF722F8012100222046FEF71DF802210D
:104DC00000222046FEF718F8C1208DF8080002A93D
:104DD00001224FF0FF333046FFF762F80121012234
:104DE0002046FEF709F8012100222046FEF704F8CC
:104DF000022101222046FDF7FFFF02A901224FF008
:104E0000FF3330468DF80890FFF74AF80121012260
:104E10002046FDF7F1FF012100222046FDF7ECFFBF
:104E2000022100222046FDF7E7FFC5208DF808008B
:104E300002A901224FF0FF333046FFF731F801217C
:104E400001222046FDF7D8FF012100222046FDF770
:104E5000D3FF022101222046FDF7CEFF02A9012245
:104E60004FF0FF3330468DF80880FFF719F8012125
:104E700001222046FDF7C0FF012100222046FDF758
:104E8000BBFF022101222046FDF7B6FF02A9012245
:104E90004FF0FF3330468DF80880FFF701F801210D
:104EA00001222046FDF7A8FF012100222046FDF740
:104EB000A3FF022100222046FDF79EFFC7208DF8A8
:104EC000080002A901224FF0FF333046FEF7E8FF49
:104ED000012101222046FDF78FFF012100222046FB
:104EE000FDF78AFF022101222046FDF785FFB7204A
:104EF0008DF8080002A901224FF0FF333046FEF77B
:104F0000CFFF012101222046FDF776FF012100227B
:104F10002046FDF771FF022100222046FDF76CFFBD
:104F200036208DF8080002A901224FF0FF333046E9
:104F3000FEF7B6FF012101222046FDF75DFF0121AA
:104F400000222046FDF758FF022101222046FDF7EE
:104F500053FF02A901224FF0FF33304608258DF898
:104F60000850FEF79DFF012101222046FDF744FF76
:104F7000012100222046FDF73FFF022100222046AA
:104F8000FDF73AFF3A208DF8080002A901224FF000
:104F9000FF333046FEF784FF012101222046FDF752
:104FA0002BFF012100222046FDF726FF02210122CE
:104FB0002046FDF721FF55208DF8080002A90122A7
:104FC0004FF0FF333046FEF76BFF012101222046F0
:104FD000FDF712FF012100222046FDF70DFF0221FF
:104FE00000222046FDF708FFB1208DF8080002A935
:104FF00001224FF0FF333046FEF752FF012101221C
:105000002046FDF7F9FE012100222046FDF7F4FEBF
:10501000022101222046FDF7EFFE02A901224FF0F6
:10502000FF3330468DF80890FEF73AFF0121012248
:105030002046FDF7E1FE012100222046FDF7DCFEBF
:10504000022101222046FDF7D7FE1A208DF8080024
:1050500002A901224FF0FF333046FEF721FF012164
:1050600001222046FDF7C8FE012100222046FDF75F
:10507000C3FE022100222046FDF7BEFEB6208DF8B9
:10508000080002A901224FF0FF333046FEF708FF67
:10509000012101222046FDF7AFFE0121002220461A
:1050A000FDF7AAFE022101222046FDF7A5FE02A976
:1050B00001224FF0FF3330464FF00A088DF8088088
:1050C000FEF7EEFE012101222046FDF795FE0121AB
:1050D00000222046FDF790FE022101222046FDF726
:1050E0008BFEA2208DF8080002A901224FF0FF33A9
:1050F0003046FEF7D5FE012101222046FDF77CFE59
:10510000012100222046FDF777FE022100222046E1
:10511000FDF772FEF2208DF8080002A901224FF07F
:10512000FF333046FEF7BCFE012101222046FDF789
:1051300063FE012100222046FDF75EFE02210122CE
:105140002046FDF759FE02A901224FF0FF333046F9
:105150008DF80890FEF7A4FE012101222046FDF7FC
:105160004BFE012100222046FDF746FE02210022CF
:105170002046FDF741FE26208DF8080002A90122F5
:105180004FF0FF333046FEF78BFE0121012220460F
:10519000FDF732FE012100222046FDF72DFE0221FF
:1051A00001222046FDF728FE02A901224FF0FF331D
:1051B000304601278DF80870FEF772FE01210122AA
:1051C0002046FDF719FE012100222046FDF714FEBE
:1051D000022100222046FDF70FFEE0208DF8080096
:1051E00002A901224FF0FF333046FEF759FE01219C
:1051F00001222046FDF700FE012100222046FDF796
:10520000FBFD022101222046FDF7F6FD02A9012245
:105210004FF0FF3330464FF00F0A8DF808A0FEF72D
:105220003FFE012101222046FDF7E6FD012100227B
:105230002046FDF7E1FD022101222046FDF7DCFDBD
:105240002A208DF8080002A901224FF0FF333046D2
:10525000FEF726FE012101222046FDF7CDFD0121AA
:1052600000222046FDF7C8FD022101222046FDF75D
:10527000C3FD28208DF8080002A901224FF0FF335A
:105280003046FEF70DFE012101222046FDF7B4FD58
:10529000012100222046FDF7AFFD02210122204618
:1052A000FDF7AAFD02A901224FF0FF3330468DF829
:1052B0000850FEF7F5FD012101222046FDF79CFD77
:1052C000012100222046FDF797FD02210122204600
:1052D000FDF792FD0E208DF8080002A901224FF083
:1052E000FF333046FEF7DCFD012101222046FDF7A9
:1052F00083FD012100222046FDF77EFD02210122CF
:105300002046FDF779FD02A901224FF0FF33304618
:105310008DF80850FEF7C4FD012101222046FDF75B
:105320006BFD012100222046FDF766FD02210122CE
:105330002046FDF761FD54208DF8080002A90122E6
:105340004FF0FF333046FEF7ABFD0121012220462E
:10535000FDF752FD012100222046FDF74DFD0221FF
:1053600001222046FDF748FDA9208DF8080002A97A
:1053700001224FF0FF333046FEF792FD012101225A
:105380002046FDF739FD012100222046FDF734FDBE
:10539000022101222046FDF72FFD43208DF8080051
:1053A00002A901224FF0FF333046FEF779FD0121BB
:1053B00001222046FDF720FD012100222046FDF7B5
:1053C0001BFD022101222046FDF716FD02A9012244
:1053D0004FF0FF3330468DF80880FEF761FD012164
:1053E00001222046FDF708FD012100222046FDF79D
:1053F00003FD022101222046FDF7FEFC02A9012245
:105400004FF0FF3330468DF808A0FEF749FD01212B
:1054100001222046FDF7F0FC012100222046FDF785
:10542000EBFC022101222046FDF7E6FC02A9012245
:105430004FF0FF3330468DF80890FEF731FD012123
:1054400001222046FDF7D8FC012100222046FDF76D
:10545000D3FC022101222046FDF7CEFC02A9012245
:105460004FF0FF3330468DF80890FEF719FD01210B
:1054700001222046FDF7C0FC012100222046FDF755
:10548000BBFC022101222046FDF7B6FC02A9012245
:105490004FF0FF3330468DF80890FEF701FD0121F3
:1054A00001222046FDF7A8FC012100222046FDF73D
:1054B000A3FC022101222046FDF79EFC02A9012245
:1054C0004FF0FF3330468DF80890FEF7E9FC0121DC
:1054D00001222046FDF790FC012100222046FDF725
:1054E0008BFC022100222046FDF786FCE1208DF88E
:1054F000080002A901224FF0FF333046FEF7D0FC2E
:10550000012101222046FDF777FC012100222046DF
:10551000FDF772FC022101222046FDF76DFC02A975
:1055200001224FF0FF3330468DF80890FEF7B8FCAB
:10553000012101222046FDF75FFC012100222046C7
:10554000FDF75AFC022101222046FDF755FC1520EB
:105550008DF8080002A901224FF0FF333046FEF714
:105560009FFC012101222046FDF746FC012100227B
:105570002046FDF741FC022101222046FDF73CFCBC
:1055800017208DF8080002A901224FF0FF333046A2
:10559000FEF786FC012101222046FDF72DFC0121AA
:1055A00000222046FDF728FC022101222046FDF7BB
:1055B00023FC07208DF8080002A901224FF0FF33D9
:1055C0003046FEF76DFC012101222046FDF714FC58
:1055D000012100222046FDF70FFC02210122204676
:1055E000FDF70AFC02A901224FF0FF3330464FF0CD
:1055F00011088DF80880FEF753FC01210122204696
:10560000FDF7FAFB012100222046FDF7F5FB022100
:1056100001222046FDF7F0FB06208DF8080002A9C4
:1056200001224FF0FF333046FEF73AFC0121012200
:105630002046FDF7E1FB012100222046FDF7DCFBBF
:10564000022101222046FDF7D7FB02A901224FF0DB
:10565000FF3330462B258DF80850FEF721FC012141
:1056600001222046FDF7C8FB012100222046FDF75C
:10567000C3FB022101222046FDF7BEFB56208DF818
:10568000080002A901224FF0FF333046FEF708FC64
:10569000012101222046FDF7AFFB01210022204617
:1056A000FDF7AAFB022101222046FDF7A5FB3C20C5
:1056B0008DF8080002A901224FF0FF333046FEF7B3
:1056C000EFFB012101222046FDF796FB012100227C
:1056D0002046FDF791FB022101222046FDF78CFBBD
:1056E00005208DF8080002A901224FF0FF33304653
:1056F000FEF7D6FB012101222046FDF77DFB0121AB
:1057000000222046FDF778FB022101222046FDF70A
:1057100073FB02A901224FF0FF3330468DF808B029
:10572000FEF7BEFB012101222046FDF765FB0121AA
:1057300000222046FDF760FB022101222046FDF7F2
:105740005BFB02A901224FF0FF3330468DF808A021
:10575000FEF7A6FB012101222046FDF74DFB0121AA
:1057600000222046FDF748FB022101222046FDF7DA
:1057700043FB02A901224FF0FF3330464FF03F0BAD
:105780008DF808B0FEF78CFB012101222046FDF7C1
:1057900033FB012100222046FDF72EFB02210122CE
:1057A0002046FDF729FB02A901224FF0FF333046C6
:1057B0008DF808B0FEF774FB012101222046FDF7A9
:1057C0001BFB012100222046FDF716FB02210122CE
:1057D0002046FDF711FB02A901224FF0FF333046AE
:1057E0008DF808A0FEF75CFB012101222046FDF7A1
:1057F00003FB012100222046FDF7FEFA02210022D0
:105800002046FDF7F9FA02A901224FF0FF33304696
:105810008DF80850FEF744FB012101222046FDF7D8
:10582000EBFA012100222046FDF7E6FA02210122CF
:105830002046FDF7E1FA02A901224FF0FF3330467E
:105840008DF80890FEF72CFB012101222046FDF780
:10585000D3FA012100222046FDF7CEFA02210122CF
:105860002046FDF7C9FA02A901224FF0FF33304666
:105870008DF80890FEF714FB012101222046FDF768
:10588000BBFA012100222046FDF7B6FA02210122CF
:105890002046FDF7B1FA02A901224FF0FF3330464E
:1058A0008DF80870FEF7FCFA012101222046FDF771
:1058B000A3FA012100222046FDF79EFA02210122CF
:1058C0002046FDF799FA02A901224FF0FF33304636
:1058D0008DF808B0FEF7E4FA012101222046FDF719
:1058E0008BFA012100222046FDF786FA02210022D0
:1058F0002046FDF781FA2A208DF8080002A901222E
:105900004FF0FF333046FEF7CBFA0121012220464B
:10591000FDF772FA012100222046FDF76DFA0221FF
:1059200001222046FDF768FA02A901224FF0FF3359
:1059300030468DF80890FEF7B3FA01210122204687
:10594000FDF75AFA012100222046FDF755FA0221FF
:1059500001222046FDF750FA02A901224FF0FF3341
:1059600030468DF80890FEF79BFA0121012220466F
:10597000FDF742FA012100222046FDF73DFA0221FF
:1059800001222046FDF738FA02A901224FF0FF3329
:1059900030468DF80890FEF783FA01210122204657
:1059A000FDF72AFA012100222046FDF725FA0221FF
:1059B00001222046FDF720FAEF208DF8080002A909
:1059C00001224FF0FF333046FEF76AFA012101222F
:1059D0002046FDF711FA012100222046FDF70CFABE
:1059E000022100222046FDF707FA02A901224FF00A
:1059F000FF3330468DF80880FEF752FA012101226C
:105A00002046FDF7F9F97820FDF706F9012100227B
:105A10002046FDF7F1F9022100222046FDF7ECF9BE
:105A200029208DF8080002A901224FF0FF333046EB
:105A3000FEF736FA012101222046FDF7DDF90020AC
:105A400000F09EF9102101220098FDF7D5F94FF6DC
:105A5000FF70FEF741FD07B0BDE8F08F00000000C9
:105A600010B586B044F2E0400024C5F6020001699A
:105A700041F480510161016901F480510191019962
:105A8000016841F002010160006801A900F0020014
:105A90000190019828200190022002900320049098
:105AA0000520059040F20040C5F602000394FDF782
:105AB000C7F840F2AC1043F20001C2F20000C4F299
:105AC00001014FF0806201604FF4800141604FF4AA
:105AD000003181600721C0E90314446182614FF005
