:020000040800F2
:1000000090060020E1020008C74500082D3E0008C8
:10001000C5450008ED030008C155000800000000B8
:10002000000000000000000000000000454C000837
:10003000A90A0008000000009B470008474C000880
:10004000FB020008FB020008FB020008FB0200089C
:10005000FB020008FB020008FB020008FB0200088C
:10006000FB020008FB020008FB0200084105000833
:10007000FB020008FB020008FB020008FB0200086C
:10008000FB020008FB020008FB020008FB0200085C
:10009000FB020008FB020008FB020008FB0200084C
:1000A000FB020008FB020008FB020008FB0200083C
:1000B000FB020008FB020008FB020008FB0200082C
:1000C000FB020008FB020008FB020008FB0200081C
:1000D000FB020008FB020008FB020008FB0200080C
:1000E000FB020008FB02000800000000FB02000801
:1000F000FB020008FB020008FB020008FB020008EC
:10010000FB020008FB020008FB020008FB020008DB
:10011000FB020008FB020008FB020008FB020008CB
:10012000FB020008FB020008FB020008FB020008BB
:10013000FB020008FB020008FB020008FB020008AB
:1001400000000000000000000000000000000000AF
:10015000FB020008FB0200084D050008FB02000836
:10016000FB020008FB020008FB020008FB0200087B
:10017000FB020008FB020008350500080000000033
:10018000FB020008FB020008FB020008FB0200085B
:10019000FB020008FB020008FB020008FB0200084B
:1001A000FB020008FB020008FB0200080000000040
:1001B000FB020008FB020008FB020008FB0200082B
:1001C000FB020008FB020008000000000000000025
:1001D0000000000000000000FB020008000000001A
:1001E000000000000000000000000000000000000F
:1001F0000000000000000000FB020008FB020008F5
:10020000FB020008FB02000800000000FB020008DF
:10021000FB020008FB020008FB020008FB020008CA
:10022000FB02000800000000FB02000800000000C4
:10023000FB020008FB02000800000000FB020008AF
:10024000FB020008FB020008FB020008FB0200089A
:10025000FB020008FB020008FB020008FB0200088A
:10026000FB020008FB020008FB020008FB0200087A
:10027000FB020008FB020008FB020008000000006F
:10028000FB020008FB020008FB020008FB0200085A
:1002900000000000FB020008FB0200080000000054
:1002A00000000000FB020008FB020008FB0200083F
:1002B000FB020008FB020008FB020008FB0200082A
:1002C000FB020008FB020008FB020008DFF80CD06C
:1002D00000F07AF800480047FD580008900600201A
:1002E0000648804706480047FEE7FEE7FEE7FEE7D0
:1002F000FEE7FEE7FEE7FEE7FEE7FEE7E54C000867
:10030000CD0200082DE9F05F0546002092469B468D
:1003100088460646814640241BE02846414647461B
:10032000224600F041F853465A46C01A914110D374
:1003300011461846224600F028F82D1A67EB0108EE
:100340004F4622460120002100F01FF817EB00095C
:100350004E41201EA4F10104DFDC484631462A4606
:100360004346BDE8F09FD2B201E000F8012B491EE0
:10037000FBD270470022F6E710B513460A46044642
:100380001946FFF7F0FF204610BD202A04DB203A73
:1003900000FA02F1002070479140C2F1200320FAD8
:1003A00003F3194390407047202A04DB203A21FAD6
:1003B00002F00021704721FA02F3D040C2F120027E
:1003C0009140084319467047064C074D06E0E06827
:1003D00040F0010394E8070098471034AC42F6D38C
:1003E000FFF778FFAC5B0008CC5B0008FEE710B5B8
:1003F000806B816C496D022906D0012180F835108F
:10040000C16C41F04001C16400F084FB10BD10B527
:10041000846BA26B806B002A806C01681FD00A6815
:1004200002F40022A36BDB070BD152B1C968E26B67
:1004300001EBC201002200F04DFDA06B401EA06345
:100440001DE00A6812031AD40969E26B01EBC201CC
:10045000012200F03FFDA06B401EA0630FE0086882
:10046000000302D5606CC86009E00868000306D488
:10047000606CE26B00EB82000861206CA063A06BF3
:10048000216C88420BD12068C16841F00101C16034
:1004900020680068800702D5012084F8350010BD6F
:1004A00070B504F0BBF904F06BF804F0BFF804F089
:1004B00031F904F020F90146B1F5195F09D0A1F531
:1004C0001850423805D00EA005F07CF84FF0FF30F0
:1004D00070BD12A005F076F8154804F075F84FF4D9
:1004E00096744FF4C8752146284604F02FF9F02180
:1004F00023462A46084604F077F8002070BD000025
:100500004F5632363430204552524F52212121214C
:1005100021202049443A25580D0A00004F56323612
:100520003430204F4B2C49443A307825580D0A007E
:100530000A5A0008014800F01BBB00002C010020F3
:10054000014801F065B80000B4000020014801F046
:100550005FB800007C01002010B52C4A0168914270
:100560003AD02A4A1832914236D0284A3032914243
:1005700032D0264A483291422ED0244A60329142EB
:100580002AD0224A7832914226D0204A9032914293
:1005900022D01E4AA83291421ED01D4A91421BD041
:1005A0001B4A1832914217D0194A3032914213D067
:1005B000174A483291420FD0154A603291420BD00F
:1005C000134A7832914207D0114A9032914203D0B7
:1005D0000F4AA832914214D1CAB2103A1823B2FB82
:1005E000F3F20C4C02F00703E35CC365032A04D961
:1005F0006FF30901091D816506E06FF3090181654B
:1006000002E021F0FF018165806D10BD1000024005
:10061000100402406A5B000810B501680123224CF7
:10062000CAB2A1421BD0204C1434A14217D01E4C98
:100630002834A14213D01C4C3C34A1420FD01A4C98
:100640005034A1420BD0184C6434A14207D0164C50
:100650007834A14203D0144C8C34A1420FD1083A13
:100660001421B2FBF1F1114A02EB810202660F4A3A
:100670008032426601F01F018B40836610BD103A44
:100680001824B2FBF4F20A4C2144A82900D80832FD
:10069000084901EB8201016606498031416602F09A
:1006A0001F018B40836610BD085402580058025841
:1006B000F0FBFDBF000802400279521E072A31D824
:1006C000194B016899421BD0174B1433994217D02C
:1006D000154B2833994213D0134B3C3399420FD01A
:1006E000114B503399420BD00F4B6433994207D0D2
:1006F0000D4B7833994203D00B4B8C33994207D181
:100700000A4901EB8201C16608494031016706E0F0
:10071000074901EB8201C1660549403101670121AA
:100720009140416770470000085402580059025830
:1007300000090240014610B500208B694FF0C074DB
:100740008A6A002B0ED0B3F5005F1AD062B3012A7B
:100750002AD0022A28D0032A03D1C96AC90100D5A8
:10076000012010BD1AB1012A06D0022AF9D1C96AA6
:10077000C901F6D5012010BDC96AA142FBD10120F3
:1007800010BD52B1012A0AD0022A06D0032AF7D19D
:10079000C96AA142F4D1012010BD012010BDC96A6F
:1007A000C901FBD5012010BD012010BD30B52D4D74
:1007B0000468AC423AD02B4D1835AC4236D0294DA6
:1007C0003035AC4232D0274D4835AC422ED0254D85
:1007D0006035AC422AD0234D7835AC4226D0214D2D
:1007E0009035AC4222D01F4DA835AC421ED01E4DD4
:1007F000AC421BD01C4D1835AC4217D01A4D3035C9
:10080000AC4213D0184D4835AC420FD0164D603570
:10081000AC420BD0144D7835AC4207D0124D903518
:10082000AC4203D0104DA835AC420DD16360836853
:10083000402B04D0036899600068C26030BD036833
:100840009A600068C16030BD63608368402B04D04B
:10085000036899600068C26030BD03689A600068F0
:10086000C16030BD10000240100402402DE9F04F7D
:10087000856D8A4E894FDFF824C2A836DFF81C82C6
:10088000DFF818920CF1180CDFF810A208F130080C
:10089000DFF808B209F1480904680AF1600A0BF1AF
:1008A000780BBC426DD064456BD0444569D04C4553
:1008B00067D0544565D05C4563D0DFF8E0E10EF1C8
:1008C000900E74455DD0B4425BD0DFF8D4E174453E
:1008D00057D0DFF8CCE10EF1180E744551D0DFF897
:1008E000C0E10EF1300E74454BD0DFF8B4E10EF1EB
:1008F000480E744545D0DFF8A8E10EF1600E74454E
:100900003FD0DFF89CE10EF1780E744539D0DFF866
:1009100090E10EF1900E744533D0DFF884E10EF1D2
:10092000A80E74452DD0DFF87CE1744529D0DFF89E
:1009300074E10EF1140E744523D0DFF868E10EF176
:10094000280E74451DD0DFF85CE10EF13C0E7445B5
:1009500017D0DFF850E10EF1500E744511D0DFF8DA
:1009600044E10EF1640E74450BD0DFF838E10EF16E
:10097000780E744505D0DFF82CE10EF18C0E74452D
:1009800009D1D0E919E4CEF80440C46E1CB1D0E915
:100990001CE4CEF804400468BC422ED064452CD040
:1009A00044452AD04C4528D0544526D05C4524D017
:1009B0003A4F9037BC4220D0B4421ED0384EB44299
:1009C0001BD0374E1836B44217D0354E3036B442AD
:1009D00013D0334E4836B4420FD0314E6036B44255
:1009E0000BD02F4E7836B44207D02D4E9036B442FD
:1009F00003D02B4EA836B4421BD190F85C4004F0D3
:100A00001F063F24B440AC600468256825F48025A7
:100A10002560046863608368402B05D00368996093
:100A20000068C260BDE8F08F03689A600068C1602A
:100A3000F8E71C4EB4421BD01A4E1436B44217D0FD
:100A4000184E2836B44213D0164E3C36B4420FD05E
:100A5000144E5036B4420BD0124E6436B44207D016
:100A6000104E7836B44203D00E4E8C36B442D9D1F3
:100A700090F85C4004F01F060124B4406C600468E8
:100A800063608368402B04D0036899600068C2608B
:100A9000C8E703689A600068C160C3E710000240BD
:100AA0001004024008540258704772B6FEE770B551
:100AB000049D90F83440012C13D0012400F8344FE9
:100AC0000226467043EA054350F8345C6B6241EA03
:100AD000024150F8342C1162447000210170002052
:100AE00070BD022070BD90F8341001290FD0012292
:100AF00000F8342F0221417050F8341C0B6843F089
:100B000004030B6042700021017000207047022036
:100B10007047000010B500F029F8BDE8104001460C
:100B200001A004F04FBD00006572726F723A307818
:100B3000257820B4EDCEF30D0A00000010B501F0C9
:100B4000D3FD094C6168401AB0F57A7F06D301F0F5
:100B5000CBFD60606078A070002060706078401C01
:100B600060700120207010BD04000020C06C704730
:100B70002DE9F0410446206805694FF00406234F33
:100B800069070BD54661E06C40F00200E06484F830
:100B90003560A06C0765A06C00F0E2FBA8070DD5DE
:100BA000216802204861E06C40F00100E06484F8B4
:100BB0003560A06C0765A06C00F0D2FBE80605D597
:100BC000216810204861204600F070F8280705D5FC
:100BD000216808204861204600F07AF9E80712D021
:100BE00020680168890703D5C16821F01E01C16032
:100BF0002068C16821F00101C160216801204861BD
:100C00002046FFF79BFFBDE8F0810000EF030008DE
:100C100010B50446002C03D094F8350010B104E060
:100C2000012010BD204600F043F8022084F8350072
:100C3000A069002200B16262206801681A4B194065
:100C40000160616860690143D4E90303184301430B
:100C5000A0680143A0690143206A0143606A01431F
:100C6000A06A0143E06A0143206B014320680368E6
:100C700019430160606810280BD1617F207FE37FFA
:100C800040EA0120A17F090441EA03610843216889
:100C900088612068C16841F01E01C160E2640120E2
:100CA00084F83500002010BD07F0E0FF7047000019
:100CB000F0B587B00446142102A8FFF75BFB454955
:100CC000206888427ED14448016841F001010160FA
:100CD000006800F0010001903F48001D016841F0EC
:100CE00010010160016801F010010191016841F0FB
:100CF00001010160016801F001010191016841F009
:100D000004010160016801F004010191016841F0F2
:100D100008010160016801F008010191016841F0DA
:100D200040010160016801F040010191016841F05A
:100D300020010160006800F0200001907020029006
:100D40000225039500240494032605960D27069793
:100D5000224802A901F0B0FB5020029003950494B0
:100D60000596069702A91E4801F0A6FBC020029036
:100D7000039504940596069702A91A4801F09CFB76
:100D800008200290039504940596069702A9164838
:100D900001F092FB4FF46060029003950494059675
:100DA000069702A9114801F087FB0122104E550356
:100DB0003046294601F091FC0295012103910491EE
:100DC000059400E003E002A9304601F075FB07B08E
:100DD000F0BD000000000248DC4402580010025838
:100DE0000000025800080258000C0258001802586F
:100DF00000140258F8B5044694F83400012830D0A5
:100E0000012684F83460022084F8350020680568E3
:100E100045F4804505602068056825F002050560F9
:100E2000206805680D430560A16C2748C863A56C60
:100E30002649E9640025A16C0D65A5632564E56379
:100E40006564310440278B420DD22168A06C2831A3
:100E500001F0AAF970B33434A761667025700120DF
:100E6000F8BD0220F8BDD4F848C0CCF84400A66311
:100E7000E363626405E0E06B4008E063A06B400060
:100E8000A063E06B8842F6D2A06B801EA063A06BCB
:100E90002064E06B02EB8003E06B00902168A06CA3
:100EA000283100F065F828B13434A76166702570E8
:100EB0000120F8BD2068016841F00101016084F85B
:100EC00034500020F8BD00000F040008EF030008B4
:100ED000704700000068244B98423AD0224B1833E8
:100EE000984236D0204B3033984232D01E4B483394
:100EF00098422ED01C4B603398422AD01A4B78333C
:100F0000984226D0184B9033984222D0164BA833E3
:100F100098421ED0154B98421BD0144B1833984260
:100F200017D0124B3033984213D0104B48339842AD
:100F30000FD00E4B603398420BD00C4B7833984255
:100F400007D00A4B9033984203D0084BA8339842FD
:100F500004D10AB1016103E0C16001E012B1016195
:100F600000207047C160FBE71000024010040240FF
:100F70002DE9FF4F81B00446DDF838E000200090F5
:100F8000A068802812D094F83400012813D00121E1
:100F900084F8341094F8350001280ED0C80260653A
:100FA00001200090009805B0BDE8F08F4FF48070EC
:100FB00060650120F7E70220F5E7022084F835009C
:100FC00000206065E34DE34EE24F1835E14A3036CC
:100FD000DFF880834837DFF87C93DFF878A308F1E7
:100FE0006008DFF870B309F1780920680AF1900A07
:100FF0000BF1A80B90422CD0A8422AD0B04228D0A6
:10100000B84226D0404524D0484522D0504520D073
:1010100058451ED0D04A90421BD0CF4A1832904239
:1010200017D0CD4A3032904213D0CB4A483290424A
:101030000FD0C94A603290420BD0C74A78329042F2
:1010400007D0C54A9032904203D0C34AA83290429A
:101050000ED1016841F48021016020680361A06D18
:1010600094F85C1001F01F023F21914081600EE076
:10107000026848F2200C42EA0C0202602068036118
:10108000A06D94F85C2002F01F029140416073460D
:10109000DDE902122046FFF789FBB04ADFF8B4C24F
:1010A000DFF8B8E23C322068AC490EF1140E60451E
:1010B00046D0A84244D0B04242D0B84240D0404589
:1010C0003ED048453CD050453AD0584538D0A24B48
:1010D000984235D0A04B1833984231D09E4B3033D4
:1010E00098422DD09C4B4833984229D09A4B60337C
:1010F000984225D0984B7833984221D0964B903324
:1011000098421DD0944BA833984219D0884217D0EA
:10111000704515D0914B2833984211D090420FD092
:101120008E4B503398420BD08C4B6433984207D08F
:101130008A4B7833984203D0884B8C33984207D13E
:10114000D4E919305860E06E10B1D4E91C30586011
:101150006346206898423BD0A84239D0B04237D08D
:10116000B84235D0404533D0484531D050452FD0D6
:1011700058452DD0DFF8E0C1604529D0DFF8D8C14F
:101180000CF1180C604523D0DFF8CCC10CF1300C09
:1011900060451DD0DFF8C0C10CF1480C604517D088
:1011A000DFF8B4C10CF1600C604511D0DFF8A8C1C4
:1011B0000CF1780C60450BD0DFF89CC10CF1900C61
:1011C000604505D0DFF890C10CF1A80C60451AD13C
:1011D000D0F800C02CF01E0C4CF0160CC0F800C06B
:1011E0002068D0F814C04CF0800CC0F814C0206CFB
:1011F00008B9A06CD0B12068D0F800C04CF0080C41
:10120000C0F800C012E0D0F800C02CF00E0C4CF07A
:101210000A0CC0F800C0206C08B9A06C30B120687E
:10122000D0F800C04CF0040CC0F800C020689C4608
:10123000984246D0A84244D0B04242D0B84240D0B2
:1012400040453ED048453CD050453AD0584538D02E
:10125000414B984235D0404B1833984231D03E4BE9
:10126000303398422DD03C4B4833984229D03A4BEA
:101270006033984225D0384B7833984221D0364B92
:10128000903398421DD0344BA833984219D08842ED
:1012900017D0704515D031492831884211D090427D
:1012A0000FD02E49503188420BD02C4964318842EE
:1012B00007D02A497831884203D028498C318842A6
:1012C0000DD1206E0168C90303D5016841F4807116
:1012D0000160E06E18B1016841F48071016020681E
:1012E00060452CD0A8422AD0B04228D0B84226D09F
:1012F000404524D0484522D0504520D058451ED0E6
:10130000154988421BD014491831884217D0124918
:101310003031884213D01049483188420FD00E49ED
:10132000603188420BD00C497831884207D00A4995
:101330009031884203D00849A831884204D101681D
:1013400041F0010101602DE6016841F001010160F9
:1013500028E6000010000240100402400854025821
:101360002DE9F05F002808D090F83510022906D04A
:10137000802141650120BDE8F09F0120FBE7A14AE3
:10138000A04BA04C18329F4D30339E4E4834DFF8AE
:1013900074B26035DFF870C27836DFF86C82DFF83F
:1013A00068920CF1300CDFF860A208F16008016867
:1013B00009F17809944F0AF1900A594531D09142C8
:1013C0002FD099422DD0A1422BD0A94229D0B14291
:1013D00027D0DFF830E20EF1900E714521D0DFF812
:1013E00024E20EF1A80E71451BD0DFF81CE2AEF12D
:1013F000180E714515D0B94213D0DFF80CE20EF18A
:10140000180E71450DD061450BD0DFF8FCE10EF1EF
:10141000480E714505D0414503D0494501D051459D
:1014200037D14FF0040E80F835E0594527D091426E
:1014300025D0994223D0A14221D0A9421FD0B14248
:101440001DD070489030814219D06E48A83081423A
:1014500015D06D481838814211D0B9420FD06A4872
:10146000183081420BD0614509D06748483081422D
:1014700005D0414503D0494501D0514504D1086804
:1014800020F001000860BAE0086820F00100086060
:10149000B5E0D1F800E02EF00E0EC1F800E00168D2
:1014A000DE46594531D091422FD099422DD0A142EC
:1014B0002BD0A94229D0B14227D0DFF848B10BF197
:1014C000900B594521D0DFF83CB10BF1A80B5945E1
:1014D0001BD0DFF834B1ABF1180B594515D0B94228
:1014E00013D0DFF824B10BF1180B59450DD061452D
:1014F0000BD0DFF814B10BF1480B594505D041452D
:1015000003D0494501D0514506D1D1F800B02BF0A8
:10151000010BC1F800B005E0D1F800B02BF0010BD1
:10152000C1F800B001684FF0010B714546D09142FF
:1015300044D0994242D0A14240D0A9423ED0B142CB
:101540003CD0304A9032914238D02E4AA832914253
:1015500034D02D4A183A914230D0B9422ED02A4A7E
:10156000183291422AD0614528D0274A4832914208
:1015700024D0414522D0494520D051451ED0234A90
:1015800091421BD0214A1432914217D01F4A28326F
:10159000914213D01D4A3C3291420FD01B4A503227
:1015A00091420BD0194A6432914207D0174A7832DF
:1015B000914203D0154A8C32914218D1016E0A68CB
:1015C00022F480720A60816D90F85C2002F01F02A4
:1015D0000BFA02F24A60D0E919215160C16E31B1B3
:1015E0000A6822F480720A60D0E91C21516080F8F8
:1015F00035B0002180F83410016D01B1884700201A
:10160000B9E60000100002402804024008540258C5
:101610002DE9FF5F0446002001904FF41651FD486C
:101620000068B0FBF1F00090A56D2E682968FA4FB4
:10163000DFF8E4B3DFF8E083DFF8DC930BF1180B9D
:10164000DFF8D4A308F13008206809F148090AF14D
:10165000600AB8423BD05A46904238D0404536D016
:10166000484534D0504532D0EB4A783290422ED0A3
:10167000E94A903290422AD0E74AA832904226D0D6
:10168000E64A904223D0E54A183290421FD0E34BFD
:10169000303398421BD0E14B4833984217D0DFF8E3
:1016A0007CC30CF1600C604511D0DFF870C30CF105
:1016B000780C60450BD0DFF864C30CF1900C6045EA
:1016C00005D0DFF858E30EF1A80E70457ED194F8EE
:1016D0005C10082301F01F0103FA01F232424BD0E3
:1016E000B84232D0584530D040452ED048452CD055
:1016F00050452AD0C8497831884226D0C649903111
:10170000884222D0C449A83188421ED0C3498842A9
:101710001BD0C2491831884217D0C04930318842A5
:1017200013D0BE49483188420FD0BC49603188424D
:101730000BD0BA497831884207D0B84990318842F5
:1017400003D0B649A831884203D1016801F00401F1
:1017500002E0016801F0080171B1016821F00401A3
:10176000016094F85C0000F01F0003FA00F2AA6028
:10177000606D40F00100606594F85C00012100F0AC
:101780001F008140314240D02068B84234D05845D3
:1017900032D0404530D048452ED050452CD09E4ABE
:1017A0007832904228D09C4A9032904224D09A4A73
:1017B000A832904220D0994A90421DD0974A1832C0
:1017C000904219D0954A3032904200E0D2E113D0D5
:1017D000924A483290420FD0904A603290420BD0E9
:1017E0008E4A7832904207D08C4A9032904203D091
:1017F0008A4AA83290427DD1406910F0800F04D00F
:10180000A960606D40F00200606594F85C000421FE
:1018100000F01F00814031423ED02068B84232D0F3
:10182000584530D040452ED048452CD050452AD080
:10183000794A7832904226D0774A9032904222D02C
:10184000754AA83290421ED0744A90421BD0734A07
:101850001832904217D0714A3032904213D06F4AFA
:10186000483290420FD06D4A603290420BD06B4AA2
:101870007832904207D0694A9032904203D0674A4A
:10188000A83290424ED1006810F0020F04D0A96037
:10189000606D40F00400606594F85C00102100F079
:1018A0001F008140314260D02068B84234D0584592
:1018B00032D0404530D048452ED050452CD0564AE5
:1018C0007832904228D0544A9032904224D0524AE2
:1018D000A832904220D0514A90421DD04F4A18322F
:1018E000904219D04D4A3032904215D04B4A48327E
:1018F000904200E014E00FD0484A603290420BD092
:10190000464A7832904207D0444A9032904203D0FF
:10191000424AA832904207D1006800F0080006E071
:10192000006872E70068B7E7006800F0040058B18B
:10193000A9602068016849030CD50068000304D43D
:10194000216C09B1204688470FE0A16C69B120469F
:1019500088470AE00168C90503D4016821F008013D
:101960000160216C09B12046884794F85C00202171
:1019700000F01F00814031427BD02068B84232D055
:10198000584530D040452ED048452CD050452AD01F
:10199000214A7832904226D01F4A9032904222D07B
:1019A0001D4AA83290421ED01C4A90421BD01B4AAE
:1019B0001832904217D0194A3032904213D0174A49
:1019C000483290420FD0154A603290420BD0134AF1
:1019D0007832904207D0114A9032904203D00F4A99
:1019E000A832904203D1006800F0100002E00068C5
:1019F00000F00200E8B3A96094F83500042812D082
:101A00002068016849033DD50068000335D4616C46
:101A100079B305E0180000201000024010040240D5
:101A2000204688473FE02068016821F016010160E8
:101A30002068416921F080014161206C08B9A06CE7
:101A400020B12068016821F00801016094F85C0071
:101A500000F01F013F208840A860012084F8350075
:101A6000002084F83400216D002974D004B0204691
:101A700000E018E0BDE8F05F0847E16B99B120464F
:101A8000884710E00168C90509D4016821F01001F8
:101A90000160012084F83500002084F83400E16BF7
:101AA00009B120468847606D002854D0606DC0079A
:101AB00058D0042084F835002068B84231D0584509
:101AC0002FD040452DD048452BD0504529D0B7497F
:101AD000884226D0B5491831884222D0B3493031E6
:101AE00088421ED0B24988421BD0B1491831884281
:101AF00017D0AF493031884213D0AD4948318842C0
:101B00000FD0AB49603188420BD0A9497831884267
:101B100007D0A7499031884203D0A549A83188420F
:101B200004D1016821F00101016003E0016821F0A6
:101B30000101016021680198009A401C01909042C7
:101B400002D80868C007F6D10868C00704D003208F
:101B500084F8350003E087E0012084F83500002098
:101B600084F83400E16C00297ED004B02046BDE842
:101B7000F05F08478F4EB0421BD08E4E1436B042F5
:101B800017D08C4E2836B04213D08A4E3C36B04225
:101B90000FD0884E5036B0420BD0864E6436B042DD
:101BA00007D0844E7836B04203D0824E8C36B04295
:101BB0005AD106684FF0040E94F85CB00BF01F0B7E
:101BC0000EFA0BFE1EEA010FCDF80CE05ED05FEAC4
:101BD000467E5BD503986860300411D5F00307D4C6
:101BE000A16C002940D004B02046BDE8F05F084752
:101BF000216C002938D004B02046BDE8F05F0847CA
:101C0000B0063BD42068B8422DD06849603988427C
:101C100029D0404527D0484525D0504523D0634999
:101C2000884220D06149183188421CD05F49303148
:101C3000884218D05E49884215D0904213D05C4942
:101C4000303188420FD098420DD0594960318842D6
:101C500009D057497831884205D0604503D05449AE
:101C6000A831884206D100E07CE0016821F008013B
:101C7000016003E0016821F004010160216C00298A
:101C800070D004B02046BDE8F05F08474FF0020E68
:101C90000EFA0BFE1EEA010FCDF808E063D05FEAF2
:101CA000867E60D502986860300411D5F00307D4B1
:101CB000616C002978D004B02046BDE8F05F084789
:101CC000E16B002970D004B02046BDE8F05F084702
:101CD000B0063FD42068B8422DD0344960398842DC
:101CE00029D0404527D0484525D0504523D02F49FD
:101CF000884220D02D49183188421CD02B493031E0
:101D0000884218D02A49884215D0904213D02849D9
:101D1000303188420FD098420DD025496031884239
:101D200009D023497831884205D0604503D0204945
:101D3000A831884204D1016821F01401016003E058
:101D4000016821F00A010160012084F835000020BB
:101D500084F83400E16B002926D004B02046BDE8A9
:101D6000F05F084720E0082202FA0BF20A421BD07B
:101D7000310719D5016821F00E01016094F85C006B
:101D800000F01F01012000FA01F16960606584F82C
:101D90003500002084F83400E16C002904D004B040
:101DA0002046BDE8F05F0847BDE8FF9F880002407D
:101DB00010040240085402582DE9F05F044600F078
:101DC00093FC0646002C7DD0F24F0222DFF8C4833C
:101DD0000025DFF8C093DFF8BCA308F13008DFF876
:101DE000B4B309F1480920680AF1600A0BF1780BD5
:101DF000B84232D0E749183188422ED040452CD025
:101E000048452AD0504528D0584526D0E149903140
:101E1000884222D0DF49A83188421ED0DE4988425C
:101E20001BD0DD491831884217D0DB493031884258
:101E300013D0D949483188420FD0D7496031884200
:101E40000BD0D5497831884207D0D34990318842A8
:101E500003D0D149A83188427ED184F8352084F856
:101E60003450B84234D0CB491831884230D0404544
:101E70002ED048452CD050452AD0584528D0C549A9
:101E80009031884224D0C349A831884220D0C24929
:101E900088421DD0C0491831884219D0BE4930311E
:101EA000884215D0BC494831884211D0BA496031C6
:101EB00088420DD0B8497831884209D0B64990316E
:101EC000884200E009E003D0B349A831884207D135
:101ED000016821F00101016013E00120BDE8F09FDD
:101EE000016821F0010101600BE000F0FDFB801BA7
:101EF000052806D920206065032084F835000120DC
:101F0000ECE720680068C007EFD122681168A34899
:101F10000140D4E902031843D4E90436334318439B
:101F2000A3691843E3691843236A18430843616AA5
:101F3000042903D1D4E90B13194308436168A1F1C3
:101F40002903052B0DD9163B032B0AD9083B012B7E
:101F500007D9083B032B00E02AE002D97439032992
:101F600001D840F4801010602068406920F007011B
:101F7000606A40EA010604280DD1A06A0643E06ABF
:101F800048B12046FEF7D6FB28B14020606501200D
:101F900084F83500A2E7206846612046FEF7DCFAA7
:101FA00094F85C1001F01F023F219140816066E0CF
:101FB0007B4988421BD07A4B1433984217D0784B18
:101FC0002833984213D0764B3C3398420FD0744B51
:101FD000503398420BD0724B6433984207D0704B09
:101FE0007833984203D06E4B8C3398427ED188422E
:101FF00011D06B49143188420DD06949283188428B
:1020000009D067493C31884205D065495031884242
:1020100001D06349643184F8352084F83450026873
:1020200060490A40A16840297ED080297DD00021E6
:10203000E36841EAD301236941EAD301636941EAD4
:10204000D301A36941EAD301E36941EAD301236AD9
:1020500041EA131111430160514920684942084483
:102060001421B0FBF1F08000E0652046FEF774FA21
:1020700094F85C1001F01F0201219140416020683A
:10208000B84256D043491831884252D0404550D0CA
:1020900048454ED050454CD058454AD03D499031E6
:1020A000884246D03B49A831884242D03A498842CA
:1020B0003FD03949183188423BD0374930318842C6
:1020C00037D035494831884233D03349603188426E
:1020D0002FD03149783188422BD02F499031884216
:1020E00027D02D49A831884223D000E02DE02C498B
:1020F00088421ED02A49143188421AD028492831F2
:10210000884216D026493C31884212D024495031A9
:1021100088420ED02249643188420AD02049783161
:10212000884206D01E4901E00AE00BE08C3188426B
:1021300029D12046FEF770FAA06880280CD00CE068
:10214000102175E74FF4804172E74020606503205D
:1021500084F835000120C1E66560216E20790860B1
:10216000D4E9191048606068401E072808D8204646
:10217000FEF7A2FAE06E0560D4E91C10486002E0A8
:10218000E566256765676565012084F835000020F0
:10219000A4E6000010000240100402403F8010FE40
:1021A000085402580F00FEFF2DE9F84F04460020A6
:1021B0000090002C15D094F83400012813D0012091
:1021C00084F8340094F835500020012D0DD04FF4E0
:1021D0000061616584F83400012000900098BDE83A
:1021E000F88F0120FBE70220F9E7022584F835503B
:1021F0006065A54DA44EA44F1835DFF88CC230366B
:10220000DFF884824837DFF88092DFF87CA208F19B
:102210006008DFF874B209F1780920680AF1900AC1
:102220000BF1A80B60453BD0A84239D0B04237D063
:10223000B84235D0404533D0484531D050452FD0F5
:1022400058452DD0DFF844C2604529D0DFF83CC2A4
:102250000CF1180C604523D0DFF830C20CF1300CC3
:1022600060451DD0DFF824C20CF1480C604517D042
:10227000DFF818C20CF1600C604511D0DFF80CC219
:102280000CF1780C60450BD0DFF800C20CF1900C1B
:10229000604505D0DFF8F4C10CF1A80C604506D10B
:1022A000D0F800C02CF0010CC0F800C005E0D0F858
:1022B00000C02CF0010CC0F800C02046FEF7D6FA92
:1022C0007149206888422CD0A8422AD0B04228D038
:1022D000B84226D0404524D0484522D0504520D091
:1022E00058451ED0694A90421BD0684A1832904225
:1022F00017D0664A3032904213D0644A4832904236
:102300000FD0624A603290420BD0604A78329042DD
:1023100007D05E4A9032904203D05C4AA832904285
:102320000DD1026822F01E0242F016020260206CFB
:1023300090B12068026842F0080202600CE0026876
:1023400022F00E0242F00A020260206C20B12068E6
:10235000026842F004020260206888424BD0A84222
:1023600049D0B04247D0B84245D0404543D0484517
:1023700041D050453FD058453DD0444A90423AD094
:10238000424A1832904236D0404A3032904232D0DF
:102390003E4A483290422ED03C4A603290422AD087
:1023A0003A4A7832904226D0384A9032904222D02F
:1023B000364AA83290421ED0354A90421BD0344A49
:1023C0001432904217D0324A2832904213D0304A09
:1023D0003C3290420FD02E4A503290420BD02C4AC1
:1023E0006432904207D02A4A7832904203D0284A79
:1023F0008C3290420DD1206E0268D20303D5026860
:1024000042F480720260E06E18B1026842F4807299
:102410000260206888422CD0A8422AD0B04228D03E
:10242000B84226D0404524D0484522D0504520D03F
:1024300058451ED0154988421BD01449183188428E
:1024400017D012493031884213D0104948318842A0
:102450000FD00E49603188420BD00C497831884248
:1024600007D00A499031884203D00849A8318842F0
:1024700004D1016841F001010160AFE6016841F05B
:1024800001010160AAE600001000024010040240B1
:102490000854025870B5044600F026F90546601C41
:1024A00002D004480078044400F01EF9401BA0420A
:1024B000FAD370BD0C0000202DE9F84F0022784DB2
:1024C00003264FF001080F274FF0B04CE1E008FA67
:1024D00002F31C409A46002C7ED00B7903F00303D4
:1024E000012B01D0022B1BD1D0F80890530006FA23
:1024F00003FB29EA0B09D1F80CB00BFA03FB4BEAFA
:10250000090BC0F808B0436823EA0A0391F8049065
:10251000C9F3001909FA02F949EA0309C0F804905D
:102520000B79DB439B070ED0D0F80C90530006FAD2
:1025300003FA29EA0A09D1F808A00AFA03FA4AEAD2
:10254000090AC0F80CA00B7903F00303022B14D185
:10255000D30800EB8303D3F820A04FEA42794FEA77
:10256000D96907FA09FB2AEA0B0AD1F810B00BFA6D
:1025700009FB4BEA0A0BC3F820B0D0F800905300D7
:1025800006FA03FA29EA0A0991F804A00AF0030AF4
:102590000AFA03FA4AEA090AC0F800A04B6813F4E1
:1025A000403F75D03F4BD3F8009049F00209C3F883
:1025B00000901B6803F00203009322F0030909F165
:1025C000B049D9F808B493074FEA137A07FA0AF327
:1025D0002BEA030B344B00E05AE0984201D1002370
:1025E00028E0324B984201D1012323E0304B98423E
:1025F00001D102231EE02F4B984201D1032319E0A1
:102600002D4B984201D1042314E02C4B984201D168
:1026100005230FE02A4B984201D106230AE0294BFB
:10262000984201D1072305E0274B984201D10923A5
:1026300000E00A2303FA0AF343EA0B03C9F808345B
:10264000DCF80030A343D1F804905FEAC92900D533
:102650002343CCF80030DCF80430A343D1F80490D5
:102660005FEA892900D52343CCF804306B68A34383
:10267000D1F804905FEA893900D523436B602B6859
:10268000A343D1F804905FEAC93900D523432B60F6
:10269000521C0C6834FA02F37FF419AFBDE8F88FCE
:1026A00080000058F4440258000002580004025808
:1026B00000080258000C025800100258001402587A
:1026C00000180258001C02580024025800690842F1
:1026D00001D00120704700207047002A01D081619D
:1026E00070470904816170470148806870470000A5
:1026F0000C00002002488168027811448160704714
:102700000C00002010B5032000F0D8F800F06AFC9F
:102710000F490A68C2F303230E4AD35C03F01F0378
:10272000D840096801F00F01515C0B4A01F01F010C
:1027300020FA01F11160094908600F2000F010F83B
:1027400008B1012010BD00F07DF8002010BD000090
:10275000184402589A5B00081C0000201800002052
:1027600070B504460F4D2A78002A0CD04FF47A70C9
:102770000D49B0FBF2F00968B1FBF0F001F0EBF9A4
:1027800018B1012070BD012070BD102C07D20022AD
:102790002146501E00F072F86C60002070BD0120D0
:1027A00070BD00000C00002018000020144A417881
:1027B0001160111D03780A1D002B1CD043680B60AB
:1027C000017BC37A090741EA0361837A41EAC34185
:1027D000437B41EA8341837B41EA4341C37B41EA36
:1027E0000341437A41EA0321037A007841EA430135
:1027F00001431160704700200860106070470000BE
:1028000098ED00E0BFF35F8F0448016821F4803148
:1028100001600249002070310860704724ED00E03B
:10282000074940F00100086005487038016841F42C
:1028300080310160BFF34F8FBFF36F8F704700008F
:1028400094ED00E008B50548016841F0020101601F
:10285000006800F00200009008BD0000F444025837
:10286000002809DB012100F01F029140400980008F
:1028700000F1E020C0F8001170470000F0B40D46F0
:102880000D4B1B68C3F30223C3F10704042C00D9CA
:102890000424191D072901D2002300E0DB1E0126B4
:1028A00006FA04F1491E294099409E40761E1640C2
:1028B0003143F0BC02F096BE0CED00E000F00701E1
:1028C000054A10684FF6FF03184040EA012003490B
:1028D00008431060704700000CED00E00000FA05AE
:1028E00070B514490A68D243520708D5096801F047
:1028F0000701814201D0012070BD002070BD0A682F
:1029000022F0070202430A60FFF7EEFE0446094D7B
:102910004FF47A76083D06E0FFF7E6FE001BB04272
:1029200001D9012070BD2868C0438004F4D4002080
:1029300070BD00000C48025810B500F00DFB0549B1
:102940000968054AC1F30211515C01F01F01C8403A
:1029500010BD0000204402589A5B000810B5694978
:102960000A6802F003020968C1F30531654B1B1DBB
:102970001B68C3F30013634C14342468C4F3CC0401
:1029800014FB03F300EE103AB8EE400A002971D0B0
:102990009FED5D1A5B4BF7EE000A1033F2B39FED2B
:1029A0005B2A012A7FD0022A7CD001EE901A196896
:1029B000F8EE611AC2EE212AC1F3080101EE901A65
:1029C000F8EE611A40EE011A31EEA00A22EE800AFA
:1029D0001968C1F3462101EE101AB8EE411A31EE22
:1029E000201AC0EE011ABCEEE11A80ED001A196837
:1029F000C1F3064101EE101AB8EE411A31EE201A69
:102A0000C0EE011ABCEEE11A80ED011A1968C1F39B
:102A1000066101EE101AB8EE411A00E008E071EE0E
:102A2000200A80EE201ABCEEC10A80ED020A10BD19
:102A3000344A283A1468A4061ED51268C2F3C104A9
:102A4000334AE24001EE902AF8EE612A01EE901A34
:102A50001968F8EE611A82EEA12AC1F3080101EEAD
:102A6000901AF8EE611A40EE011A31EEA00A22EE39
:102A7000000AADE741E016E001EE901ADFED252AED
:102A80001968F8EE611A82EEA12AC1F3080101EE7D
:102A9000901AF8EE611A40EE011A31EEA00A22EE09
:102AA000000A95E713E001EE901A1968F8EE611A32
:102AB000C2EE212AC1F3080101EE901AF8EE611A64
:102AC00040EE011A31EEA00A22EE800A80E701EE04
:102AD000901ADFED112A1968F8EE611A82EEA12A28
:102AE000C1F3080101EE901AF8EE611A40EE011AE6
:102AF00031EEA00A22EE000A6AE70021016041607F
:102B0000816010BD28440258000000390024744A36
:102B10000090D0030024744C20BCBE4B10B5694912
:102B20000A6802F003020968C1F30551654B1B1DD9
:102B30001B68C3F30023634C1C342468C4F3CC0427
:102B400014FB03F300EE103AB8EE400A002971D0EE
:102B50009FED5D1A5B4BF7EE000A1833F2B39FED61
:102B60005B2A012A7FD0022A7CD001EE901A1968D4
:102B7000F8EE611AC2EE212AC1F3080101EE901AA3
:102B8000F8EE611A40EE011A31EEA00A22EE800A38
:102B90001968C1F3462101EE101AB8EE411A31EE60
:102BA000201AC0EE011ABCEEE11A80ED001A196875
:102BB000C1F3064101EE101AB8EE411A31EE201AA7
:102BC000C0EE011ABCEEE11A80ED011A1968C1F3DA
:102BD000066101EE101AB8EE411A00E008E071EE4D
:102BE000200A80EE201ABCEEC10A80ED020A10BD58
:102BF000344A283A1468A4061ED51268C2F3C104E8
:102C0000334AE24001EE902AF8EE612A01EE901A72
:102C10001968F8EE611A82EEA12AC1F3080101EEEB
:102C2000901AF8EE611A40EE011A31EEA00A22EE77
:102C3000000AADE741E016E001EE901ADFED252A2B
:102C40001968F8EE611A82EEA12AC1F3080101EEBB
:102C5000901AF8EE611A40EE011A31EEA00A22EE47
:102C6000000A95E713E001EE901A1968F8EE611A70
:102C7000C2EE212AC1F3080101EE901AF8EE611AA2
:102C800040EE011A31EEA00A22EE800A80E701EE42
:102C9000901ADFED112A1968F8EE611A82EEA12A66
:102CA000C1F3080101EE901AF8EE611A40EE011A24
:102CB00031EEA00A22EE000A6AE7002101604160BD
:102CC000816010BD28440258000000390024744A75
:102CD0000090D0030024744C20BCBE4B2DE9F05F63
:102CE00004460D46002C17D0DFF84C82D8F80000BF
:102CF00000F00F00A84211D2D8F8000020F00F0019
:102D00002843C8F80000D8F8000000F00F00A842DF
:102D100004D00120BDE8F09F0120FBE72078874E1A
:102D200040070AD52069316801F07001884204D952
:102D3000316821F07001014331602078804F000735
:102D40000AD56069396801F07001884204D9396890
:102D500021F07001014339602078C0060AD5A069CE
:102D6000396801F4E061884204D9396821F4E061EE
:102D7000014339602078DFF8CC9180060DD5E069F9
:102D8000D9F8001001F07001884206D9D9F8001076
:102D900021F070010143C9F80010207880070AD59E
:102DA000E068316801F00F01884204D9316821F0F0
:102DB0000F01014331602078C00743D03068A1681B
:102DC00020F47060084330605C496068183902285C
:102DD00008D003280BD001280ED00968490710D469
:102DE000012097E7096889030BD4012092E709685D
:102DF000890106D401208DE70968C90501D40120A5
:102E000088E7DFF838A1AAF1080ADAF8001021F003
:102E100007010143CAF80010FFF766FC834609E08A
:102E2000FFF762FCA0EB0B0141F28830814201D92F
:102E300003206FE7DAF80000616800F03800B0EBBB
:102E4000C10FEDD1207880070AD5E068316801F024
:102E50000F01884204D2316821F00F010143316033
:102E6000D8F8000000F00F00A8420ED9D8F80000F2
:102E700020F00F002843C8F80000D8F8000000F048
:102E80000F00A84201D0012044E7207840070AD56E
:102E90002069316801F07001884204D2316821F064
:102EA000700101433160207800070AD560693968F4
:102EB00001F07001884204D2396821F070010143A9
:102EC00039602078C0060AD5A069396801F4E0614C
:102ED000884204D2396821F4E061014339602078E6
:102EE00080060DD5E069D9F8001001F07001884224
:102EF00006D2D9F8001021F070010143C9F8001082
:102F000000F070F83168C1F303220F498A5C02F0C7
:102F10001F02D040326802F00F02895C0B4A01F0B8
:102F20001F0120FA01F11160094908600948006891
:102F3000BDE8F05FFFF714BC0020005218440258AF
:102F40001C440258204402589A5B00081C000020D0
:102F5000180000201000002000B500F043F80B49D5
:102F60000A68C2F303230A4AD35C03F01F03D84064
:102F7000096801F00F01515C064A01F01F0120FAB7
:102F800001F11160044A1060084600BD184402585F
:102F90009A5B00081C0000201800002000B5FFF715
:102FA000DBFF05490968054AC1F30211515C01F0D4
:102FB0001F01C84000BD00001C4402589A5B000875
:102FC00000B5FFF7C9FF05490968054AC1F30221A9
:102FD000515C01F01F01C84000BD00001C440258B4
:102FE0009A5B000830B564480068654C10F0380101
:102FF000624808D0021108290DD010290DD01829D7
:103000000DD0104630BD21688906FBD52168C1F37B
:10301000C101C84030BD104630BD5A4830BD564988
:1030200018310A6802F003020968C1F30511524B16
:103030001C331B6803F001034F4D24352D68C5F385
:10304000CC0515FB03F300EE103AB8EE400A002958
:1030500077D0DFED4D0A484BB7EE001A20333AB374
:103060009FED4A2A012A58D0022A6CD001EE901A0C
:103070001868F8EE611AC2EE212AC0F3080001EECA
:10308000900AF8EE611A40EE201A31EE810A22EE23
:10309000800A1868C0F34620401C00EE900AF8EE43
:1030A000600A80EE201ABCEEC10A10EE100A30BD94
:1030B000226892061BD52268C2F3C102D04001EEFD
:1030C000900A1868F8EE612A01EE901AF8EE611A7B
:1030D00082EEA12AC0F3080001EE900AF8EE611A10
:1030E00040EE201A31EE810A22EE000AD1E701EE0D
:1030F000901ADFED272A1868F8EE611A82EEA12AED
:10310000C0F3080001EE900AF8EE611A40EE201AB2
:1031100031EE810A22EE000ABBE701EE901A186830
:10312000F8EE611AC2EE212AC0F3080001EE900AFF
:10313000F8EE611A40EE201A31EE810A22EE800A82
:10314000A7E716E0FFE701EE901ADFED122A1868F4
:10315000F8EE611A82EEA12AC0F3080001EE900A8F
:10316000F8EE611A40EE201A31EE810A22EE000AD2
:103170008FE7002030BD0000104402580090D003BB
:103180000044025840787D01000000390024744A50
:103190000024744C20BCBE4B2DE9F05F0446002C8B
:1031A00010D02078DFF8F883FE4EFF4DC0075DD0C9
:1031B000D8F8000000F03800316810281FD0182817
:1031C00003D006E00120BDE8F09F01F003000228D3
:1031D00015D06068B0F5803F18D0E0B1B0F5A02FF1
:1031E00022D0286820F480302860286820F48020CD
:1031F0002860606860B3FFF777FA074624E0286824
:10320000800333D5606810BB0120DCE7286840F4F8
:1032100080302860EDE7286820F480302860286836
:1032200020F480202860E4E7286840F480202860AB
:10323000286840F480302860DBE7FFF755FAC01BB0
:10324000642801D90320BEE728688003F5D50DE086
:10325000FFF74AFA074606E0FFF746FAC01B642864
:1032600001D90320AFE728688003F5D420788007D0
:1032700064D5D8F8000000F038003168DFF82893F2
:1032800009F1040970B1182801D188070AD0E06853
:10329000A0B3296821F0190101432960FFF724FA3E
:1032A00007462CE02868400701D5E06848B1286847
:1032B000E16820F0190008432860FFF715FA074677
:1032C00008E001207FE7FFF70FFAC01B022801D9B1
:1032D000032078E728684007F5D5D9F80000217C5D
:1032E00020F0FE4040EA0160C9F8000026E0FFF748
:1032F000FBF9C01B022802D9032064E70CE0286810
:103300004007F4D5D9F80000217C20F0FE4040EAC7
:103310000160C9F8000011E0286820F00100286071
:10332000FFF7E2F9074606E0FFF7DEF9C01B0228C7
:1033300001D9032047E728684007F5D42078C00664
:1033400055D5D8F8000000F038003168DFF8509209
:103350000828A9F104090FD0182803D101F00300AF
:10336000012809D0E06978B3286840F0800028601F
:10337000FFF7BAF9074619E02868C00504D5E069E7
:10338000802801D001201EE7D9F8000094F8201011
:1033900020F07C5040EA0160C9F8000027E0FFF708
:1033A000A3F9C01B022801D903200CE72868C00537
:1033B000F5D5D9F8000094F8201020F07C5040EAB0
:1033C0000160C9F8000012E0FFE7286820F08000E3
:1033D0002860FFF789F9074606E0FFF785F9C01B6B
:1033E000022801D90320EEE62868C005F5D420782C
:1033F000000730D5DFF8AC91606909F14C09A8B13C
:10340000D9F8000040F00100C9F80000FFF76CF99E
:10341000074606E0FFF768F9C01B022801D9032020
:10342000D1E6D9F800008007F4D514E0D9F80000FF
:1034300020F00100C9F80000FFF756F9074606E042
:10344000FFF752F9C01B022801D90320BBE6D9F8C7
:1034500000008007F4D42078800626D5A06990B1BA
:10346000286840F480502860FFF73EF9074606E0E0
:10347000FFF73AF9C01B022801D90320A3E6286808
:103480008004F5D511E0286820F480502860FFF70B
:103490002BF9074606E0FFF727F9C01B022801D9E0
:1034A000032090E628688004F5D4207840075DD595
:1034B0003E4F386840F480703860FFF715F9814658
:1034C00007E0FFF711F9A0EB0900642801D90320F8
:1034D00079E63868C005F4D5324FA068483701282E
:1034E00012D0B0B105281DD0386820F00100386036
:1034F000386820F004003860A06841F2883930B3A1
:10350000FFF7F2F882461EE0386840F001003860AC
:10351000F2E7386820F001003860386820F00400D5
:103520003860E9E7386840F004003860386840F0F7
:1035300001003860E0E7FFF7D7F8A0EB0A00484544
:1035400001D903203FE638688007F4D50EE0FFF785
:10355000CBF8824607E0FFF7C7F8A0EB0A00484522
:1035600001D903202FE638688007F4D4616AB1B12D
:10357000D8F800004FF6F87BDFF828A00AF1080A17
:10358000C0F3C20003280AF10409AAF104087CD0A0
:10359000022911D0286820F08070286008E0E5E05A
:1035A0001044025828440258004402580048025867
:1035B000FFF79AF8044689E0286820F080702860B8
:1035C000FFF792F8074606E0FFF78EF8C01B0228C7
:1035D00001D90320F7E528688001F5D4306840F26E
:1035E000F3318843E16A40EA0110A16A0843306080
:1035F000208E4FF6FF72616B401E491EC0F308001B
:1036000002EA41210843218F4FF4FE02491E02EADB
:103610000141084394F83C10491E120202EA01617C
:103620000843CAF80000D8F8000020F00100C8F8EC
:103630000000D9F80000A16C20EA0B0040EAC100AC
:10364000C9F80000D8F80000216C20F00C000843F5
:10365000C8F80000D8F80000616C20F002000843B0
:10366000C8F80000D8F8000040F48030C8F8000026
:10367000D8F8000040F40030C8F80000D8F8000086
:1036800040F48020C8F8000000E023E0D8F80000F3
:1036900040F00100C8F80000286840F08070286001
:1036A000FFF722F8044606E0FFF71EF8001B022889
:1036B00001D9032087E528688001F5D556E0FFF79A
:1036C00013F8001B022801D903207CE5286880013B
:1036D000F5D44BE03268DAF80000012921D0A36A62
:1036E00002F0030199421CD1E16AC2F30512914232
:1036F00017D1216BC0F30802491E8A4211D1616BB8
:10370000C0F34622491E91420BD1A16BC0F3064281
:10371000491E914205D1E16BC0F30660491E81420A
:1037200001D001204FE5D9F80000C0F3CC00A16C16
:1037300081421BD0D8F8000020F00100C8F800003A
:10374000FEF7D2FF0546FEF7CFFFA842FBD0D9F81F
:103750000000A16C20EA0B0040EAC100C9F800009B
:10376000D8F8000040F00100C8F8000000202AE569
:103770002DE9F0410446002C12D00025A562DFF8A7
:1037800058812068554E564F40450BD0B04209D065
:10379000B84207D0E0680F2804D90120BDE8F081C5
:1037A0000120FBE7204601F022FA0146206840454F
:1037B00005D0B04203D0B84201D0082907D840450F
:1037C00003D0B04201D0B84203D1102901D9012061
:1037D000E4E794F8810020B984F88050204600F096
:1037E00081F8022084F881002068016821F001013D
:1037F00001602068816801F4F812A169B1F1806F5D
:103800000ED16168B1F5800F01D1A36B23B139B935
:10381000A16BB1F1805F03D1016841F48051016077
:10382000606840020AD5E068072807D3206801686D
:10383000236D21F480711943016004E02068016860
:1038400021F480710160A16AE0690843E16B1143D2
:103850000843E168084321688860616A606BA26977
:103860000843A16B11430843216908436169084378
:10387000216A084361680843E16C0843A168084372
:10388000A16C0843A16D08432168C860606868B9ED
:103890002068816821F4C05141F400618160206892
:1038A000816821F4C06141F4806181602068016D0C
:1038B00021F0010101656068400206D52068C168F9
:1038C000626D21F000411143C160C4F884500120B1
:1038D00084F88100002061E700300140003800409A
:1038E000003C004070472DE9F84F04468B46924655
:1038F0001D464FF0000994F88000012810D04FF0C9
:10390000010884F88080FEF7EFFE064694F88100F7
:103910000027012806D0022084F88070BDE8F88FC7
:103920000220FBE7BBF1000F2FD0BAF1000F2CD023
:10393000032064346077276244F808BC24F804ACA0
:1039400024F802AC2760A780E7802761E76054F87D
:103950005C0C643CB0F5C02F1BD02068C16821F41A
:10396000C02141F40031C160206841686FF30F014C
:1039700041EA0A0141602068016841F001010160EB
:103980006068B0F5800F0AD00EE0012084F88070E6
:10399000C4E72068016841F400610160E4E7206841
:1039A000016841F400710160E0680F2818D829E02F
:1039B0002068416989070BD5E16D09680162E06DF6
:1039C000001DE065B4F86200401EA4F8620007E044
:1039D000FEF78AFE801BA84201D3681C05D125B1E1
:1039E000B4F862000028E3D18DE0204601F0A2F88F
:1039F00004F8807F606840F48070606084F8018023
:103A000003208BE707282AD879E0206841698907D5
:103A10001DD5B4F8621001290DD9E16B59B1E16DE2
:103A200009680162E06D001DE065B4F86200801E67
:103A3000A4F8620013E0E16D09880184E06D801C48
:103A4000E065B4F86200401EA4F8620007E0FEF7EB
:103A50004BFE801BA84201D3681C05D125B1B4F8E8
:103A600062000028D1D14EE0204601F063F804F84E
:103A7000807F606840F48070606084F8018003207B
:103A80004CE720684169890731D5B4F862100329F1
:103A90000ED9E16B40290BD9E16D09680162E06D37
:103AA000001DE065B4F86200001FA4F8620026E083
:103AB000B4F8621001290DD9E16B59B1E16D0988A3
:103AC0000184E06D801CE065B4F86200801EA4F8FB
:103AD000620014E0E16D097880F82010E06D401C70
:103AE000E065B4F86200401EA4F8620007E0FEF74B
:103AF000FBFD801BA84201D3681C1DD1E5B1B4F8C1
:103B000062000028BDD100222B46082120460096E5
:103B100001F077F828B1D4F8840040F02000C4F810
:103B20008400204601F006F804F8807F84F80180C4
:103B3000606870B10120F1E6204600F0FBFF04F858
:103B4000807F606840F48070606084F801800320AA
:103B5000E4E64846E2E610B5401EB0F1807F01D3AE
:103B6000012010BD4FF0E02460610F21601701F0CB
:103B700039FD0020A06107202061002010BD90F8D1
:103B80008410012918D0012180F884102421C0F864
:103B9000881001680A680B6823F001030B6022F0AB
:103BA000005100224266036819602021C0F8881085
:103BB00080F88420002070470220704770B50446CA
:103BC00094F8840001281DD0012084F8840024206A
:103BD000C4F8880020680568026822F001020260CB
:103BE0002068826822F060620A438260204601F009
:103BF000D9F8206805602020C4F88800002084F8E7
:103C0000840070BD022070BD70B5044694F8840035
:103C100001281DD0012084F884002420C4F88800E5
:103C200020680568026822F001020260206882684C
:103C300022F060420A438260204601F0B3F8206817
:103C400005602020C4F88800002084F8840070BD3E
:103C5000022070BD10B50446002C03D0D4F88800B3
:103C600010B107E0012010BD002084F88400204638
:103C700000F028F82420C4F888002068016821F0AA
:103C800001010160204601F095F9012818D0A06AD1
:103C900010B1204601F0AAF82068416821F4904153
:103CA00041602068816821F02A01816020680168F4
:103CB00041F0010101602046BDE8104001F0FAB872
:103CC000012010BD10B586B00446142101A8FCF7F0
:103CD00051FB25492068884243D12448016841F0BE
:103CE00010010160006800F0100000901F481838B3
:103CF000016841F001010160006800F001000090DE
:103D00001A481038016841F001010160016801F0B2
:103D100001010091016841F001010160006800F0BB
:103D2000010000904FF400700190022002900120E9
:103D3000039003200490072005900D4C01A9204614
:103D4000FEF7BAFB4FF48061019101A92046FEF70E
:103D5000B3FB012200210B20FEF790FD0B20FEF7A4
:103D60007FFD06B010BD000000100140F044025875
:103D7000000002582DE9F84304460E4615461F463A
:103D8000D4F88800202802D00220BDE8F8838EB144
:103D900085B100201834A06721202067FEF7A4FC1D
:103DA0008146A587E58754F8100C183CB0F5805F74
:103DB00002D003E00120E8E7206920B13546002663
:103DC0004FF0200817E00025FAE700224B4680213B
:103DD0002046009701F085FB18B1C4F888800320C5
:103DE000D3E7C5B1216815F8010B8862B4F8560015
:103DF000401EA4F85600B4F856000028E5D1002271
:103E00004B4640212046009701F06BFB50B1C4F8AF
:103E100088800320B9E7216836F8020BC0F3080058
:103E20008862E3E7C4F888800020AEE7FEE7000080
:103E3000F8B516490D8849882A464D43030A8DF87E
:103E400000308DF80100491E8BB2521E002192B243
:103E5000084600F0A9FA0E4E002201213046FEF776
:103E60003CFC012230460221FEF737FC002404E02E
:103E70000221684600F08EFA641CAC42F8D301229D
:103E800030461146FEF729FCF8BD0000F401002081
:103E9000000C02582DE9F04FADF5017D044688462F
:103EA00091469A468A9FA9EB0406761CAAEB080065
:103EB000401C464300253D4800220121FEF70DFC31
:103EC0003A4800220221FEF708FCDFF8E4B09BF834
:103ED0000A0000F053FA354801220221FEF7FDFBEB
:103EE000200A00F04BFAE0B200F048FA4FEA19203D
:103EF00000F044FA09F0FF0000F040FA2B480022DD
:103F00000221FEF7EAFB9BF80C0000F037FA274885
:103F100001220221FEF7E1FB4FEA182000F02EFA01
:103F200008F0FF0000F02AFA4FEA1A2000F026FA03
:103F30000AF0FF0000F022FA1C4800220221FEF7DE
:103F4000CCFB9BF8080000F019FA18480122022166
:103F5000FEF7C3FB4FF480781DE0741B444500D985
:103F60004446002001AA09E0291837F811100B0A6D
:103F700002F8103002EB40035970401CA042F3D30A
:103F80004FF6FF704FF0FF3300EA4402094801A9E1
:103F9000FFF7A9FC2544B542DFD3012203481146AF
:103FA000FEF79BFB0DF5017DBDE8F08F000C02587C
:103FB000F40100200402002030B587B0142102A8CB
:103FC000FCF7D8F91E48016841F00801016001685A
:103FD00001F008010191016841F0020101600068EF
:103FE00000F0020001900720029001240394049441
:103FF0000320059002A9134D2846FEF75DFA102113
:104000000291039404940021059102A90E4C2046CC
:10401000FEF752FA012228461146FEF75EFB012206
:1040200028460221FEF759FB012228460421FEF70B
:1040300054FB002220461021FEF74FFB07B030BD95
:10404000E0440258000C02580004025810B500F079
:104050003FF9FFF7B1FF00F025F9CF2000F0ECF9B0
:10406000002000F0CFF9C92000F0CCF9302000F09A
:10407000C9F9ED2000F0E0F9642000F0C3F9032055
:1040800000F0C0F9122000F0BDF9812000F0BAF96B
:10409000E82000F0D1F9852000F0B4F9102000F0FC
:1040A000B1F97A2000F0AEF9CB2000F0C5F9392043
:1040B00000F0A8F92C2000F0A5F9002000F0A2F9EA
:1040C000342000F09FF9022000F09CF9F72000F066
:1040D000B3F9202000F096F9EA2000F0ADF90020B5
:1040E00000F090F9002000F08DF9C02000F0A4F954
:1040F0001B2000F087F9C12000F09EF9002000F09D
:1041000081F9C52000F098F9302000F07BF93020CB
:1041100000F078F9C72000F08FF9B72000F072F9AD
:10412000362000F089F9082000F06CF93A2000F000
:1041300083F9552000F066F9B12000F07DF90020E8
:1041400000F060F91A2000F05DF9B62000F074F973
:104150000A2000F057F9A22000F054F9F22000F0F4
:104160006BF9002000F04EF9262000F065F90120DF
:1041700000F048F9E02000F05FF90F2000F042F96C
:104180002A2000F03FF9282000F03CF9082000F038
:1041900039F90E2000F036F9082000F033F95420E8
:1041A00000F030F9A92000F02DF9432000F02AF9A1
:1041B0000A2000F027F90F2000F024F9002000F079
:1041C00021F9002000F01EF9002000F01BF900206A
:1041D00000F018F9E12000F02FF9002000F012F9AA
:1041E000152000F00FF9172000F00CF9072000F05F
:1041F00009F9112000F006F9062000F003F92B2040
:1042000000F000F9562000F0FDF83C2000F0FAF82C
:10421000052000F0F7F8102000F0F4F80F2000F06F
:10422000F1F83F2000F0EEF83F2000F0EBF80F200F
:1042300000F0E8F82B2000F0FFF8002000F0E2F892
:10424000002000F0DFF8012000F0DCF83F2000F053
:10425000D9F82A2000F0F0F8002000F0D3F8002070
:1042600000F0D0F8002000F0CDF8EF2000F0CAF800
:10427000112000F0E1F87820FEF70CF9292000F079
:10428000DBF8002000F002F9054801221021FEF7BA
:1042900024FABDE810404FF6FF70FFF7C9BD0000DB
:1042A0000004025810B5094C002204212046FEF7F4
:1042B00014FA6420FEF7EEF8012220460421FEF7EE
:1042C0000CFABDE810403220FEF7E4B8000C0258AA
:1042D00010B586B02548016841F48051016000683E
:1042E00000F48050009021481038016841F002012C
:1042F0000160006800F002000090142101A8FCF7A2
:1043000039F8282001900220029000240394032011
:10431000049005200590164801A9FEF7CDF816482F
:10432000144901604FF48001416049118160072107
:10433000C160046144614FF080628261D200C26159
:10434000046244628462C162090401634463846359
:10435000C4638464C46404658465C9034165FFF76C
:1043600007FA002800D0FEE706B010BDF04402585E
:1043700000040258003001400402002001B5044846
:1043800001224FF0FF336946FFF7ADFA08BD000088
:10439000040200200A464FF0FF3301460148FFF7B0
:1043A000A2BA0000040200202DE9F04104460D46A7
:1043B00016461F46DFF8488098F80A0000F03CF8DF
:1043C000200A00F01FF8E0B200F01CF8300A00F0FC
:1043D00019F8F0B200F016F898F80C0000F02CF87C
:1043E000280A00F00FF8E8B200F00CF8380A00F0E4
:1043F00009F8F8B200F006F8BDE8F04100F036B870
:10440000F401002070B505460A4C00220121204627
:10441000FEF763F9012220460221FEF75EF92846E5
:10442000FFF7ACFF2046BDE8704001221146FEF7C1
:1044300054B90000000C025870B505460A4C002221
:1044400001212046FEF749F9002220460221FEF70D
:1044500044F92846FFF792FF2046BDE8704001224C
:104460001146FEF73AB90000000C02580148007AE4
:10447000FFF7E2BFF401002010B50C46FFF7DCFFA8
:10448000E0B2BDE81040FFF7BDBF000015492A2289
:104490004A812B228A812C220A81F02200284FF4A3
:1044A000A0730BD001280FD0022813D0032817D1F6
:1044B0000B804A80A8213620FFF7DEBF0A804B80A0
:1044C00008213620FFF7D8BF0B804A8068213620AC
:1044D000FFF7D2BF0A804B80C8213620FFF7CCBF40
:1044E00070470000F401002010B586B0142101A827
:1044F000FBF740FF0D48016841F040010160006892
:1045000000F0400000900A4C002280212046FEF777
:10451000E4F880210191012102910021039104918D
:1045200001A92046FDF7C8FF06B010BDE0440258BF
:10453000001802581FB5FEF765F901208DF800003C
:104540004FF01051019112218DF8081003218DF8C0
:104550000B108DF80F008DF80E008DF80D00002067
:104560008DF801008DF80A008DF809008DF80C0017
:104570006846FEF71BF90420FEF752F91FBD000044
:1045800010B50F480D490160002141602022826072
:10459000C160016141618161016241628162C16208
:1045A0000163FCF735FB052200214E20FEF766F97A
:1045B000BDE810404E20FEF753B90000000002484D
:1045C0002C010020FEE7FEE770B50546002405E05B
:1045D00005EB4401497800F09DFA641C15F81400BD
:1045E0000028F5D170BD000038B590424FF0FF357E
:1045F00001D2994201D3284638BD121A94B25A1AF0
:1046000002EBD27205EB620292B205EB400083B27C
:10461000491E88B2009004482146FCF748FA024837
:10462000FCF761FA002038BD2C01002038B519488C
:10463000016841F002010160006800F00200009092
:10464000164C154820604B2060600020A060E060A0
:104650004FF480612161890061618900A161891144
:10466000E1612062042161620321A162E0622063B2
:104670002046FDF7A1FBA4F150008464A063002252
:1046800046201146FEF7FAF8BDE838404620FEF70E
:10469000E7B80000D8440258B80402407C0100206A
:1046A0002DE9F04106460F46074D4FF48074EC614A
:1046B0002846FDF781FBA5F150003B463246BDE898
:1046C000F0410021FCF796BB7C01002001B581B0D0
:1046D00044F62061002209E0009203E0BDF80000EA
:1046E000401C0090BDF800008842F7D30198431E9B
:1046F0000193F1D20CBD10B50121FF2000F00AFAA0
:104700000A2000F025F904460B2000F021F940EAC8
:10471000042010BD10B50520FFF7D8FF0A4800227D
:104720004FF40051FDF7D9FF0520FFF7CFFF01211E
:10473000FF2000F0EFF98021122000F0EBF9BDE836
:1047400010400A20FFF7C2BF0014025870B504469B
:104750000D46A00750EA857002D04FF0FF3070BDC3
:104760000021FF2000F0D6F95A20C4F3870100F0A1
:10477000D1F95B20C5F3870100F0CCF9042000EAF1
:104780001521C4F3812001435C2000F0C3F900210E
:10479000E02000F0BFF9002070BD704770B5154DE6
:1047A0004FF48044002221462846FDF796FF0F2053
:1047B00000F022F86600284600223146FDF78DFF02
:1047C0000F2000F019F8012221462846FDF785FF49
:1047D0000F2000F011F8002221462846FDF77DFF4A
:1047E000012231462846FDF778FFBDE870400F20D2
:1047F00000F002B80014025808B5002209E0009247
:1048000003E0BDF80010491C0091BDF80010032919
:10481000F7D3401E411CF2D108BD000070B586B030
:10482000142101A8FBF7A6FD1948016841F02001F9
:104830000160016801F020010091016841F0200150
:104840000160006800F0200000904FF48044019463
:104850001120029000200390049001A90D4E3046D3
:10486000FDF72AFE6500019501A93046FDF724FEFB
:10487000012102910391012221463046FDF72DFFCF
:10488000012229463046FDF728FF06B070BD000022
:10489000E04402580014025870B5124D4FF48044A1
:1048A000002221462846FDF718FF0F20FFF7A4FF3E
:1048B00001222846D103FDF710FF0F20FFF79CFFD0
:1048C000012221462846FDF708FF0F20FFF794FF3D
:1048D000002221462846FDF700FFBDE870400F206A
:1048E000FFF78ABF001402582DE9F04781460025E2
:1048F0000024164F4FF480484FF4004A6806060E15
:10490000414601223846FDF7E8FE0F20FFF774FF0D
:1049100051463846FDF7DAFE00F0010535434146C1
:1049200000223846FDF7D9FE0F20FFF765FF641C13
:10493000E4B2082CE2D3B9F1010F04D0FFF7ACFFC9
:104940002846BDE8F087FFF729FFF9E70014025871
:1049500070B50546002400F015F8284600F0CCF8A4
:1049600070B900F035F800F00DF8612000F08AF819
:10497000012803D10020FFF7B7FF044600F028F814
:10498000204670BD70B50122104DD4032846214643
:10499000FDF7A3FE0122284696033146FDF79DFE52
:1049A0000F20FFF729FF002221462846FDF795FE3C
:1049B0000F20FFF721FF002231462846FDF78DFE2C
:1049C000BDE870400F20FFF717BF00000014025829
:1049D00070B5134D4FF48044002221462846FDF760
:1049E0007CFE0F20FFF708FF6600284600223146B4
:1049F000FDF773FE0F20FFF7FFFE01222146284638
:104A0000FDF76BFE0F20FFF7F7FE01223146284627
:104A1000FDF763FEBDE870400F20FFF7EDBE00001C
:104A20000014025870B50122154CD50320462946C2
:104A3000FDF753FE0F20FFF7DFFE0122204696030D
:104A40003146FDF74AFE0F20FFF7D6FE29462046E5
:104A5000FDF73CFE48B1002231462046FDF73DFE01
:104A60000F20FFF7C9FE002070BD0022314620460E
:104A7000FDF733FE0F20FFF7BFFE012070BD0000E1
:104A8000001402582DE9F04105460024194E4FF458
:104A900080474FF40048280605D50122414630469C
:104AA000FDF71BFE04E0002241463046FDF715FEEF
:104AB0000F20FFF7A1FE012239463046FDF70DFE1B
:104AC0000F20FFF799FE002239463046FDF705FE1C
:104AD000072C04D1012241463046FDF7FEFD680651
:104AE000050E641CE4B2082CD5D3BDE8F041FFF7F5
:104AF00099BF00000014025810B50446FFF742FFAA
:104B00006020FFF7BFFF012802D12046FFF7BAFF60
:104B1000002010BD70B504460D46FFF733FF204658
:104B2000FFF7EAFF10B92846FFF7ACFFFFF750FF89
:104B3000002070BD10B502685169936943F0080305
:104B400093610268936943F01003936102681368EC
:104B500023F0010313600268136940F26F34A3432A
:104B600013610268936823F44043936090F88120B6
:104B7000042A0CD08A060AD5D0F8842042F080029C
:104B8000C0F884200268936943F02003936190F891
:104B90008120032A0CD04A060AD5D0F8842042F09E
:104BA0000402C0F884200268936943F040039361D3
:104BB0008A050AD5D0F8842042F00102C0F884208A
:104BC0000268936943F400739361C9050AD5D0F86C
:104BD000841041F00801C0F8841001688A6942F429
:104BE00080728A61002120F8621F018110BDC16BB3
:104BF000012202EB5111C068401CC01DC00848438F
:104C000070472DE9F04106460D4617461C46DDF873
:104C1000188008E0FDF768FDA0EB0800A04201D372
:104C2000601C0BD154B13068406935EA000007D0F0
:104C30000020B842EED00020BDE8F0810320FBE761
:104C40000120F6E77047FDF755BD000010B59CB098
:104C50004C2109A8FBF78EFB202101A8FBF78AFB5A
:104C60000220FDF73DFE00241D48016821F440416B
:104C70000160016801F4404100910168C943890461
:104C8000FBD40121099108040A900220129013908C
:104C90000A221492DC221592169117901890042083
:104CA00019901A941B9409A8FEF776FA08B1FBF73D
:104CB000FCFE3F2001900320029003940820049002
:104CC000402005900690010107910890032101A85A
:104CD000FEF704F8002801D0FBF7E7FE1CB010BD7A
:104CE0001848025810B52748016841F47001016066
:104CF000254A106800F00F00072804D2106820F041
:104D00000F00C01D10602149086840F001000860D4
:104D10001E4B0020103318600B681D4C23400B60A5
:104D2000136803F00F03072B04D9136823F00F0354
:104D3000DB1D1360154A18321060121D1060121D21
:104D40001060124B134A28331A601B1D124A1A6056
:104D50001B1D124A1A601B1D18601B1D1A601B1DAB
:104D600018601B1D1A601A1D10600A6822F4802248
:104D70000A6006496031086043F2D20008490860C1
:104D800010BD000088ED00E00020005200440258F1
:104D90007FEDF6EA000202020000FF01800201013D
:104DA0000040005230B5416E002917D0026891686A
:104DB000C1F342619268520F0B4B9C5C250103F1D9
:104DC0000804A25CB5FBF2F2A0F86A205A5C615CB0
:104DD0001201B2FBF1F1A0F8681030BD012168307A
:104DE0004180018030BD00008A5B000890F82810E7
:104DF000C90706D001684A68C36A22F400321A4320
:104E00004A6090F82810890706D501684A68036B44
:104E100022F480321A434A6090F82810490706D5D8
:104E200001684A68436B22F480221A434A6090F872
:104E30002810090706D501684A68836B22F40042EE
:104E40001A434A6090F82810C90606D501688A6896
:104E5000C36B22F480521A438A6090F828108906A6
:104E600006D501688A68036C22F400521A438A60EE
:104E700090F82810490611D501684A68436C22F45D
:104E800080121A434A60416CB1F5801F06D1016857
:104E90004A68836C22F4C0021A434A6090F82810D2
:104EA000090606D501684A68C06C22F40022024354
:104EB0004A6070472DE9F84304460025C4F8905035
:104EC000FDF712FC8046206800686FF07E474FF0C7
:104ED0002006000716D500224346310420460097DD
:104EE00000F0FFFA70B1206850E8001F21F0800147
:104EF00040E80012002AF6D1843466602570032051
:104F0000BDE8F88320680068400720D500224346AA
:104F10004FF480012046009700F0E3FAB8B1206812
:104F200050E8001F21F4907140E80012002AF6D1E9
:104F30002068083050E8001F21F0010140E800120D
:104F4000002AF5D18434A66025700320D8E76C349C
:104F5000E66126622560656025760020D0E70000C6
:104F600010B5016851E8002F22F4907241E8002347
:104F7000002BF6D10E4B0168083151E8002F1A4082
:104F800041E80024002CF6D1C16E012908D1016846
:104F900051E8002F22F0100241E80023002BF6D147
:104FA0002021C0F88C100021C166416710BD0000AF
:104FB000FEFFFFEF2DE9F04387B004460026DFF83F
:104FC000FC9320682269A168E369114362691A436E
:104FD00011430268FA4B1A400A4302602068416894
:104FE000E26821F4405111434160A06921684945BC
:104FF00001D0226A10438A68F24B1A4002438A6049
:105000002068C16A626A21F00F011143C162EE4A51
:105010002068EE4990421DD1096801F03801182935
:1050200012D005DC51B108290AD0102904D109E0B9
:1050300020290BD028290BD080212DE101212BE143
:10504000042129E1082127E1102125E1202123E184
:10505000402121E1DE4A904217D1096801F00701A1
:10506000062910D2DFE801F0030507090B0D002126
:1050700012E1042110E108210EE110210CE12021B0
:105080000AE1402108E1802106E1D24A904217D18D
:10509000096801F00701062910D2DFE801F00305D5
:1050A00007090B0D0021F7E00421F5E00821F3E0EA
:1050B0001021F1E02021EFE04021EDE08021EBE044
:1050C000C54A904217D1096801F00701062910D29C
:1050D000DFE801F0030507090B0D0021DCE00421E6
:1050E000DAE00821D8E01021D6E02021D4E04021E8
:1050F000D2E08021D0E0B94A904217D1096801F08E
:105100000701062910D2DFE801F0030507090B0D9E
:105110000021C1E00421BFE00821BDE01021BBE077
:105120002021B9E04021B7E08021B5E0AC4A9042AF
:105130001DD1096801F03801182912D005DC51B1E0
:1051400008290AD0102904D109E020290BD02829E8
:105150000BD08021A0E001219EE004219CE00821E9
:105160009AE0102198E0202196E0402194E09D4AA9
:10517000904217D1096801F00701062910D2DFE833
:1051800001F0030507090B0D002185E0042183E0F0
:10519000082181E010217FE020217DE040217BE09B
:1051A000802179E0904A904217D1096801F0070107
:1051B000062910D2DFE801F0030507090B0D0021D5
:1051C0006AE0042168E0082166E0102164E0202103
:1051D00062E0402160E080215EE0844A90421DD17F
:1051E000096801F03801182912D005DC51B10829ED
:1051F0000AD0102904D109E020290BD028290BD08E
:10520000802149E0012147E0042145E0082143E0F5
:10521000102141E020213FE040213DE0744A9042CE
:105220001DD1096801F03801182912D005DC51B1EF
:1052300008290AD0102904D109E020290BD02829F7
:105240000BD0802128E0012126E0042124E0082160
:1052500022E0102120E020211EE040211CE04845F2
:1052600019D15A49091D096801F00701062910D210
:10527000DFE801F0030507090B0D02210CE0042112
:105280000AE0082108E0102106E0202104E0402186
:1052900002E0802100E08021564D4C4A4FF4004C42
:1052A000554F4FF000082B11543A484556D110295C
:1052B0002BD006DC02291AD004291CD0082904D1DD
:1052C0001EE0202929D0402929D000250126EDB350
:1052D000606A37F81020B5FBF2F0676807EB47010A
:1052E000814202D8B0EB073F1BD90126EDE0FDF764
:1052F00023FB0546EBE704A8FDF730FB059DE6E739
:1053000001A8FDF70BFC029DE1E710688006DED5E1
:105310001068C0F3C100C540D9E71D46D7E7654610
:10532000D5E7002328461946FAF7ECFF09020202E6
:1053300041EA1061780810183A46002341EB080151
:10534000FAF7E0FF2D4AA0F5407100E058E09142E5
:1053500002D82168C860B8E00126B6E0E0694FF6DF
:10536000EF7960456DD1082958D005DC29B30129B2
:105370004BD0042906D14CE0102954D020295AD012
:1053800040295AD000250126D5B3606A37F81000AD
:10539000B5FBF0F04100606801EB5001B1FBF0F0AB
:1053A000A0F1100149454AD84FF6F0710140C0F311
:1053B000420001432068C16087E022E0000C0058F1
:1053C000F369FFCFFFF4FF1100100140544402586D
:1053D0000044004000480040004C004000500040A5
:1053E0000014014000780040007C0040001801409B
:1053F000001C01400090D003725B0008FFFC0F000E
:1054000061E0FDF7CBFD0546BEE7FDF7D9FD05469A
:10541000BAE704A8FDF7A2FA059DB5E701A8FDF7D4
:105420007DFB029DB0E710688006ADD51068C0F323
:10543000C100C540A8E71D46A6E76546A4E70126CA
:1054400043E008292ED005DCF9B1012921D0042937
:1054500006D122E010292AD0202930D0402930D08E
:10546000002501267DB3606A37F81000B5FBF0F126
:10547000606801EB5001B1FBF0F0A0F1100149456B
:1054800022D8216880B2C8601FE0FDF787FD05467D
:10549000E8E7FDF795FD0546E4E704A8FDF75EFAA9
:1054A000059DDFE701A8FDF739FB029DDAE71068EB
:1054B0008006D7D51068C0F3C100C540D2E71D46AD
:1054C000D0E76546CEE700E0012601206834608021
:1054D0002080C4F80C80C4F8108007B03046BDE8C6
:1054E000F0832DE9F04704460E4617469846089D7E
:1054F0004FF0000931E0681C2FD0FDF7F5F8A0EB64
:105500000800A84215D8A5B120680168490724D52C
:10551000C169C94309070ED42068082505622046E1
:10552000FFF71EFDC4F8905084F884900120BDE878
:10553000F0870320FBE7C069C04300050DD4216854
:105540004FF4006008622046FFF70AFD2020C4F8EF
:10555000900084F884900320E9E72068C06936EA67
:10556000000004D00020B842C5D00020DFE70120B1
:10557000F9E7000010B511480F4901604FF46121AF
:10558000416000218160C16001610C224261816142
:10559000C161016241628162FEF75CFB0748002144
:1055A000FEF732FB05480021FEF708FBBDE810407E
:1055B0000248FEF7E4BA000000100140200000207D
:1055C000FEE700000FB4054B10B503A9044A02988A
:1055D00000F028F810BC5DF814FB0000E558000846
:1055E000000000200907090E002804DB00F1E0207C
:1055F00080F80014704700F00F0000F1E02080F800
:10560000141D704702E008C8121F08C1002AFAD111
:1056100070477047002001E001C1121F002AFBD132
:10562000704700002DE9FF4F8DB09B460F460446A2
:10563000002606E025280BD05A460F999047641C97
:10564000761C20780028F5D111B03046BDE8F08FE7
:105650000025A8460122984900E0054314F8013FBF
:10566000203B02FA03F00842F7D120782E2817D108
:1056700014F8010F45F004052A280ED06FF02F0210
:105680002078A0F1300109290AD808EB880102EB43
:10569000410100EB0108641CF2E757F8048B641C1D
:1056A00020786C280DD004DC4C2812D06A2811D147
:1056B00004E074280DD07A280CD10AE045F40015D6
:1056C00007E0617845F48015814202D1641C05F53C
:1056D0008015641C2278692A45D008DC002AB3D0E2
:1056E000582A69D0632A10D0642A08D13BE0702A76
:1056F00067D0732A13D0752A5CD0782A5CD0104604
:105700005A460F999047761CD3E017F8040B8DF892
:10571000000000208DF80100E946012003E057F861
:10572000049B4FF0FF3069074FF0000501D40AE0F9
:105730006D1C45450DDA8542FADB19F80510002984
:10574000F6D106E06D1C8542FCDB19F80510002936
:10575000F8D12E4404E019F8010B5A460F999047EE
:105760006D1EF8D2A5E00A200021CDE90801C5F39D
:10577000025002280DD001CFC117031E71F10003A2
:105780000DDA4FF0000CD0EB0C006CEB01012D2377
:1057900008E0FF1D27F00707F7E80201EDE72B05FA
:1057A00004D52B238DF8283001233BE0EB0739D0BB
:1057B0002023F7E70A2000E010200021CDE90801AE
:1057C00007E01020002145F00405CDE908014FF065
:1057D0000808C5F3025002280FD001CF00214FF076
:1057E000000A2B071FD5702A0DD0DDE908C38CF005
:1057F000100C5CEA030C0CD015E0FF1D27F0070726
:10580000F7E80201EBE740228DF828204FF0010A6B
:105810000BE050EA010306D030238DF828308DF8D4
:10582000292002239A46582A04D024A20DF12009E7
:105830000B9209E026A2F9E7DDE90823FAF762FDF9
:105840000B9B9B5C09F8013D50EA0102F4D1ADEBE2
:10585000090020300890680701D44FF0010808992A
:10586000884502DDA8EB010000E00020804600250D
:1058700006E00AA85A46405D0F9990476D1C761CB9
:105880005545F6DB04E030205A460F999047761CC8
:10589000B8F10001A8F10108F5DC05E019F8010BE9
:1058A0005A460F999047761C0899481E089000297F
:1058B000F4DC641CC5E600000928010030313233F5
:1058C000343536373839616263646566000000003C
:1058D0003031323334353637383941424344454626
:1058E0000000000013B50448642301226946FEF756
:1058F00041FA00981CBD00002000002008B5FEF70A
:1059000019FE384F38684FF00005800311D4BFF3FB
:105910004F8FBFF36F8F34480560BFF34F8FBFF3D6
:105920006F8F386840F400303860BFF34F8FBFF39B
:105930006F8F3868C00324D42A4870300560BFF3E5
:105940004F8F001F0068C0F34E31274A43F6FF7C9B
:105950001032C0F3C90630460CEA411343EA8074A2
:105960001460401E441CF9D1491E481CF3D1BFF3FA
:105970004F8F386840F480303860BFF34F8FBFF3EB
:105980006F8FFCF7BFFEFFF761F9FEF7ADFDFFF784
:10599000F1FDFEF75BFBFAF783FD4FF010564FF475
:1059A000E1413046FEF77CFE104F4FF4E138387885
:1059B0000128FCD13D7031464446BFF34F8F0A4861
:1059C0000C3001602031203C002CFADCBFF34F8FFB
:1059D000BFF36F8FEF23009600211A460846FEF7AB
:1059E00059FAE4E714ED00E050EF00E00400002075
:1059F000FF00DA09D703E00005000000FF00DA101D
:105A0000E177D703E00005000000FF011280FF00EE
:105A10002CFF2EDFFF013C322C0C33783A333BFB5A
:105A20003E0043111610399235DA221A37C3361A5E
:105A30004C005B0042034A8121995C0063007C05B5
:105A40006C006D806E007002719473C120802830EC
:105A500037C03D386D002300068807C00D870E4112
:105A60001100090204281240144815003209038A63
:105A7000460024402538268234C0617062801711A8
:105A8000184319011A9713E50C3A4FBB509C5A233F
:105A9000FF00E57F412476FF33A0422043184C00ED
:105AA000D703D910883FC808C9807C007D007C03DB
:105AB0007D487D487C087D207D107D0E9000910EF4
:105AC000911A9131915A91699175917E9188918F36
:105AD000919691A391AF91C491D791E891209200B2
