:020000040800F2
:10000000180B0020A1030008FB3700087930000816
:10001000F9370008AD04000895460008000000000C
:10002000000000000000000000000000E1020008E5
:10003000C10A0008000000003D030008633E0008FC
:10004000BB030008BB030008BB030008BB03000898
:10005000BB030008BB030008BB030008BB03000888
:10006000BB030008BB030008BB030008BB03000878
:10007000BB030008BB030008BB030008BB03000868
:10008000BB030008BB030008BB030008BB03000858
:10009000BB030008BB030008BB030008BB03000848
:1000A000BB030008BB030008BB030008BB03000838
:1000B000BB030008BB030008BB030008BB03000828
:1000C000BB030008BB030008BB030008BB03000818
:1000D000BB030008BB030008BB030008BB03000808
:1000E000BB030008BB03000800000000BB030008BE
:1000F000BB030008BB030008BB030008BB030008E8
:10010000BB030008BB030008BB030008BB030008D7
:10011000BB030008BB030008BB030008BB030008C7
:10012000BB030008BB030008BB030008BB030008B7
:10013000BB030008BB030008BB030008BB030008A7
:1001400000000000000000000000000000000000AF
:10015000BB030008BB030008BB030008BB03000887
:10016000BB030008BB030008BB030008BB03000877
:10017000BB030008BB030008BB030008000000002D
:10018000BB030008BB030008BB030008BB03000857
:10019000BB030008BB030008BB030008BB03000847
:1001A000BB030008BB030008BB03000800000000FD
:1001B000BB030008BB030008BB030008BB03000827
:1001C000BB030008BB0300080000000000000000A3
:1001D0000000000000000000BB0300080000000059
:1001E000000000000000000000000000000000000F
:1001F0000000000000000000BB030008BB03000873
:10020000BB030008BB03000800000000BB0300089C
:10021000BB030008BB030008BB030008BB030008C6
:10022000BB03000800000000BB0300080000000042
:10023000BB030008BB03000800000000BB0300086C
:10024000BB030008BB030008BB030008BB03000896
:10025000BB030008BB030008BB030008BB03000886
:10026000BB030008BB030008BB030008BB03000876
:10027000BB030008BB030008BB030008000000002C
:10028000BB030008BB030008BB030008BB03000856
:1002900000000000BB030008BB03000800000000D2
:1002A00000000000BB030008BB030008BB030008FC
:1002B000BB030008BB030008BB030008BB03000826
:1002C000BB030008BB030008BB030008DFF80CD029
:1002D00000F0DAF800480047D1490008180B002068
:1002E0002C4B19680868B0E8F04F80F30988BFF319
:1002F0006F8F4FF0000080F31188704700000000FE
:1003000008480068006880F308884FF0000080F318
:10031000148862B661B6BFF34F8FBFF36F8F00DFF3
:1003200000BF00BF08ED00E0DFF80C00016841F4F9
:1003300070010160704700BF88ED00E0EFF30980B5
:10034000BFF36F8F134B1A681EF0100F08BF20ED1C
:10035000108A20E9F04F106009B44FF0500080F38C
:100360001188BFF34F8FBFF36F8F04F0D9FB4FF0AD
:10037000000080F3118809BC19680868B0E8F04FE4
:100380001EF0100F08BFB0EC108A80F30988BFF38D
:100390006F8F704720000020EFF30580704700004A
:1003A0000648804706480047FEE7FEE7FEE7FEE70F
:1003B000FEE7FEE7FEE7FEE7FEE7FEE7153F000883
:1003C000CD0200082DE9F05F0546002092469B46CD
:1003D00088460646814640241BE02846414647465B
:1003E000224600F041F853465A46C01A914110D3B4
:1003F00011461846224600F028F82D1A67EB01082E
:100400004F4622460120002100F01FF817EB00099B
:100410004E41201EA4F10104DFDC484631462A4645
:100420004346BDE8F09FD2B201E000F8012B491E1F
:10043000FBD270470022F6E710B513460A46044681
:100440001946FFF7F0FF204610BD202A04DB203AB2
:1004500000FA02F1002070479140C2F1200320FA17
:1004600003F3194390407047202A04DB203A21FA15
:1004700002F00021704721FA02F3D040C2F12002BD
:100480009140084319467047064C074D06E0E06866
:1004900040F0010394E8070098471034AC42F6D3CB
:1004A000FFF718FF504E0008704E0008FEE710B529
:1004B000806B816C496D022906D0012180F83510CE
:1004C000C16C41F04001C16400F02EFB10BD10B5BD
:1004D000816B0C468A6B886C0168CAB10A68A36B91
:1004E00002F40022DB0706D12AB1C968E26B01EBF6
:1004F000C201002207E00A68120319D40969E26BFD
:1005000001EBC201012200F08BFCA06B401E0EE04B
:100510000868000302D5606CC86009E00868000341
:1005200006D4E26B606C00EB82000861206CA06373
:10053000A06B216C88420BD12068C16841F0010199
:10054000C16020680068800702D5012084F835006A
:1005500010BD000070B503F07BFA03F02BF903F037
:100560007FF903F0F1F903F0DFF9B0F5195F014607
:1005700009D0A1F51850423805D00EA004F08CF82F
:100580004FF0FF3070BD12A004F086F8154803F05C
:1005900035F94FF496744FF4C8752146284603F098
:1005A000EFF9F02123462A46084603F037F90020E8
:1005B00070BD00004F5632363430204552524F52F3
:1005C0002121212121202049443A25580D0A0000EB
:1005D0004F5632363430204F4B2C49443A30782530
:1005E000580D0A00AE4C0008294A016891423AD0E1
:1005F000274A1832914236D0254A3032914232D0C1
:10060000234A483291422ED0214A603291422AD068
:100610001F4A7832914226D01D4A9032914222D010
:100620001B4AA83291421ED01A4A91421BD0194A45
:100630001832914217D0174A3032914213D0154ADE
:10064000483291420FD0134A603291420BD0114A86
:100650007832914207D00F4A9032914203D00D4A2E
:10066000A832914211D1CAB21823103AB2FBF3F268
:100670006FF30901032A02F00703074AD25CC2653F
:1006800000D9091D81650846704721F0FF01F9E78F
:1006900010000240100402400E4E000830B5224AFD
:1006A000012301689142CAB21BD01F4C1434A142ED
:1006B00017D01D4C2834A14213D01B4C3C34A1420E
:1006C0000FD0194C5034A1420BD0174C6434A142C6
:1006D00007D0154C7834A14203D0134C8C34A1427E
:1006E0000CD11421114C083AB2FBF1F10F4A8032BF
:1006F00001F01F0504EB8101AB4010E00C4D182404
:10070000103A0D44B2FBF4F1A82D00D80831094A83
:1007100001F01F0402EB8101064AA34080326030E1
:1007200080E80E0030BD00000854025800580258FE
:10073000F0FBFDBF0008024010B50279531E072BE5
:100740002DD8174C0168A1421BD0154C1434A1427E
:1007500017D0134C2834A14213D0114C3C34A14281
:100760000FD00F4C5034A1420BD00D4C6434A14239
:1007700007D00B4C7834A14203D0094C8C34A142F1
:1007800003D10849074C443102E00749064C443183
:1007900004EB8202C0E91B2101219940416710BD91
:1007A00008540258FC580258FC08024010B58369EE
:1007B0004FF0C074826A0146002053B1B3F5005F68
:1007C00015D072B1012A0CD0022A0AD0032A09D10D
:1007D00004E01AB1012A06D0022A03D1C96AC9016C
:1007E00000D5012010BDC96AA142FAD010BD002A6F
:1007F000F7D0012AF2D0022AF3D0032AF3D010BD99
:1008000030B5254D0468AC4238D0234D1835AC4284
:1008100034D0214D3035AC4230D01F4D4835AC423C
:100820002CD01D4D6035AC4228D01B4D7835AC42E4
:1008300024D0194D9035AC4220D0174DA835AC428C
:100840001CD0164DAC4219D0144D1835AC4215D001
:10085000124D3035AC4211D0104D4835AC420DD060
:100860000E4D6035AC4209D00C4D7835AC4205D008
:100870000A4D9035AC4201D0084DA83563608368BD
:10088000402B036803D099600068C26030BD9A6055
:100890000068C16030BD000010000240100402403A
:1008A0002DE9F04F804E804FDFF8FC911836DFF8CD
:1008B000F8A148370468856D0AF1300ADFF8ECB119
:1008C0004C45DFF8ECC1DFF8ECE16DD0B4426BD001
:1008D000544569D0BC4267D0DFF8D081A8F1180830
:1008E000444561D05C455FD064455DD074455BD0C4
:1008F000DFF8C481444557D0DFF8BC8108F11808FF
:10090000444551D0DFF8B08108F1300844454BD060
:10091000DFF8A48108F14808444545D0DFF8988104
:1009200008F1600844453FD0DFF88C8108F1780871
:10093000444539D0DFF8808108F19008444533D030
:10094000DFF8748108F1A80844452DD0DFF86C81E8
:10095000444529D0DFF8648108F11408444523D0C8
:10096000DFF8588108F1280844451DD0DFF84C8194
:1009700008F13C08444517D0DFF8408108F15008E1
:10098000444511D0DFF8348108F1640844450BD0A8
:10099000DFF8288108F17808444505D0DFF81C818C
:1009A00008F18C08444509D1D0E91948C4F80480FD
:1009B000C46E1CB1D0E91C48C4F8048004684C45DE
:1009C0002ED0B4422CD054452AD0BC4228D0374E29
:1009D000183EB44224D05C4522D0644520D07445F2
:1009E0001ED0354EB4421BD0334E1836B44217D009
:1009F000314E3036B44213D02F4E4836B4420FD069
:100A00002D4E6036B4420BD02B4E7836B44207D010
:100A1000294E9036B44203D0274EA836B44215D1A1
:100A200090F85C603F2406F01F06B440AC60046898
:100A3000256825F4802525602EE09A600068C16055
:100A4000BDE8F08F99600068C260F9E71B4EB442C0
:100A50001BD01A4E1436B44217D0184E2836B44262
:100A600013D0164E3C36B4420FD0144E5036B4421A
:100A70000BD0124E6436B44207D0104E7836B442D2
:100A800003D00E4E8C36B442DAD190F85C6001246B
:100A900006F01F06B4406C60046863608368402BF6
:100AA0000368CFD1C9E7000010000240880002406F
:100AB000A0000240B800024010040240085402584E
:100AC000704770B590F83440049D012C12D0012479
:100AD000022680F8356043EA0543056841EA024191
:100AE00000226B620368196280F8354080F8342078
:100AF000104670BD022070BD10B590F83410012969
:100B000010D0012180F83410022280F8352050F8EE
:100B1000342B0023146844F0040414604170037003
:100B2000184610BD022010BD10B500F011F8BDE848
:100B30001040014601A003F0AFBD00006572726F66
:100B4000723A3078257820B4EDCEF30D0A0000001B
:100B5000C06C70472DE9F041040003D094F83500D3
:100B600018B105E00120BDE8F081204600F040F812
:100B7000A16902204FF0000E84F8350009B1C4F8D5
:100B800024E02068194A016811400160D4E9045248
:100B9000E168D4E9010C29431043A269084354F8E1
:100BA000201B40EA0C001043B4E8E8100A68184320
:100BB00028433043384340EA0C001043086054F89F
:100BC000300C343C102805D12268E17FE06961F3E4
:100BD0001F60906120680121C26842F01E02C2605D
:100BE000C4F84CE084F835100020BCE707F0E0FFC3
:100BF000F0B587B0044614216846FFF71BFC454951
:100C0000206888427ED14448016841F001010160BA
:100C1000006800F0010005903F48001D016841F0A8
:100C200010010160016801F010010591016841F0B7
:100C300001010160016801F001010591016841F0C5
:100C400004010160016801F004010591016841F0AF
:100C500008010160016801F008010591016841F097
:100C600040010160016801F040010591016841F017
:100C7000200101600068022502AA694600F02000F8
:100C800005907020CDE900050024244803260D2797
:100C900082E8D00000F07EFE5020694602AACDE92D
:100CA00000051F4882E8D00000F074FEC0206946AD
:100CB00002AACDE900051B4882E8D00000F06AFED8
:100CC0000820694602AACDE90005174882E8D0004D
:100CD00000F060FE4FF46060694602AACDE90005AD
:100CE000124882E8D00000F055FE0122104E550354
:100CF0003046294600F061FF0121CDE90214CDE91B
:100D0000005100E003E06946304600F043FE07B0C2
:100D1000F0BD000000000248DC44025800100258F8
:100D20000000025800080258000C0258001802582F
:100D3000001402582DE9F843044690F834000128C5
:100D400033D0354802274FF0010884F8348000255D
:100D500084F8357026684FF4803C6345376847F463
:100D60008047376026684FF04009376827F0020750
:100D700037602668376847EA01073760A16CC863A7
:100D8000A66C2649F164A16C0D65A5632564E56335
:100D900065640DD22168A06C283100F09BFC80B303
:100DA000C4F84C9084F8358027E00220BDE8F88331
:100DB000A16C46464864C4F83880E363626405E089
:100DC000E06B4008E063A06B4000A063E06B60450F
:100DD000F6D2A06B801EA063A36BE16BE06B236473
:100DE000009002EB81032168A06C283100F060F8CC
:100DF00038B1C4F84C9084F83560012084F8345040
:100E0000D4E7FFE72068016841F00101016000209C
:100E100084F83450CAE70000CF040008AF0400088B
:100E20000068214B984238D01F4B1833984234D079
:100E30001D4B3033984230D01B4B483398422CD056
:100E4000194B6033984228D0174B7833984224D0FE
:100E5000154B9033984220D0134BA83398421CD0A6
:100E6000124B984219D0114B1833984215D00F4BA2
:100E70003033984211D00D4B483398420DD00B4B74
:100E80006033984209D0094B7833984205D0074B1C
:100E90009033984201D0054BA83312B10161002074
:100EA0007047C160FBE700001000024010040240E0
:100EB0002DE9FF4F81B081689646044600200E9AC6
:100EC0008029009012D094F83400012813D094F8AF
:100ED0003500012184F8341001280ED0C902012008
:100EE00000906165009805B0BDE8F08F4FF4807008
:100EF00060650120F7E70220F5E7FE4D0227206834
:100F0000002684F83570A842FB4D6665FB4EFC4F09
:100F1000DFF8F093DFF8F0A3DFF8F0B33FD0A8429A
:100F20003DD0B0423BD0B84239D0484537D050458B
:100F300035D0584533D0DFF8D4C30CF1180C6045D8
:100F40002DD0DFF8CCC3604529D0DFF8C4C30CF145
:100F5000180C604523D0DFF8B8C30CF1300C6045A5
:100F60001DD0DFF8ACC30CF1480C604517D0DFF89A
:100F7000A0C30CF1600C604511D0DFF894C30CF1F4
:100F8000780C60450BD0DFF888C30CF1900C6045FD
:100F900005D0DFF87CC30CF1A80C604510D1D0F867
:100FA00000C03F214CF4802CC0F800C020680361D1
:100FB00094F85C30A06D03F01F039940816010E04D
:100FC000D0F800C048F220084CEA080CC0F800C075
:100FD0002068036194F85C30A06D03F01F03994012
:100FE00041601346029972462046FFF709FCC94A40
:100FF000C84BDFF820E31432DFF8F882283320688A
:101000000EF13C0EC34940455FD0A8425DD0B042CE
:101010005BD0B84259D0484557D0504555D0584577
:1010200053D0DFF8E8C20CF1180C60454DD0DFF862
:10103000E0C2604549D0DFF8D8C20CF1180C604519
:1010400043D0DFF8CCC20CF1300C60453DD0DFF866
:10105000C0C20CF1480C604537D0DFF8B4C20CF1C7
:10106000600C604531D0DFF8A8C20CF1780C604507
:101070002BD0DFF89CC20CF1900C604525D0DFF836
:1010800090C20CF1A80C60451FD088421DD0904240
:101090001BD0984219D0704517D0DFF878C20CF1F8
:1010A000500C604511D0DFF86CC20CF1640C604547
:1010B0000BD0DFF860C20CF1780C604505D0DFF88A
:1010C00054C20CF18C0C604509D1D4E9190CC0F85C
:1010D00004C0E06E18B1D4E91C0CC0F804C0C446CA
:1010E000206860453FD0A8423DD0B0423BD0B842D6
:1010F00039D0484537D0504535D0584533D0DFF842
:101100000C8208F1180840452DD0DFF804824045D4
:1011100029D0DFF8FC8108F11808404523D0DFF81A
:10112000F08108F1300840451DD0DFF8E48108F176
:101130004808404517D0DFF8D88108F160084045DD
:1011400011D0DFF8CC8108F1780840450BD0DFF8EA
:10115000C08108F19008404505D0DFF8B48108F15E
:10116000A808404518D1D0F8008028F01E0848F0A3
:101170001608C0F800802068D0F8148048F0800875
:10118000C0F81480206C08B9A06CC0B12068D0F8F9
:10119000008048F0080810E0D0F8008028F00E0821
:1011A00048F00A08C0F80080206C08B9A06C30B183
:1011B0002068D0F8008048F00408C0F8008020685B
:1011C000E046404557D0A84255D0B04253D0B8422F
:1011D00051D048454FD050454DD058454BD0DFF801
:1011E0002CC10CF1180C604545D0DFF824C16045D6
:1011F00041D0DFF81CC10CF1180C60453BD0DFF882
:1012000010C10CF1300C604535D0DFF804C10CF191
:10121000480C60452FD0DFF8F8C00CF1600C604539
:1012200029D0DFF8ECC00CF1780C604523D0DFF852
:10123000E0C00CF1900C60451DD0DFF8D4C00CF17B
:10124000A80C604517D0884215D0904213D0984220
:1012500011D070450FD02F49503188420BD02D4905
:101260006431884207D02B497831884203D029491C
:101270008C3188420DD1206E0168C90303D5016805
:1012800041F480710160E06E18B1016841F4807131
:1012900001602068404528D0A84226D0B04224D022
:1012A000B84222D0484520D050451ED058451CD0C9
:1012B00016491831884218D01549884215D014496A
:1012C0001831884211D01249303188420DD010496E
:1012D0004831884209D00E496031884205D00C4916
:1012E0007831884201D00A499031016841F001010A
:1012F0000160F7E510000240280002404000024073
:10130000580002407000024088000240A0000240E5
:1013100010040240085402582DE9F05F044600F022
:1013200051FC002C07467DD0E24E022120684FF090
:101330000308DFF884934FF00005DFF880A3B04284
:10134000DFF87CB334D0DB4A1832904230D04845C5
:101350002ED050452CD058452AD0D94A1832904228
:1013600026D0D74A3032904222D0D54A48329042D5
:101370001ED0D44A90421BD0D24A1832904217D085
:10138000D04A3032904213D0CE4A483290420FD0E9
:10139000CC4A603290420BD0CA4A7832904207D091
:1013A000C84A9032904203D0C64AA83290427DD1BA
:1013B00084F83510B04284F834502ED0BD4918312D
:1013C00088422AD0484528D0504526D0584524D0B8
:1013D000BB491831884220D0B949303188421CD0ED
:1013E000B7494831884218D0B649884215D0B54926
:1013F0001831884211D0B349303188420DD0B149FB
:101400004831884209D0AF496031884205D0AD49A2
:101410007831884201D0AB499031016821F0010157
:10142000016008E025E100BF00F0CCFBC01B0528EF
:1014300001D920211AE120680068C007F4D1D4E95D
:1014400002032168103418438E4694E88410D4E9CE
:10145000033809683A4310439B4A40EA0C00676925
:1014600018431140103C40EA0800042F40EA0100F4
:1014700003D1D4E90B12114308436168A1F1290299
:10148000052A0BD9163A032A08D9083A012A05D9A0
:10149000083A032A02D97439032901D840F480108C
:1014A000CEF800002068676A406900E020E0042F61
:1014B00020F0070047EA00070DD1D4E90A010743ED
:1014C00049B12046FFF772F928B14020606501213B
:1014D00084F83510CDE0206847612046FFF784F896
:1014E00094F85C203F2102F01F029140816055E09A
:1014F000764A90421BD0754B1433984217D0734BE9
:101500002833984213D0714B3C3398420FD06F4B25
:10151000503398420BD06D4B6433984207D06B4BDD
:101520007833984203D0694B8C3398427ED184F84B
:10153000351084F83450664B0168A26801EA030E46
:10154000402A74D0802A73D05FF00002D4E9037877
:10155000D4E9053142EAD70242EAD8085B4AD4E925
:10156000077C48EAD30848EAD10141EAD701524250
:1015700041EA1C11142341EA0E0101602068104465
:10158000B0FBF3F08000E0652046FFF72DF894F8FB
:101590005C20012102F01F02914041602068B042AE
:1015A00057D044491831884253D0484551D050450E
:1015B0004FD058454DD042491831884249D0404912
:1015C0003031884245D03E494831884241D03D497A
:1015D00088423ED03B49183188423AD039493031AF
:1015E000884236D037494831884232D03549603157
:1015F00088422ED03349783188422AD031499031FF
:10160000884226D02F49A831884222D02F498842CB
:101610001FD02E49143188421BD02C4928318842D2
:1016200017D02A493C31884213D002E01DE017E070
:1016300018E02649503188420BD024496431884251
:1016400007D022497831884203D020498C31884222
:1016500029D12046FFF722F8A06880280CD00CE0A2
:10166000102273E74FF4804270E74021616584F8EF
:1016700035800120BDE8F09F6560216E207908600B
:10168000D4E9190141606068401E072808D8204647
:10169000FFF752F8E06E0560D4E91C01416002E0FA
:1016A000E566256765670120656584F835000020DB
:1016B000E0E70000100002404000024058000240F5
:1016C00070000240100402403F8010FE085402588F
:1016D0000F00FEFF2DE9F84F04008C464FF000008C
:1016E000009014D094F83400012812D094F83550AA
:1016F0000120002184F83400012D0CD0C002606567
:101700000120009084F834100098BDE8F88F012083
:10171000FBE70220F9E78C4D0226206884F835604B
:10172000A8428A4D61658A4E8A4FDFF82C82DFF825
:101730002C92DFF82CA2DFF82CB226D0A84224D0BD
:10174000B04222D0B84220D040451ED048451CD0DF
:1017500050451AD0584518D08349884215D082493F
:101760001831884211D08049303188420DD07E49ED
:101770004831884209D07C496031884205D07A4995
:101780007831884201D078499031016821F0010117
:10179000016061462046FFF783F86B492068884264
:1017A0002CD0A8422AD0B04228D0B84226D04045FA
:1017B00024D0484522D0504520D058451ED06A4AF2
:1017C00090421BD0684A1832904217D0664A303295
:1017D000904213D0644A483290420FD0624A60323D
:1017E00090420BD0604A7832904207D05E4A9032E5
:1017F000904203D05C4AA83290420CD1026822F099
:101800001E0242F016020260206C88B12068026855
:1018100042F008020BE0026822F00E0242F00A02D7
:101820000260206C20B12068026842F0040202606D
:10183000206888424BD0A84249D0B04247D0B84235
:1018400045D0404543D0484541D050453FD058450C
:101850003DD0454A90423AD0434A1832904236D061
:10186000414A3032904232D03F4A483290422ED0E4
:101870003D4A603290422AD03B4A7832904226D08C
:10188000394A9032904222D0374AA83290421ED034
:10189000364A90421BD0354A1432904217D0334A10
:1018A0002832904213D0314A3C3290420FD02F4A16
:1018B000503290420BD02D4A6432904207D02B4ACE
:1018C0007832904203D0294A8C3290420DD1206E5A
:1018D0000268D20303D5026842F480720260E06EAF
:1018E00018B1026842F4807202602068884226D0F3
:1018F000A84224D0B04222D0B84220D040451ED0C9
:1019000048451CD050451AD0584518D01649884231
:1019100015D015491831884211D013493031884209
:101920000DD011494831884209D00F4960318842B1
:1019300005D00D497831884201D00B4990310168BA
:1019400041F001010160DFE6100002402800024082
:1019500040000240580002407000024088000240EF
:10196000A0000240B800024010040240085402588F
:1019700070B5044600F026F90546601C02D0044804
:101980000078044400F01EF9401BA042FAD370BD59
:101990000C0000202DE9F84F03247A4D00234FF06E
:1019A00001094FF0B04B4FF00F0AE4E009FA03F6DB
:1019B000324078D00F7907F00307012F01D0022FB2
:1019C0001AD187684FEA430ED1F80CC004FA0EF81A
:1019D00027EA08070CFA0EFC4CEA070CC0F808C00E
:1019E000476891F804C0B743CCF3001C0CFA03FC21
:1019F0004CEA070CC0F804C00E79F643B6070BD0CA
:101A0000C6684FEA43088F6804FA08FC26EA0C0609
:101A100007FA08F73743C7600E7906F00306022E6F
:101A200012D1DE080F694FEA437C00EB8606B6460A
:101A3000366A4FEADC6C0AFA0CF807FA0CF726EA69
:101A400008063743CEF820700F7906684FEA43083E
:101A500007F0030704FA08FC07FA08F726EA0C0661
:101A6000374307604E6816F4403F1CD0464E376837
:101A700047F00207376036689F0706F002060096B7
:101A800023F0030606F1B046B6463F0FD6F80864C9
:101A9000DFF8F8800AFA07FC404526EA0C0603D175
:101AA0004FF0000C3AE065E0DFF8E4C0604502D199
:101AB0004FF0010C32E0DFF8DCC0604502D14FF09E
:101AC000020C2BE0DFF8D0C0604502D14FF0030CD0
:101AD00024E0DFF8C8C0604502D14FF0040C1DE0DF
:101AE000DFF8BCC0604502D14FF0050C16E0DFF80E
:101AF000B4C0604502D14FF0060C0FE0DFF8A8C07B
:101B0000604502D14FF0070C08E0DFF8A0C0604547
:101B100002D14FF0090C01E04FF00A0C0CFA07FC5F
:101B20004CEA060CCEF808C44F68DBF80060FF02F0
:101B300026EA020600D516435F46CBF80060D1F8CE
:101B400004C0DBF804605FEA8C2C26EA020600D5AC
:101B500016437E606E684F6826EA0206BF0300D512
:101B600016436E602E684F6826EA0206FF0300D512
:101B700016432E605B1C0A6832FA03F67FF416AF38
:101B8000BDE8F88F80000058F44402580000025865
:101B90000004025800080258000C025800100258B5
:101BA0000014025800180258001C02580024025861
:101BB0000069084000D0012070470AB18161704778
:101BC0000904FBE701488068704700000C00002012
:101BD0000248816802781144816070470C0000203F
:101BE000032010B500F0D4F800F0D8FB0F4A1049DC
:101BF00014681368C4F3032203F00F038A5CC95C02
:101C000002F01F0201F01F01D0400A4A20FA01F140
:101C10001160094908600F2000F010F808B1012098
:101C200010BD00F079F8002010BD000018440258E3
:101C30003E4E00081C0000201800002070B50D4D1D
:101C400004462878A0B14FF47A71B1FBF0F00A494C
:101C50000968B1FBF0F001F0C0F848B9102C07D2C8
:101C600000222146501E00F073F800206C6070BD09
:101C7000012070BD0C00002018000020F0B5154CAC
:101C80004378211D0A1D23600378F3B143680B607C
:101C9000057BC67A817A437B2D07847B45EA0665FE
:101CA000C77B90F809C0067A90F800E045EAC14089
:101CB00040EA834040EA444040EA074040EA0C20C2
:101CC00040EA460040EA0E0001E000200860106093
:101CD000F0BD000098ED00E0BFF35F8F04480021E5
:101CE0000368034A23F48033036070321160704745
:101CF00024ED00E0074A40F0010006497032106010
:101D0000086840F480300860BFF34F8FBFF36F8FD7
:101D10007047000024ED00E0054808B5016841F077
:101D200002010160006800F00200009008BD0000A0
:101D3000F4440258002809DB410900F01F02890021
:101D4000012001F1E0219040C1F80001704700003E
:101D50000E4BF0B41B680D46C3F30223C3F1070614
:101D6000042E00D90426191D072901D2002300E002
:101D7000DB1E012404FA06F19C40491E2940641E22
:101D8000994014402143F0BC02F096BC0CED00E0F9
:101D9000064900F0070210B54FF6FF040868044B2F
:101DA000204040EA02201843086010BD0CED00E01E
:101DB0000000FA05134970B50A68D243520705D5E9
:101DC000096801F00701814213D118E00A6822F086
:101DD000070202430A60FFF7F5FE0A4D4FF47A76D8
:101DE0000446083D07E000BFFFF7ECFE001BB042D1
:101DF00001D9012070BD2868C0438004F4D40020BC
:101E000070BD00000C48025810B500F081FA054979
:101E10000968054AC1F30211515C01F01F01C84075
:101E200010BD0000204402583E4E0008494930B51C
:101E3000484C0B1D0A68143409681D68246802F0B8
:101E40000303C5F30012C1F30531C4F3CC04002928
:101E500014FB02F200EE102AF8EE400A75D03F4A59
:101E60009FED3D1AB7EE000A6BB1DFED3D1A012B75
:101E700001D0022B64D002EE101A1168F8EE422A4B
:101E800081EEA22A21E0334C283C23689B0612D520
:101E9000344B246801EE901A1168C4F3C104F8EEC3
:101EA000612AE34001EE903AC1F30801F8EE611AAD
:101EB00081EEA22A0BE001EE901ADFED2B2A00BF83
:101EC000F8EE611A116882EEA12AC1F3080101EE51
:101ED000901A1168F8EE611A40EE811A71EE800ACC
:101EE00062EE200AC1F3462101EE101AB8EE411A43
:101EF00031EE001AC0EE811ABCEEE11A80ED001A34
:101F00001168C1F3064101EE101AB8EE411A31EE24
:101F1000001AC0EE811ABCEEE11A80ED011A1168B8
:101F2000C1F3066101EE101AB8EE411A31EE000A53
:101F300080EE801ABCEEC10A80ED020A30BD04E0DA
:101F400001EE901ADFED092ABAE700210160416035
:101F50008160F3E7284402580000003938440258F1
:101F60000024744A0090D0030024744C20BCBE4B63
:101F7000494930B5484C0B1D0A681C3409681D6876
:101F8000246802F00303C5F30022C1F30551C4F332
:101F9000CC04002914FB02F200EE102AF8EE400AED
:101FA00075D03F4A9FED3D1AB7EE000A6BB1DFEDE9
:101FB0003D1A012B01D0022B64D002EE101A1168D9
:101FC000F8EE422A81EEA22A21E0334C283C236815
:101FD0009B0612D5344B246801EE901A1168C4F3A5
:101FE000C104F8EE612AE34001EE903AC1F3080122
:101FF000F8EE611A81EEA22A0BE001EE901ADFEDF5
:102000002B2A00BFF8EE611A116882EEA12AC1F3F3
:10201000080101EE901A1168F8EE611A40EE811A7B
:1020200071EE800A62EE200AC1F3462101EE101A19
:10203000B8EE411A31EE001AC0EE811ABCEEE11A78
:1020400080ED001A1168C1F3064101EE101AB8EED6
:10205000411A31EE001AC0EE811ABCEEE11A80ED91
:10206000011A1168C1F3066101EE101AB8EE411AA7
:1020700031EE000A80EE801ABCEEC10A80ED020A41
:1020800030BD04E001EE901ADFED092ABAE7002125
:10209000016041608160F3E7284402580000003984
:1020A000404402580024744A0090D0030024744C29
:1020B00020BCBE4B2DE9F05F04000F467ED0DFF858
:1020C0003882D8F8000000F00F00B8420CD2D8F8DF
:1020D000001021F00F013943C8F80010D8F80000B3
:1020E00000F00F00B84269D12078844D40070AD52E
:1020F0002069296801F07001884204D9296821F01B
:1021000070010143296020787C4E361D00070AD5F6
:102110006069316801F07001884204D9316821F0AA
:102120007001014331602078C0060AD5A06931688A
:1021300001F4E061884204D9316821F4E06101438F
:1021400031602078DFF8B4B180060BF1080B0CD5B4
:10215000E1695846DBF8002002F07002914204D990
:10216000026822F070020A430260207880070AD5D4
:10217000E068296801F00F01884204D9296821F03C
:102180000F01014329602078C0073ED05B49A26857
:102190002868183920F470601043286060680228AD
:1021A00018D0032819D00968012819D04907002937
:1021B0004ADADFF848A1AAF1080A00E044E0DAF8B8
:1021C000002022F007020243CAF80020FFF7FAFCC1
:1021D000814612E009688903E9E709688901E6E7B1
:1021E000C905E4E7FFF7EEFCA0EB090141F28830F6
:1021F000814202D90320BDE8F09F6168DAF800004F
:1022000000F03800B0EBC10FECD1207880070AD580
:10221000E068296801F00F01884204D2296821F0A2
:102220000F0101432960D8F80010404601F00F016A
:10223000B9420BD9016821F00F01394301600068F0
:1022400000F00F00B84201D00120D4E72078400709
:102250000AD52069296801F07001884204D22968F2
:1022600021F0700101432960207800070AD56069D8
:10227000316801F07001884204D2316821F07001A8
:10228000014331602078C0060AD5A069316801F4A5
:10229000E061884204D2316821F4E0610143316099
:1022A000207880060CD5E1695846DBF8002002F062
:1022B0007002914204D2026822F070020A43026066
:1022C00000F06CF80E492A682B68C2F3032203F071
:1022D0000F038A5CC95C02F01F0201F01F01D040AD
:1022E000084A20FA01F111600749086007480068B0
:1022F000BDE8F05FFFF7A2BC00200052184402586E
:102300003E4E00081C000020180000201000002095
:1023100030B500F043F80B4A0B490C4B15681468B4
:10232000C5F3032204F00F048A5C095D02F01F026A
:1023300001F01F01D040064A20FA01F11960106037
:10234000084630BD184402583E4E00081C000020CC
:102350001800002000B5FFF7DBFF05490968054AB2
:10236000C1F30211515C01F01F01C84000BD000023
:102370001C4402583E4E000800B5FFF7C9FF05494E
:102380000968054AC1F30221515C01F01F01C840F0
:1023900000BD00001C4402583E4E0008454970B57F
:1023A00045480968434B103B11F0380208D0011131
:1023B000082A03D0102A0BD0182A0BD0084670BD6B
:1023C00019688906FBD51968C1F3C101C84070BD01
:1023D0003A4870BD3749374D18310C1D24350A680D
:1023E000096826682D6802F0030406F00102C1F3B3
:1023F0000511C5F3CC0515FB02F200EE102AB8EE6C
:10240000400AE9B32F4ADFED2E0AB7EE001A6CB18D
:10241000DFED2D1A012C01D0022C43D002EE101A50
:102420001068F8EE422A81EEA22A1EE01C68A4067B
:1024300011D51B6801EE901A1168C3F3C103F8EEC1
:10244000612AD84001EE900AC1F30800F8EE611A43
:1024500081EEA22A0BE001EE901ADFED1C2A00BFEC
:10246000F8EE611A106882EEA12AC0F3080001EEAE
:10247000900AF8EE611A40EE201A31EE810A00E06F
:1024800015E022EE000A1068C0F34620401C00EE62
:10249000900AF8EE600A80EE201ABCEEC10A10EE37
:1024A000100A70BD01EE901ADFED092AD8E700206E
:1024B00070BD0000104402580090D00340787D01A8
:1024C00000000039304402580024744A0024744C3F
:1024D00020BCBE4B2DE9F05F04007DD0FF4F20787B
:1024E000FE4D1837DFF8F483103DC00748D0D8F808
:1024F0000000396800F03800102815D0182803D1E2
:1025000001F0030002280FD06068B0F5803F12D0C0
:1025100010B1B0F5A02F18D0286820F480302860C2
:10252000286820F4802009E02868800328D56068A6
:102530000028D2D024E0286840F480302860606809
:1025400088B1FFF73FFB064609E0286840F4802089
:102550002860F0E7FFF736FB801B64287ED82868E8
:102560008003F7D50CE0FFF72DFB064605E000BF22
:10257000FFF728FB801B6428F0D828688003F7D475
:102580002078800756D5D8F80000DFF850933968D6
:1025900010F03800A9F10C090ED0182801D18807D5
:1025A0000AD0E068A8B3296821F019010143296025
:1025B000FFF708FB064628E02868400702D5E068D8
:1025C00000288AD0E168286820F0190008432860B4
:1025D000FFF7F8FA064606E0D2E000BFFFF7F2FA8E
:1025E000801B0228BAD828684007F7D5217CD9F883
:1025F000002022F0FE4242EA0161C9F8001019E011
:10260000FFF7E0FA801B0228A8D828684007F7D512
:10261000ECE7FFE7286820F001002860FFF7D2FA16
:10262000064604E0FFF7CEFA801B022896D82868F9
:102630004007F7D42078C00646D5D8F80000DFF868
:102640009C92396800F03800A9F10409082812D0DA
:10265000182805D101F00300012800E0CEE00AD0DF
:10266000E0690028286820D040F080002860FFF74B
:10267000A9FA064615E02868C00502D5E069802859
:102680007ED194F82010D9F8002022F07C5242EA42
:102690000161C9F8001017E0FFF794FA801B0228C7
:1026A000A0D82868C005F7D5EBE720F080002860A7
:1026B000FFF788FA064604E0FFF784FA801B022839
:1026C00090D82868C005F7D42078000729D583481A
:1026D0006169643000298146016811D041F001012F
:1026E0000160FFF76FFA064605E000BFFFF76AFAE0
:1026F000801B022888D8D9F800008007F6D510E0A2
:1027000021F001010160FFF75DFA064605E000BF18
:10271000FFF758FA801B022870D8D9F8000080070C
:10272000F6D42078800623D5A0690028286810D028
:1027300040F480502860FFF745FA064605E000BFE8
:10274000FFF740FA801B022858D828688004F7D584
:102750000EE020F480502860FFF734FA064604E0CB
:10276000FFF730FA801B022848D828688004F7D485
:102770002078400751D5DFF86891D9F8001000E0C3
:1027800015E141F48071C9F80010FFF71BFA064605
:1027900005E000BFFFF716FA801B64282ED8D9F891
:1027A0000000C005F6D54D4EA068603601280AD05D
:1027B00008B1052813D0306820F00100306030687F
:1027C00020F0040002E0306840F001003060A068B2
:1027D00041F2883A98B1FFF7F5F981460AE030688E
:1027E00040F004003060EEE7FFF7ECF9A0EB0901E0
:1027F000514503D830688007F6D50EE072E0FFF748
:10280000E1F9814606E000BFFFF7DCF9A0EB090122
:10281000514567D830688007F6D4606A00287CD0BC
:10282000DFF8B8A0D8F800100AF1200A4FF6F87BBC
:102830000AF10408C1F3C2010329AAF104096DD009
:102840000228286820F08070286003D0FFF7BAF9CA
:10285000044681E0FFF7B6F9064604E0FFF7B2F957
:10286000801B022875D828688001F7D4E26A40F2FC
:10287000F331386854F8283F884340EA021018437F
:102880003860217B4FF4FE0C22894FF0FE47208AEE
:102890004902267D521E401EA1F5007189B2C2F385
:1028A00008021143761E0CEA00400143484607EA3D
:1028B00006621143CAF80010D9F8001021F0010196
:1028C000C9F80010D8F80030266A23EA0B0343EA5F
:1028D000C601C8F80010D9F8001004E010440258EE
:1028E0000048025835E0A26921F00C011143C9F8F3
:1028F00000100168E26921F00201114301600168E2
:1029000041F480310160016841F4003101600168E7
:1029100041F480210160016801E06CE020E041F0B9
:1029200001010160286840F080702860FFF74AF9D3
:10293000044604E0FFF746F9001B022809D828687E
:102940008001F7D557E000BFFFF73CF9001B0228D4
:1029500002D90320BDE8F09F28688001F4D44AE042
:1029600039680128DAF8000021D0A26A01F00303D7
:1029700093421CD1E26AC1F305118A4217D1216B3F
:10298000C0F30802491E8A4211D1616BC0F346228E
:10299000491E91420BD1A16BC0F30642491E9142E0
:1029A00005D1E16BC0F30660491E814201D00120D0
:1029B000D0E7A16C4646D8F80000C0F3CC008142B5
:1029C00019D0D9F800004D4620F00100C9F80000E8
:1029D000FFF7F8F84FEA0007FFF7F4F8B842FBD02A
:1029E000A26C306820EA0B0040EAC2003060286820
:1029F00040F0010028600020ACE700002DE9F0471E
:102A0000040029D0594A4FF000092068584B594D0D
:102A10009042C4F8289006D0984204D0A84202D030
:102A2000E1680F2918D8E1684FF0010AE76B083117
:102A3000C9080AEB57167143904205D0984203D05B
:102A4000A84201D0082907D8904203D0984201D06B
:102A5000A84204D1102902D90120BDE8F08794F8DA
:102A6000810020B9204684F8809000F085F802208B
:102A700084F881002068016821F00101016020686C
:102A8000A1698268B1F1806F02F4F81110D1626817
:102A9000B2F5800F01D01AB10AE0A26B22B107E0B3
:102AA000A26BB2F1805F03D1026842F480520260EF
:102AB0006068400209D5E068072806D32068236DC6
:102AC000026822F480721A4303E02068026822F44C
:102AD00080720260A66AE069E26B25683043E368B1
:102AE0000A4310431843A860D4E90D02D4E90581D4
:102AF000636A25691843D4F820C00A432668104346
:102B00002843A56DD4E90172D4E9123140EA0800E6
:102B100040EA0C0038430843104318432843F06050
:102B2000606868B92068816821F4C05141F400618F
:102B300081602068816821F4C06141F48061816016
:102B40002068016D21F0010101656068400206D531
:102B50002068626DC16821F000411143C160C4F872
:102B6000849084F881A0002077E7000000300140C5
:102B700000380040003C004070472DE9F84F8A467D
:102B800090F8801099461746012904464FF0000B33
:102B90000DD04FF0010884F88080FFF713F8064647
:102BA00094F881000025012804D0022034E002209E
:102BB000BDE8F88FBAF1000F2DD067B3A1680320EC
:102BC000C4F85CA0A4F8607084F88100C4F8845054
:102BD000A4F862706566A4F86850A4F86A50B1F56C
:102BE000C02F65672567206819D0C16821F4C0210E
:102BF00041F40031C160206841686FF30F0139432F
:102C000041602068016841F0010101606068B0F531
:102C1000800F09D00DE0012084F88050C8E70168DA
:102C200041F400610160E6E72068016841F4007149
:102C30000160E0680F281CD82EE0206841698907F0
:102C40000BD5E16D09680162E06D001DE065B4F827
:102C50006200401EA4F862000BE0FEF7B3FF811B88
:102C6000494503D3B9F1FF3F03D007E0B9F1000FA5
:102C700004D0B4F862000028DFD183E0204601F0E0
:102C80006FF8D4F8841084F8805041F48071C4F84F
:102C9000841084F881809CE007282CD86EE020689E
:102CA000416989071BD5B4F8621001290BD9E16B82
:102CB00049B1E16D09680162E06D001DE065B4F89D
:102CC0006200801E08E0E16D09880184E06D801CCF
:102CD000E065B4F86200401EA4F862000BE0FEF765
:102CE00071FF811B494503D3B9F1FF3F03D0C5E70D
:102CF000B9F1000FC2D0B4F862000028CFD141E092
:102D00002068416989072DD5B4F8621003290CD9D0
:102D1000E16B402909D9E16D09680162E06D001D90
:102D2000E065B4F86200001F19E0B4F862100129F0
:102D30000BD9E16B49B1E16D09880184E06D801C1C
:102D4000E065B4F86200801E09E0E16D097880F862
:102D50002010E06D401CE065B4F86200401EA4F84D
:102D600062000BE0FEF72EFF811B494503D3B9F14A
:102D7000FF3F03D020E0B9F1000F1DD0B4F862008E
:102D80000028BDD100224B4608212046009601F0C4
:102D900045F828B1D4F8840040F02000C4F884003D
:102DA000204600F0DDFF84F88180D4F8840084F8A8
:102DB000805080B10120FBE6204600F0D1FFD4F81E
:102DC000840084F8805040F48070C4F8840084F853
:102DD00081800320ECE65846EAE6401EB0F1807F91
:102DE00010B501D3012010BD4FF0E02460610F2128
:102DF000601701F061FC0020A0610721216110BD76
:102E000030B590F88410012918D0012280F8842070
:102E10002421C0F888100022202401680B680D6866
:102E200023F0005325F001050D60426601680B6038
:102E3000C0F8884080F88420104630BD022030BDA4
:102E400070B5044690F8840001281DD0012284F852
:102E500084202420C4F8880020680568026822F0D5
:102E6000010202602068826822F060620A43826088
:102E7000204601F0AFF82268202100201560C4F838
:102E8000881084F8840070BD022070BD70B50446BF
:102E900090F8840001281DD0012284F88420242089
:102EA000C4F8880020680568026822F00102026008
:102EB0002068826822F060420A438260204601F066
:102EC00089F82268202100201560C4F8881084F851
:102ED000840070BD022070BD10B5040003D0D4F88A
:102EE000880010B107E0012010BD002084F88400A4
:102EF000204600F027F82420C4F8880020680168E4
:102F000021F001010160204601F06AF90128EBD0AF
:102F1000A06A10B1204601F07FF82068416821F4D2
:102F2000904141602068816821F02A018160206819
:102F3000016841F0010101602046BDE8104001F048
:102F4000CFB8000010B586B0044614216846FDF7DE
:102F500071FA1A49206888422ED11948016841F057
:102F600010010160006800F010000590144810384E
:102F7000016841F001010160016801F00101059162
:102F8000016841F00101016000680221012200F0A6
:102F900001000590032307244FF400708DE81F0003
:102FA000084C69462046FEF7F5FC4FF48060694600
:102FB00000902046FEF7EEFC06B010BD0010014068
:102FC000F0440258000002582DE9F8430446D0F8B6
:102FD0008800984616460D46202802D00220BDE8FB
:102FE000F883A5B19EB10021C4F890102120C4F847
:102FF00088001834FEF7E6FD814654F8100CA687C9
:10300000E6872027183CB0F5805F02D003E001205E
:10301000E5E7206910B12E46002510E000260EE0FD
:103020008021204601F0CAFAC0B9DEB116F8010BC2
:1030300021688862B4F85600401EA4F85600B4F81F
:1030400056004B464FF00002CDF800800028E7D133
:103050004FF04001204601F0B1FA48B1C4F8887041
:103060000320BCE735F8020B2168C0F30800E0E755
:10307000C4F888700020B2E7FEE700001649F8B5F2
:103080000C88030A498822468DF80030521E8DF8BC
:1030900001004C43491E8BB2002192B2084600F059
:1030A000A1FA0E4E002201213046FEF786FD0122D4
:1030B00030460221FEF781FD002504E0022168462A
:1030C00000F086FA6D1CA542F8D301223046114665
:1030D000FEF773FDF8BD0000B8010020000C025897
:1030E0002DE9F04F81468846A2EB09061C46A3EB6A
:1030F00008001746401C761CADF5017D46430025AF
:103100003D48DDF828B201212A46FEF756FD3A482F
:1031100000220221FEF751FDDFF8E0A09AF80A0034
:1031200000F04AFA344801220221FEF746FD4FEA38
:10313000192000F041FA09F0FF0000F03DFA380ACA
:1031400000F03AFAF8B200F037FA2B4800220221D8
:10315000FEF733FD9AF80C0000F02EFA2648012203
:103160000221FEF72AFD4FEA182000F025FA08F0A8
:10317000FF0000F021FA200A00F01EFAE0B200F091
:103180001BFA1D4800220221FEF717FD9AF80800DD
:1031900000F012FA184801220221FEF70EFD4FF44A
:1031A00080781DE0741B4FF0000044450BD9444665
:1031B0006A462B183BF8131002EB40030F0A0DF878
:1031C0001070401C5970A042F2D34FF6FF704FF0C0
:1031D000FF3300EA44020A486946FFF7CEFC254463
:1031E000B542DFD3012204481146FEF7E6FC0DF597
:1031F000017DBDE8F08F0000000C0258B8010020EE
:10320000C801002030B587B014216846FDF712F9D7
:103210001E48016841F008010160016801F00801E1
:103220000591016841F00201016000680124032159
:10323000174D00F0020005900720CDE90004CDE90C
:10324000024169462846FEF7A5FB00211020CDE982
:103250000004CDE902410F4C69462046FEF79AFB77
:10326000012228461146FEF7A8FC01222846022129
:10327000FEF7A3FC012228460421FEF79EFC002253
:1032800020461021FEF799FC07B030BDE0440258FB
:10329000000C02580004025810B500F039F9FFF78D
:1032A000B1FF994C002204212046FEF786FC6420E1
:1032B000FEF75EFB012220460421FEF77EFC322051
:1032C000FEF756FBCF2000F0D5F9002000F0B8F94A
:1032D000C92000F0B5F9302000F0B2F9ED2000F07F
:1032E000C9F9642000F0ACF9032000F0A9F912201C
:1032F00000F0A6F9812000F0A3F9E82000F0BAF967
:10330000852000F09DF9102000F09AF97A2000F055
:1033100097F9CB2000F0AEF9392000F091F92C207C
:1033200000F08EF9002000F08BF9342000F088F9CD
:10333000022000F085F9F72000F09CF9202000F031
:103340007FF9EA2000F096F9002000F079F90020DA
:1033500000F076F9C02000F08DF91B2000F070F924
:10336000C12000F087F9002000F06AF9C52000F0C4
:1033700081F9302000F064F9302000F061F9C720B5
:1033800000F078F9B72000F05BF9362000F072F910
:10339000082000F055F93A2000F06CF9552000F0B3
:1033A0004FF9B12000F066F9002000F049F91A2029
:1033B00000F046F9B62000F05DF90A2000F040F96F
:1033C000A22000F03DF9F22000F054F9002000F0B6
:1033D00037F9262000F04EF9012000F031F9E02005
:1033E00000F048F90F2000F02BF92A2000F028F90E
:1033F000282000F025F9082000F022F90E2000F026
:103400001FF9082000F01CF9542000F019F9A92038
:1034100000F016F9432000F013F90A2000F010F92B
:103420000F2000F00DF9002000F00AF9002000F054
:1034300007F9002000F004F9002000F001F9E12074
:1034400000F018F9002000F0FBF8152000F0F8F863
:10345000172000F0F5F8072000F0F2F8112000F036
:10346000EFF8062000F0ECF82B2000F0E9F85620E9
:1034700000F0E6F83C2000F0E3F8052000F0E0F86A
:10348000102000F0DDF80F2000F0DAF83F2000F007
:10349000D7F83F2000F0D4F80F2000F0D1F82B200F
:1034A00000F0E8F8002000F0CBF8002000F0C8F8A9
:1034B000012000F0C5F83F2000F0C2F82A2000F0FB
:1034C000D9F8002000F0BCF8002000F0B9F8002086
:1034D00000F0B6F8EF2000F0B3F8112000F0CAF8C1
:1034E0007820FEF745FA292000F0C4F8002000F00B
:1034F000EBF8064801221021FEF75FFBBDE8104003
:103500004FF6FF70FFF7BABD000C025800040258D6
:10351000254870B586B0016841F4805101600068AB
:1035200000F48050059020481038016841F00201F5
:1035300001600068142100F0020005906846FCF765
:1035400079FF00242820022105238DE8130003229F
:103550001648CDE903236946FEF71CFA15484FF4D7
:103560008006134B07217211036055024660130356
:103570000461C0E90221C0E90545C0E9073444629D
:103580000A04C0E90A41C0E90C248463C907C46382
:103590008464C4640465C0E91514FFF72FFA002899
:1035A00000D0FEE706B070BDF04402580004025897
:1035B00000300140C801002001B5044801224FF04D
:1035C000FF336946FFF7D9FA08BD0000C8010020A3
:1035D0000A464FF0FF3301460148FFF7CEBA00001C
:1035E000C80100202DE9F041DFF850801C46154647
:1035F0000E46074698F80A0000F03CF8380A00F03A
:103600001FF8F8B200F01CF8280A00F019F8E8B228
:1036100000F016F898F80C0000F02CF8300A00F0D2
:103620000FF8F0B200F00CF8200A00F009F8E0B250
:1036300000F006F8BDE8F04100F036B8B80100200F
:1036400070B50B4C0022012105462046FEF7B5FA65
:10365000012220460221FEF7B0FA2846FFF7ACFF10
:103660002046BDE8704001221146FEF7A6BA0000D0
:10367000000C025870B50B4C002201210546204673
:10368000FEF79BFA002220460221FEF796FA284612
:10369000FFF792FF2046BDE8704001221146FEF779
:1036A0008CBA0000000C02580148007AFFF7E2BF14
:1036B000B801002010B50C46FFF7DCFFE0B2BDE812
:1036C0001040FFF7BDBF000013492B2330B42A245C
:1036D0002C224C818B814FF4A0730A814FF0F002B1
:1036E00060B101280ED0022810D0032812D10B801F
:1036F0004A80A82130BC3620FFF7DCBF0A804B800F
:103700000821F7E70B804A806821F3E70A804B80A5
:10371000C821EFE730BC7047B801002010B586B073
:1037200014216846FCF786FE0D48016841F040010F
:103730000160006800220B4C802100F040000590E1
:103740002046FEF73AFA0021802000900122204610
:10375000CDE9012103916946FEF71CF906B010BDC1
:10376000E0440258001802581FB5FEF7B5FA0121CF
:103770008DF80F1000208DF80E1012238DF80830F0
:1037800003248DF80B408DF800104FF010528DF887
:103790000D108DF80A0001928DF801008DF80900D6
:1037A0008DF80C006846FEF769FA0420FEF7A2FACD
:1037B0001FBD00000F4820220D4B002110B50360F3
:1037C000C0E90112C1600161416181610162416230
:1037D0008162C1620163FDF7BDF9052200214E201F
:1037E000FEF7B6FABDE810404E20FEF7A3BA00007F
:1037F00000000248F0000020FEE7FEE770B500245C
:10380000054605E005EB4401497800F099FA641C8F
:1038100015F814000028F5D170BD000038B59042AD
:103820004FF0FF3401D2994201D3204638BD121A1D
:1038300095B25A1A04EB400302EBD272491E88B2C9
:10384000009004EB6202054892B229469BB2FDF754
:1038500038F90248FDF750F9002038BDF00000208B
:103860001748F8B5016841F00201016000684B2774
:10387000144E154C00F00200009000203115C4E9F0
:103880000067A0600C348A000B018D102FC4042641
:10389000032784E8C100E0602061203C0A48FDF76E
:1038A0003BFDA4F15000002211468464A063462031
:1038B000FEF74EFABDE8F8404620FEF73BBA00009E
:1038C000D8440258B80402404001002070B50C46AC
:1038D000084905464FF48070C8610846FDF71CFD95
:1038E000044823462A46BDE8704000215038FDF7C1
:1038F00021BA00004001002001B5002244F62061F9
:1039000081B00CE0ADF8002005E000BFBDF800007C
:10391000401CADF80000BDF800008842F6D30198C5
:10392000431E0193EED20CBD0121FF2010B500F023
:1039300007FA0A2000F028F904460B2000F024F9C9
:1039400040EA042010BD0000052010B5FFF7D4FFA9
:103950000A4800224FF40051FEF72FF90520FFF727
:10396000CBFF0121FF2000F0EBF98021122000F0B5
:10397000E7F9BDE810400A20FFF7BEBF0014025867
:1039800070B50C4605462043800702D04FF0FF304B
:1039900070BD0021FF2000F0D3F95A20C5F3870144
:1039A00000F0CEF95B20C4F3870100F0C9F90420D0
:1039B00000EA1421C5F3812211435C2000F0C0F914
:1039C0000021E02000F0BCF9002070BD70B5154D5D
:1039D0004FF48044002221462846FEF7EEF80F20DF
:1039E00000F022F86600284600223146FEF7E5F88E
:1039F0000F2000F019F8012221462846FEF7DDF8D5
:103A00000F2000F011F8002221462846FEF7D5F8D5
:103A1000012231462846FEF7D0F8BDE870400F205D
:103A200000F002B800140258002208B50DE000BFF3
:103A3000ADF8002005E000BFBDF80010491CADF84E
:103A40000010BDF800100329F6D3401EF0D208BDC7
:103A500070B586B014216846FCF7ECFC1948016883
:103A600041F020010160016801F020010591016829
:103A700041F020010160006811214FF48044124E92
:103A800000F02000059000200094CDE90110694667
:103A900003903046FDF77EFF65006946304600958D
:103AA000FDF778FF012130460A4601910291214637
:103AB000FEF783F8012229463046FEF77EF806B06D
:103AC00070BD0000E04402580014025870B5124D59
:103AD0004FF48044002221462846FEF76EF80F205E
:103AE000FFF7A2FF01222846D103FEF766F80F2058
:103AF000FFF79AFF012221462846FEF75EF80F20C5
:103B0000FFF792FF002221462846FEF756F8BDE84F
:103B100070400F20FFF788BF001402582DE9F047CE
:103B2000184F00254FF4804681464FF4004A2C463A
:103B30006806314601224FEA10683846FEF73DF824
:103B40000F20FFF771FF51463846FEF731F800F0BD
:103B5000010531460022384645EA0805FEF72DF8F2
:103B60000F20FFF761FF641CE4B2082CE0D3B9F129
:103B7000010F04D0FFF7AAFF2846BDE8F087FFF742
:103B800025FFF9E70014025870B50024054600F03F
:103B900015F8284600F0C6F870B900F035F800F0C6
:103BA0000DF8612000F088F8012803D10020FFF70C
:103BB000B5FF044600F028F8204670BD70B501221C
:103BC000104DD40328462146FDF7F7FF0122284671
:103BD00096033146FDF7F1FF0F20FFF725FF002286
:103BE00021462846FDF7E9FF0F20FFF71DFF0022C1
:103BF00031462846FDF7E1FFBDE870400F20FFF792
:103C000013BF00000014025870B5134D4FF48044E8
:103C1000002221462846FDF7D0FF0F20FFF704FFC2
:103C20006600284600223146FDF7C7FF0F20FFF748
:103C3000FBFE012221462846FDF7BFFF0F20FFF7BC
:103C4000F3FE012231462846FDF7B7FFBDE870407C
:103C50000F20FFF7E9BE00000014025870B50122E2
:103C6000144CD50320462946FDF7A7FF0F20FFF788
:103C7000DBFE0122204696033146FDF79EFF0F2012
:103C8000FFF7D2FE29462046FDF792FF00284FF0AD
:103C900000023146204606D0FDF78FFF0F20FFF7C8
:103CA000C3FE002070BDFDF788FF0F20FFF7BCFEAC
:103CB000012070BD001402582DE9F041184E002477
:103CC0004FF4804705464FF40048280601D50122ED
:103CD00000E0002241463046FDF76FFF0F20FFF75E
:103CE000A3FE012239463046FDF767FF0F20FFF79C
:103CF0009BFE002239463046FDF75FFF072C04D1BA
:103D0000012241463046FDF758FF6806641C050E47
:103D1000E4B2082CD9D3BDE8F041FFF79FBF000003
:103D20000014025810B50446FFF748FF6020FFF763
:103D3000C3FF012802D12046FFF7BEFF002010BDBF
:103D400070B50D460446FFF739FF2046FFF7EAFF3E
:103D500010B92846FFF7B0FFFFF756FF002070BDEF
:103D600010B5026840F26F335169946944F0080459
:103D700094610268946944F01004946102681468C4
:103D800024F001041460026814699C431461026801
:103D9000936823F44043936090F88120042A0CD068
:103DA0008A060AD5D0F8842042F08002C0F8842028
:103DB0000268936943F02003936190F88120032AFD
:103DC0000CD04A060AD5D0F8842042F00402C0F88C
:103DD00084200268936943F0400393618A050AD501
:103DE000D0F8842042F00102C0F884200268936970
:103DF00043F400739361C9050AD5D0F8841041F0EB
:103E00000801C0F8841001688A6942F480728A61EE
:103E10000021A0F86210A0F86A1010BD2DE9F04151
:103E20001C4616460D460746DDF818800AE000BF1E
:103E3000FDF7C8FEA0EB0800A04202D3601C01D031
:103E40000BE054B13868406935EA000007D0002023
:103E5000B042EDD00020BDE8F0810320FBE7012057
:103E6000F6E710B5FDF7B4FE00F0A2FE012803D07E
:103E7000BDE8104000F086BE10BD000070B59CB0DB
:103E80004C216846FCF7D6FA202113A8FCF7D2FA99
:103E90000220FDF78FFF1E48016821F440410160B8
:103EA0000168002401F440411B910168C943890461
:103EB000FBD4022009900121C2030A23DC25CDE9AD
:103EC00000120AAA042682E82900CDE90D10CDE9E6
:103ED00010640F9068461294FEF7FCFA08B172B6AF
:103EE000FEE740201A9008230501CDE9163013ABF8
:103EF000CDE918053F21032283E8160013A81146D7
:103F0000FEF7D8F8002801D072B6FEE71CB070BDED
:103F1000184802582748F0B5274A016841F4700153
:103F20000160106800F00F00072804D2106820F02C
:103F30000F00C01D106021490020204C10340B6878
:103F40001F4D43F001030B6020600B682B400B609A
:103F5000136803F00F03072B04D9136823F00F0332
:103F6000DB1D1360154C174A1834174B261D371DDF
:103F70002060124C154D28343060261D3860371DE6
:103F800023603B1D35601C1D3A60251D2E1D1860E9
:103F9000331D22602860326018600A6843F2D20440
:103FA000064B0B4D22F4802260330A6018602C60AF
:103FB000F0BD000088ED00E00020005200440258EF
:103FC0007FEDF6EA80020101000202020000FF011B
:103FD0000040005230B5416EB9B101680D4B03F19C
:103FE00008048A688968C2F34262490F5D5C615CBB
:103FF0002D01B5FBF1F1A0F86A10995CA25C0901F2
:10400000B1FBF2F1A0F8681030BD0121A0F86A10F0
:10401000F8E700002E4E000890F82810C90706D0D7
:104020000168C36A4A6822F400321A434A6090F871
:104030002810890706D50168036B4A6822F480328C
:104040001A434A6090F82810490706D50168436B67
:104050004A6822F480221A434A6090F8281009071F
:1040600006D50168836B4A6822F400421A434A600D
:1040700090F82810C90606D50168C36B8A6822F437
:1040800080521A438A6090F82810890606D5016884
:10409000036C8A6822F400521A438A6090F8281050
:1040A000490611D50168436C4A6822F480121A430C
:1040B0004A60416CB1F5801F06D10168836C4A6883
:1040C00022F4C0021A434A6090F82810090606D567
:1040D0000168C26C486820F40020104348607047B3
:1040E0002DE9F84300250446C0F89050FDF76AFD1D
:1040F0008046206820266FF07E470068000713D5B1
:104100000022434631042046009700F057FA58B188
:10411000216851E8000F20F0800041E80002002AE9
:10412000F6D1C4F8886021E020680068400722D5F5
:10413000002243464FF480012046009700F03EFAEB
:10414000C8B1206850E8001F21F4907140E80012C7
:10415000002AF6D12068083050E8001F21F0010144
:1041600040E80012002AF5D1C4F88C60032084F8DE
:104170008450BDE8F883C4F88860C4F88C60E566B4
:104180002567002084F88450F3E7000010B502682A
:1041900052E8001F21F4907142E80013002BF6D181
:1041A0000E4B0268083252E8001F194042E8001422
:1041B000002CF6D1C16E012908D1026852E8001F17
:1041C00021F0100142E80013002BF6D1002120223B
:1041D000C0F88C20C166416710BD0000FEFFFFEFF4
:1041E0002DE9F04304468068E24E87B0E24B216837
:1041F000D4E90427D4F81CC010430A68002547EA14
:104200000C073843324002430A602068E268416884
:1042100021F44051114341602268A1699A4201D0C2
:10422000206A01439668DFF854C3D54FD54806EAA3
:104230000C060E4396602168666ACA6A22F00F0275
:104240003243CA622268BA420ED1006800F03800D8
:1042500018286FD07ADCB8B308286CD010286BD13E
:104260008BE0282868D18EE0C7498A4209D10068CE
:1042700000F0070006285FD2DFE800F0507D7F8164
:104280008385C2498A4209D1006800F007000628E8
:104290007BD2DFE800F0437072747678BC498A42C2
:1042A00009D1006800F0070006286ED2DFE800F0B0
:1042B00036636567696BB7498A420BD1006800F0C5
:1042C0000700062861D200E043E0DFE800F0275451
:1042D00056585A5CB0498A4206D1006800F038004E
:1042E00018284CD0B7DD31E0AC498A4209D10068CA
:1042F00000F00700062848D2DFE800F0103D3F41FB
:104300004345A7498A420BD1006800F00700062800
:104310003BD2DFE800F0033032343638002035E09D
:10432000A0498A4209D1006800F03800182826D038
:1043300091DD0BE023E01EE027E09B498A420AD191
:10434000006800F03800182819D084DD202888D1B2
:104350001CE001201AE09A4217D18A48001D00682B
:1043600000F00700062810D2DFE800F00305070977
:104370000B0D02200AE0042008E0082006E01020CF
:1043800004E0202002E0402000E080208749DFF8A0
:1043900020829A42874A4FF400434FEA21174FF098
:1043A00000064ED110281AD006DC022809D00428B5
:1043B0000BD008287ED10DE020283ED0402879D1AE
:1043C0003DE0FDF721FD014610E06846FDF72EFDBA
:1043D00001990BE003A8FDF7CBFD049906E01068F6
:1043E000800605D51068C0F3C100C140002970D017
:1043F000606A676838F8102007EB4703B1FBF2F0FA
:10440000834257D8B0EB073F54D8002308461946DB
:10441000FBF7D8FF02467808130E120243EA012187
:1044200010183A4671410023FBF7CCFF624AA0F511
:10443000407191423ED821688FE03946D8E719464D
:10444000D6E7D4F81CC04FF6EF799C4546D1082832
:1044500019D005DC58B101280CD0042875D10DE025
:10446000102815D0202835D040286ED134E0FDF733
:1044700071FF01E0FDF780FF014610E06846FDF79F
:10448000D5FC01990BE003A8FDF772FD049906E045
:104490001068800604D51068C0F3C100C140C1B1E6
:1044A000636A606838F81330B1FBF3F1490001EB3F
:1044B000500100E049E0B1FBF0F0A0F110014945E6
:1044C00043D84FF6F0732168C0F3420218401043FE
:1044D00043E043E03946E3E71946E1E7082819D00D
:1044E00005DC58B101280CD004282ED10DE010288D
:1044F00015D020282BD0402827D12AE0FDF72AFF0D
:1045000001E0FDF739FF014610E06846FDF78EFC3B
:1045100001990BE003A8FDF72BFD049906E0106854
:10452000800604D51068C0F3C100C140B1B1636A10
:10453000606838F81330B1FBF3F101EB5001B1FBC7
:10454000F0F0A0F11001494505D9012506E03946F2
:10455000EDE71946EBE7216880B2C8600120A4F8B6
:104560006A00A4F8680028466667A66707B0BDE839
:10457000F0830000F369FFCF000C0058FFF4FF1137
:1045800000100140544402580044004000480040DC
:10459000004C0040005000400014014000780040F2
:1045A000007C004000180140001C01400090D00336
:1045B000164E000800440258FFFC0F002DE9F0479A
:1045C000994617460E460446089D4FF000082FE016
:1045D000681C2DD0FDF7F6FAA0EB0900A84214D80C
:1045E0009DB120680168490722D5C169C9430907FF
:1045F0000DD4082505622046FFF7C8FDC4F8905089
:10460000012084F88480BDE8F0870320FBE7C069BF
:10461000C04300050CD421684FF4006008622046B6
:10462000FFF7B4FD2021C4F8901084F88480ECE7F3
:104630002068C06936EA000004D00020B842C7D024
:104640000020E0E70120F9E71148002110B50F4CE8
:104650000C224FF4E1330460C0E90131C160C0E9CC
:1046600004128161C161016241628162FEF734FC22
:1046700007480021FEF70AFC05480021FEF7E0FB91
:10468000BDE810400248FEF7BBBB0000001001402F
:104690005C000020FEE700000FB4054B10B503A935
:1046A000044A029800F028F810BC5DF814FB0000E2
:1046B000B949000800000020090700284FEA1161ED
:1046C00004DB00F1E02080F80014704700F00F00D8
:1046D00000F1E02080F8141D704702E008C8121FA6
:1046E00008C1002AFAD170477047002001E001C1DB
:1046F000121F002AFBD170472DE9FF4F8DB09B465A
:104700000F460446002606E025280BD05A460F998E
:104710009047641C761C20780028F5D111B03046F3
:10472000BDE8F08F0025A8460122984900E0054326
:1047300014F8013F203B02FA03F00842F7D1207839
:104740002E2817D114F8010F45F004052A280ED0A1
:104750006FF02F022078A0F1300109290AD808EB68
:10476000880102EB410100EB0108641CF2E757F8F5
:10477000048B641C20786C280DD004DC4C2812D0EB
:104780006A2811D104E074280DD07A280CD10AE0EF
:1047900045F4001507E0617845F48015814202D1A7
:1047A000641C05F58015641C2278692A45D008DC54
:1047B000002AB3D0582A69D0632A10D0642A08D1BD
:1047C0003BE0702A67D0732A13D0752A5CD0782A10
:1047D0005CD010465A460F999047761CD3E017F8E4
:1047E000040B8DF8000000208DF80100E94601203F
:1047F00003E057F8049B4FF0FF3069074FF00005C6
:1048000001D40AE06D1C45450DDA8542FADB19F842
:1048100005100029F6D106E06D1C8542FCDB19F875
:1048200005100029F8D12E4404E019F8010B5A466E
:104830000F9990476D1EF8D2A5E00A200021CDE91E
:104840000801C5F3025002280DD001CFC117031E85
:1048500071F100030DDA4FF0000CD0EB0C006CEBA3
:1048600001012D2308E0FF1D27F00707F7E80201EB
:10487000EDE72B0504D52B238DF8283001233BE0F1
:10488000EB0739D02023F7E70A2000E010200021B1
:10489000CDE9080107E01020002145F00405CDE92D
:1048A00008014FF00808C5F3025002280FD001CFCD
:1048B00000214FF0000A2B071FD5702A0DD0DDE92B
:1048C00008C38CF0100C5CEA030C0CD015E0FF1D43
:1048D00027F00707F7E80201EBE740228DF82820D0
:1048E0004FF0010A0BE050EA010306D030238DF8A7
:1048F00028308DF8292002239A46582A04D024A271
:104900000DF120090B9209E026A2F9E7DDE9082361
:10491000FBF758FD0B9B9B5C09F8013D50EA010237
:10492000F4D1ADEB090020300890680701D44FF0B6
:1049300001080899884502DDA8EB010000E000208D
:104940008046002506E00AA85A46405D0F99904728
:104950006D1C761C5545F6DB04E030205A460F9955
:104960009047761CB8F10001A8F10108F5DC05E0DC
:1049700019F8010B5A460F999047761C0899481E62
:1049800008900029F4DC641CC5E600000928010039
:1049900030313233343536373839616263646566B5
:1049A0000000000030313233343536373839414277
:1049B000434445460000000013B504486423012227
:1049C0006946FEF701FB00981CBD00005C0000205A
:1049D00008B5FEF7C9FE374900240868800311D4E2
:1049E000BFF34F8FBFF36F8F33480460BFF34F8F18
:1049F000BFF36F8F086840F400300860BFF34F8F3B
:104A0000BFF36F8F0868C00323D42A487030046056
:104A1000BFF34F8F001F43F6FF7C0068264D103513
:104A2000C0F34E32C0F3C9030CEA4216184600BF69
:104A300046EA80772F60401EFAD2521EF4D2BFF3AE
:104A40004F8F086840F480300860BFF34F8FBFF38A
:104A50006F8FFDF7C5F8FFF711FAFEF75FFEFFF75E
:104A6000F3FDFEF719FCFBF775FD4FF010564FF400
:104A7000E1413046FEF72AFF104F38780128FCD17B
:104A80003C704FF4E1303546BFF34F8F0A490C318B
:104A90000D60203820350028FADCBFF34F8FBFF3BC
:104AA0006F8FEF23009600211A460846FEF718FB89
:104AB000E3E7000014ED00E050EF00E00400002008
:104AC0000648416B096829B1416BC968C9684968E2
:104AD000816270474FF0FF31FAE7000020000020AC
:104AE000D0E9013201699A60D0E901235A604A682D
:104AF000824201D182684A60002202610868401E39
:104B000008600868704742684A6093688B609368E1
:104B10005960916008610168491C0160704700009C
:104B2000164810B5016B11B10121C16110BD002102
:104B3000C161134A016901E0B9B1491E01EB81036A
:104B400052F82330002BF7D001EB810302EB8302F4
:104B500002F1080453685B685360A34201D15B68AB
:104B60005360DA680260016110BD502080F3118843
:104B7000BFF34F8FBFF36F8FFEE7000020000020D0
:104B800050020020502010B580F31188BFF34F8FE2
:104B9000BFF36F8F00F01AF818B104494FF080503E
:104BA0000860002080F3118810BD000004ED00E0D3
:104BB0000548416919B1006B18B100207047012008
:104BC0007047022070470000200000202DE9F041CE
:104BD0002E4C206B002728B1A069401CA0613846EC
:104BE000BDE8F081E668761CE66013D1606B006872
:104BF00038B1502080F31188BFF34F8FBFF36F8F10
:104C0000FEE7606BA16B6163A063206A401C2062B9
:104C1000FFF756FFDFF87880A06A864209D3606B01
:104C20000068A0B1606BC068C5686868864211D230
:104C3000A0622068C06A00EB800158F821000128BA
:104C400000D90127E0690028C9D00127C7E74FF044
:104C5000FF30EDE7281DFFF743FFA86A18B105F103
:104C60001800FFF73DFFE86A2169884200D92061FA
:104C700000EB800108EB8100291DFFF744FF20684D
:104C8000E96AC06A8142CAD30127C8E72000002030
:104C900050020020FF00DA09D703E0000500000001
:104CA000FF00DA10E177D703E00005000000FF0104
:104CB0001280FF002CFF2EDFFF013C322C0C3378DA
:104CC0003A333BFB3E0043111610399235DA221A73
:104CD00037C3361A4C005B0042034A8121995C00BD
:104CE00063007C056C006D806E007002719473C16E
:104CF0002080283037C03D386D002300068807C06B
:104D00000D870E41110009020428124014481500B5
:104D10003209038A460024402538268234C0617057
:104D200062801711184319011A9713E50C3A4FBB0B
:104D3000509C5A23FF00E57F412476FF33A0422098
:104D400043184C00D703D910883FC808C9807C009D
:104D50007D007C037D487D487C087D207D107D0E94
:104D60009000910E911A9131915A91699175917EAD
:104D70009188918F919691A391AF91C491D791E829
:104D800091209200930693E3930593059300930477
:104D90009300930093009300930093009300960078
:104DA000970897199702970C97249730972897267A
:104DB00097029798978097009700A400A800C511C4
:104DC000C651BF80C710B666B8A5B764B97CB3AF8B
:104DD000B497B5FFB0C5B194B20FC45C7F00F9C001
:104DE000E01487D0C3EDC20E863DDA09C064C14B22
:104DF0008C00500051C85296530054005500570083
:104E0000D304E51FE167DD7FE00005000000000638
:104E1000101600061016010002000400060008002B
:104E20000A000C0010002000400080000001010179
:104E30000103070100000804020408010101000049
:104E40000000010203040102030406070809000030
:104E5000704E0008000000205C000000DA460008E8
:104E6000CC4E00085C000020BC0A0000EA460008A6
:104E70000000000000000000000000000100000031
:104E800010000000000000000090D0030090D0034C
:104E90000000000000000000000000000000000012
:104EA0000000000000000000000000000000000002
:104EB00000000000000000000000000000000000F2
:0C4EC000000000000000000000000000E6
:04000005080002CD20
:00000001FF
